:020000040000fa
:080000000002040000000000f2
:020000040000fa
:100008009a0200009a0200009a0200009a02000078
:100018009a0200009a0200009a0200009a02000068
:100028009a0200009a0200009a0200009a02000058
:100038009a0200009a0200009a0200005a29000061
:10004800883800009a0200009a0200003e42000030
:100058009a0200009a0200009a0200009a02000028
:100068009a0200009a0200009a0200002a2f00005b
:100078009a0200009a0200009a0200009a02000008
:100088009a0200009a0200009a0200009a020000f8
:100098009a0200009a020000104400009a02000030
:1000a8009a0200009a0200009a0200009a020000d8
:1000b8009a0200009a0200009a0200009a020000c8
:1000c8009a0200009a0200009a0200009a020000b8
:1000d8009a0200009a0200009a0200009a020000a8
:1000e8009a0200009a0200009a0200009a02000098
:1000f8009a0200009a0200009a0200009a02000088
:100108009a0200009a0200009a0200009a02000077
:100118009a0200009a0200009a0200009a02000067
:100128009a0200009a0200009a0200009a02000057
:100138009a0200009a0200009a0200009a02000047
:100148009a0200009a0200009a0200009a02000037
:100158009a0200009a0200009a0200009a02000027
:100168009a0200009a0200009a0200009a02000017
:100178009a0200009a0200009a0200009a02000007
:100188009a0200009a0200009a0200009a020000f7
:100198009a0200009a0200009a0200009a020000e7
:1001a8009a0200009a0200009a0200009a020000d7
:1001b8009a0200009a0200009a0200009a020000c7
:1001c8009a0200009a0200009a0200009a020000b7
:1001d8009a0200009a0200009a0200009a020000a7
:1001e8009a0200009a0200009a0200009a02000097
:0801f8009a0200009a020000c7
:020000040000fa
:100208009a0200009a0200009a0200009a02000076
:100218009a0200009a0200009a0200009a02000066
:100228009a0200009a0200009a0200009a02000056
:100238009a0200009a0200009a0200005a2900005f
:10024800883800009a0200009a0200003e4200002e
:100258009a0200009a0200009a0200009a02000026
:100268009a0200009a0200009a0200002a2f000059
:100278009a0200009a0200009a0200009a02000006
:100288009a0200009a0200009a0200009a020000f6
:100298009a0200009a020000104400009a0200002e
:1002a8009a0200009a0200009a0200009a020000d6
:1002b8009a0200009a0200009a0200009a020000c6
:1002c8009a0200009a0200009a0200009a020000b6
:1002d8009a0200009a0200009a0200009a020000a6
:1002e8009a0200009a0200009a0200009a02000096
:1002f8009a0200009a0200009a0200009a02000086
:100308009a0200009a0200009a0200009a02000075
:100318009a0200009a0200009a0200009a02000065
:100328009a0200009a0200009a0200009a02000055
:100338009a0200009a0200009a0200009a02000045
:100348009a0200009a0200009a0200009a02000035
:100358009a0200009a0200009a0200009a02000025
:100368009a0200009a0200009a0200009a02000015
:100378009a0200009a0200009a0200009a02000005
:100388009a0200009a0200009a0200009a020000f5
:100398009a0200009a0200009a0200009a020000e5
:1003a8009a0200009a0200009a0200009a020000d5
:1003b8009a0200009a0200009a0200009a020000c5
:1003c8009a0200009a0200009a0200009a020000b5
:1003d8009a0200009a0200009a0200009a020000a5
:1003e8009a0200009a0200009a0200009a02000095
:0803f8009a0200009a020000c5
:020000040000fa
:10040000cfe520000eff20000e0188000000000054
:10041000000020000000e000020032000001200087
:10042000200288000c000700208d2300010020001e
:1004300011000700000020000000e0000200320070
:100440000000020000000000960e02000000000004
:100450000040da000000fe004440a90060312000a6
:100460000000e0000300320000002000a00188002e
:100470004440a80000000600910188008000780038
:100480000000eb0015003700e280400032a0b4000d
:100490009101ba00e280400032a0b4009102ba009b
:1004a000e280400032a0b4000002eb00472bde00e7
:1004b000f507b200602ce10004003a000059eb009f
:1004c0008301e900fdff3e00040037006128e100e0
:1004d000010032000082eb00040007001101ba00a5
:1004e0000200e000e8ff3a00000006003159ba00bf
:1004f0008301e9000c0032002159ba008301e900b0
:10050000080032000400e00003003a00e2804000ee
:1005100032a0b400f5ff370011d9ba008301e90019
:10052000faff3a008100e800e180400032a0b40008
:10053000000006000040da000000fe0003f0a20008
:10054000889fbe008a9fbe008c1f78002a0107008a
:10055000310133006450e1004f0032006420e100bb
:100560005200320003826c0007003b000905d000f6
:100570000306d000820f54000c065d000200390013
:100580000200320089017800030678008582550058
:1005900004003d000003fd008103fd008502ea0028
:1005a0008b854200840f720002003b006000100047
:1005b000e08018006011b8000005eb007a28e10027
:1005c0000a00390006007800c75ddd00f707b200b9
:1005d000878075002d003700828171000a01780044
:1005e000610560008180d1000080d3008502e900b0
:1005f000f9ff3b00060440008784480002003b00ee
:1006000060041400e0841c000988a3000700320085
:100610008a81710082817100610164008904d100c6
:100620000884d3008b05e800170037000978a30081
:1006300013003a000b00e000130034008b05e900c2
:100640000804440089844c000a4474000978a3001b
:100650000d003a000b00e000070034008b05e900b4
:100660000804440089844c0001003a000b0020007b
:100670000978a300f7ff32000001eb000200370009
:10068000828171000a017800a00007000cf0a70029
:1006900001f0a000e90037006420e10002003a0008
:1006a000838f6c00e90033000801be000200be0029
:1006b000e2003700889fbe008a9fbe008c1f780032
:1006c000cd000700d400330003866c006450e100c5
:1006d0002e0032006420e100330032006150e1005e
:1006e0002f0032006120e100310032008585550085
:1006f000eb07b000090020000804200005003700c7
:100700000804440089844c000a00310006034300b9
:1007100087834b000001530081815b00f8ff3300a9
:100720000203be000800a0000804440089844c00b5
:10073000f6ff3900c639dd00830173000100320085
:10074000130020008904d1000884d3000998a30075
:10075000050032000800a7000300a0008904d100b2
:100760000884d3008b05e8008904d1000884d300f5
:100770000001eb000281d2006400070001f0a1003b
:100780000cf0a70001f0a000ac0037006420e100ed
:10079000ae0032000801be000200be00f7ff3700c5
:1007a0006120e100a90032006000b800f3ff3700cb
:1007b0000000200001f82700f0ff3700839f680049
:1007c0000100e00002003d0060001000e080180021
:1007d0000300e00002003d0060011100e08119000b
:1007e000e90107004f00e00002003b00600010003c
:1007f000e08018000000060014002000b40237005a
:10080000f4ff2f00b20237000001be0065000700b0
:100810000470a70003f0a1006509b10016003200c2
:100820000d0035006828e10006003500f0ff2f00bc
:10083000f1ff27000300e00013003b000100280047
:100840000000050000004000818048008502e900aa
:10085000fcff3a0008003700f88f420002003c001d
:100860008000eb00000005008100d1000080d30073
:100870008502e800fcff3a000300e00002003b00b4
:1008800060001000e0801800000006000001be00bb
:10089000440007000470a70003f0a10003f8a300c0
:1008a00013003a006509b10010003200090035005c
:1008b0006928e10002003500010028000000050061
:1008c00000004000818048008502e900fcff3a00fa
:1008d00000000600f88f4200050035008100d100bd
:1008e0000080d3008502e800fcff3a00000006000b
:1008f0008000eb00000005004f89de0082017800d7
:100900008e0237006011b8009c0237008100200081
:10091000618055000b003d000b00200061fe2f00a0
:100920000100e1001d00340082817100610164005a
:100930008904d1000884d3000000e800faff3a00df
:10094000710020006100640003007000020060007c
:100950000900320061044400e0844c000988a500cd
:10096000050032008b05e8006808e10002003a004b
:100970008904d1000884d300f20f20000258e1005e
:1009800005003d00c75ddd00f907b20089807500f4
:1009900008007800000006000bf827008b007800a4
:1009a00000000500c70ade00f107b200f50fb20033
:1009b00008003200e1cf4200020032000170a000c6
:1009c00024000500810f70000100320004080500ba
:1009d00044000500810f700002003a001400050079
:1009e0008502e9000000400081c04800fcff3b0098
:1009f0000170a000240005000004be00e9ff07000c
:100a00000003be000405be000200be00e5ff0700b3
:100a1000844f7500000006000200be006450e10033
:100a2000050036006420e100020036000968a300da
:100a300001003a000800be000160a0004f067800e7
:100a40004f05be004f04be0000000600f0ff2f005f
:100a5000f1ff2700f9ff3700889fbe008a9fbe0084
:100a60008c1f7800e4ff0700ebff330003866c0067
:100a70006450e100240032006420e10027003200cd
:100a80006150e100220032006120e10021003200cb
:100a90008b854200eb07b1000134b800003ab80082
:100aa0000804420089844a00013ab8000030b800c6
:100ab0008880400009014a00040033000000400023
:100ac00081804800020149008b05e900c909dd0069
:100ad000830170000100320013002000c814de0002
:100ae0004814dd004709de001200b200c808de002d
:100af0000884700085ff070001f0a1000cf0a7003a
:100b000001f0a000cdff37006120e100cfff3200ef
:100b10000801be000200be00f7ff37006150e1008f
:100b2000fcff3a00c9ff37000c00fa00889fbe00a6
:100b30008a9fbe008c9fbe00afff07000206be006a
:100b4000840578000200be0002002000b901070001
:100b500005003a008b02b30012002000b501070027
:100b600001003a00f8856d000c01be00c6000700c8
:100b70000800be009b0032000b08a3009e003a0054
:100b80000df0a7000be0a00009f0a7000bf0a000fb
:100b900009f0a1000801be00bb0007000bf0a60091
:100ba0009500320001003c000bd0a0008acf7500f8
:100bb000b20033006000b8006250e10099003900d3
:100bc000a1003e000b28a300a2003a000bf8a300ee
:100bd000060032000b58a300a70032000801be0037
:100be000a90007000800be00940032000800be0003
:100bf000210107000004be00050578000bf0a700e6
:100c00000b30a6000bf0a1005b079800324f2000cc
:100c100053f32300f8fe070005003d000800be0066
:100c200012002000040207000004be000a05e900cb
:100c30004a0798006150b9002fff0700008fbe00df
:100c40000c01be0084ff0700effe0700300798008c
:100c50000100e00002003d0060001000e08018008c
:100c6000f2ff2700820f5000e08f580064003e0022
:100c70000c00be00e4fe070020079800f2072000e9
:100c8000820f5000e08f580005003c0012f82f0042
:100c9000f3ff2f00820f5000838f580009003d00a2
:100ca0000a00e0000300320001003c000201ea00fb
:100cb000020578006000b800200798003a07980005
:100cc000190037003e0090006100b9000aff0700dc
:100cd000809fbe000c00be004109dd004811de000f
:100ce0007208b100530107000005be001e01be00de
:100cf00059ff07004f01be0010fe0700809fbe0095
:100d00000c00be000a01be000cfe07001e01be0062
:100d100051ff07004f01be0009fe07008221270096
:100d200013f323004cff07000005be002e009000c7
:100d30006100b900f0fe070001f0a2000c01be0046
:100d4000fffd07000006be000800be00dc01070032
:100d50000c01be0040ff07000a01be00f8fd0700bd
:100d6000809fbe004a0007002e0590000af0a700f1
:100d70000a05ea00050037000800be000801be00b1
:100d800035ff07000004be000c00be000801be00d5
:100d90000a00a70030ff07000006be000a05d100c8
:100da000f5ff3a005e01900002e0a6000300370064
:100db0000001be00360007003efe07000004be0032
:100dc0004f00be00b90007000801be0022ff070067
:100dd0003e01900098010700de0590000bf0a7008f
:100de00001f0a2004f06be004f05be004f04be003a
:100df0000080fa000000060025000700f9ff370018
:100e0000270007006000b8000bd0a7000bc0a000af
:100e10000be0a7000bc0a2000bc0a70001f8270041
:100e2000f0ff37000df8a300020032001e0007009b
:100e3000190007000bf8a300eaff32000b30a700ef
:100e400001f0a200e7ff37000df8a300f9ff3a0018
:100e5000f7ff37000801be000b000700e6ff320075
:100e600001003c000df0a2006000b8000df0a700ea
:100e700009000700dbff37000b000700f1ff270028
:100e8000f0ff2f00d7ff3700010007005afe3700a0
:100e900001f823000000050001f82700000005000c
:100ea000200220000100370010022000d0728800cc
:100eb00000000600889fbe008a9fbe008c1f78003d
:100ec0000004be00b7fe07000478a30026003a0025
:100ed0006120e1002500320009f8a30025003a0056
:100ee0006420e10021003200f507b1000508a300ed
:100ef0000200320000004000818048006044b800d9
:100f00000310200002002000000040008180480003
:100f10000805440089854c000a0541008b8549007d
:100f20000a0550008b855800030033000a00be00fc
:100f300002047400838474008301d1000281d30011
:100f4000830f7100f0ff3a008904d1000884d300b8
:100f50006001490082017800c1adde00fb07b000ee
:100f60006afe0700b5fe37000960a0000800be0059
:100f7000b2fe370012022000d2728800f0ff2f006c
:100f8000f1ff2700adfe37006022b8000602200006
:100f90000000d0008180d2000482d2008582d2007d
:100fa0000000a0000202520083825a0003003100b8
:100fb0000202420083824a000000a1000603e90009
:100fc000f3ff3a0000000600efff07000400be0038
:100fd00000000600889fbe008a9fbe008c1f78001c
:100fe0000006eb00e00f5000e08f5800e00f5900c2
:100ff000e08f590007003d006044b8006055b8001c
:101000001c0020000000540081805c0002015d0093
:1010100083815d00e00f5200e08f5a00e00f5b001b
:10102000e08f5b0007003d006044b8006055b800e9
:101030000c00a2000402540085825c0006035d00df
:1010400087835d0075010700e00f5600060032003f
:101050006022b8006033b8000000520081805a005e
:1010600002015b0083815b004f0678004f05be00e4
:101070004f04be00000006000003be0049fe07004a
:101080006220e100020032000600be0005000500fb
:10109000e507b100f107b20004f02300848070007e
:1010a00007f0a70001f0a00024000500889fbe0003
:1010b0008a9fbe008c9fbe000004be0039fe070060
:1010c0000800be006420e10048003e0055003200e8
:1010d00072212700132b2400c9fd070047003c00a4
:1010e0000800be00c2ec2800e32c2c00c2fd070063
:1010f000470035000800be0001f0a10002002000fa
:1011000003382300bcfd0700430035000800be0083
:10111000b2a32a0083fb23004ffe07000200200039
:1011200003f0230001f0a70003f0a00004fd070076
:10113000b5fd07000005be00effd070001f0a200ad
:101140000006be000200280013f3230042fe070041
:101150000801be00fafc0700809fbe000c00be0024
:1011600032082800e3952b003bfe07004f01be002c
:10117000f3fc07000006be000001be0036fe0700bb
:10118000809fbe004241250083b8230032fe070045
:101190000200200003e82300e9fc07000c01be0068
:1011a0002dfe07000006be004f00be00f2f92b0026
:1011b000c3d4230028fe07000200200003f0230010
:1011c000dffc07000c01be00dcfc07000001be00d4
:1011d0000c00be0037fd07000200200003f02300d2
:1011e000d7fc070061014500930007004f06be00d1
:1011f0004f05be004f04be000000060001f82700a6
:101200000000200022022000d2728800f7ff370081
:101210006000b800fbff370001f823000000200049
:10122000f2ff370009f8a300f0ff32006000b800b9
:10123000eeff3700889fbe008a9fbe000003be00fd
:10124000d8fd070085057800828152000200200049
:101250006220e10004003a00f307b1000400350009
:101260007718e100040035000600be0014003700c6
:101270006000b8000f003700f50f2000faff2f00c4
:101280008502d1000a85d3008301e900fcff3b0001
:101290008184620000046500890f7400f2ff32004f
:1012a0008582ea000a85ea00818462000004650004
:1012b00096fd070007f0a70001f0a0000081eb00f9
:1012c0000200e0004f05be004f04be000000060013
:1012d000889fbe008a9fbe00841f7800c6fd07005d
:1012e0004f00780011003300f0ff2f00838f6c0057
:1012f00006003b00040565000a00a700080037004f
:1013000009f0a6001000200008003700820f5400ea
:10131000838f5c00030039001000200001003e00b4
:101320000000200009f0a7000000ea004f05be0001
:101330004f04be000000e00000000600881f780097
:10134000030478000300e00007003d006000100087
:10135000e080180060011900e081190002003b00e4
:1013600001f02d00030037000400070008f0a7007b
:1013700001f0a0004f04780000000600889fbe0026
:101380008a9fbe0000827000040271000482710016
:10139000260032000004be000200be006011b8004a
:1013a0006b092000950220000182cf000a0039005d
:1013b0000541b1000082cf00070039000541b100ae
:1013c0000982cf00040039000541b1000882cf0036
:1013d000010039000541b1000542520012003200ff
:1013e0000a003b0082817100610164008100d1002c
:1013f0000080d3008984d3000884d3008b05e800e3
:101400000442e800f7ff3a000700370008044400f0
:1014100089844c0000004800818048008b05e90069
:101420000442e900f9ff3a0038fd07004f05be000d
:101430004f04be00000006000003be0059fd070077
:101440006220e100020032000600be00000006003b
:1014500085024100e30f20000328e10005003c0065
:10146000a3fe2f000328e10007003d000500200037
:1014700001003700f50f200020022000d072880004
:101480006000b8000800370013002000838152007c
:1014900005003d008100d1000080d3008301e800f9
:1014a000fcff3a0005002000c72add00f107b2006a
:1014b0008580700007f0a70001f0a0000000060082
:1014c000889fbe008a9fbe008c9fbe00eafe070078
:1014d000850478000005be006420e10049003e005c
:1014e0006220e10003003200090035000bf8a30080
:1014f000440032000bf8a300080032001002200064
:10150000d0728800f0ff2f00f1ff27003d00370068
:1015100001f82f00000020003a0037003d000700ce
:1015200006fc07000006be000a00be00324f200085
:1015300053f32300b2fc0700060034000c00be0089
:1015400034000700fdfb07000006be000a00be00d5
:10155000020037008904e9000c00be002d000700de
:101560003dfd07002b000700f5fb07000001be0052
:101570000c00be004ffc07000005be000001be00cd
:1015800035fd07000006be00a2f32300430d2c002a
:10159000ebfb0700809fbe000c00be00d2e32700db
:1015a000d3f02b002cfd07004f01be0041fc0700cb
:1015b0000006be000a01be0027fd07000a01be00aa
:1015c000dffb07000006be006148b900cafc070047
:1015d0000005be0032082800e3952b001efd070021
:1015e0000c01be00d6fb07000006be000a00be00cc
:1015f0000200280013f3230017fd07000c01be00b2
:10160000cffb07004f06be004f05be004f04be00d3
:101610000000060003f0230002000500889fbe00c2
:101620008a9fbe008c9fbe000404b8000506b80067
:101630008904460060854e000606b8000a0546008b
:10164000e0854e000706b8008b054600040eb80082
:10165000890446000a854e00e0854d00050eb8005d
:101660000a0546008b854e00060eb8008b05460025
:101670000416b8000a0546008b854e000516b80012
:101680008b054600041eb8008b0546000800be000e
:101690000a01be004f06be004f05be004f04be004b
:1016a0000000060000027800b1427800055a780078
:1016b000e0cf5200fcff3a00000006000b003700ac
:1016c00030427800e04f5200030032000201e9008e
:1016d000b14f5200050032000480fb0095427800b3
:1016e0008582fb00050050000000060081027800a2
:1016f000e00f5100f2ff3a000200780000000600ff
:020000040000fa
:101700005a0000005472000069670000676500001d
:101710007220000050690000746f00007420000007
:10172000436100006c690000627200006174000097
:10173000696f00006e0d00000a0000004175000096
:10174000646900006f200000616e000064200000ea
:10175000427500007a7a0000657200002054000093
:101760006f670000676c0000652000004f66000096
:10177000660d00000a000000417500006469000069
:101780006f200000616e00006420000042750000c0
:101790007a7a000065720000205400006f67000034
:1017a000676c0000652000004f6e00000d0a00000d
:1017b0000041000075640000696f000020540000c3
:1017c0006f670000676c0000652000004f66000036
:1017d000660d00000a000000417500006469000009
:1017e0006f200000546f0000676700006c65000008
:1017f000204f00006e0d00000a000000424600006d
:1018000056200000004200006c7500006546000094
:101810006c79000056610000726900006f5f000083
:1018200000540000544c00005f470000505300007b
:101830005f000000544d00005020000000500000e8
:1018400052530000200000004246000052200000d9
:10185000005f0000505200005320000000420000d2
:10186000465600002c0000002c0000003000000054
:1018700042460000582c0000004c00004b3800008d
:1018800045580000312c0000002c000039390000c0
:1018900039390000392c00000039000039390000c6
:1018a000004c000058570000503000002c4e000043
:1018b0002c0000002c2c00002c2c00002c2c0000f4
:1018c0002c2c000000420000534400000052000095
:1018d0004e430000002400002424000000520000b9
:1018e0002c3100000a0000004256000055000000a4
:1018f0004256000044000000425300005400000023
:10190000544d0000500000005253000054000000ed
:101910005253000058000000245000004d540000b5
:101920004b300000303000002a330000320d000040
:101930000a000000245000004d5400004b3100000c
:10194000303400002a330000370d00000a00000088
:10195000534c000050000000534c000058000000a1
:10196000425400004e000000424600004b000000c0
:10197000424600004c0000004246000050000000bb
:1019800042410000430000004241000044000000ca
:101990004254000048000000424600005100000090
:1019a0004246000049000000425300005100000080
:1019b000425300004900000042460000530000006e
:1019c000424f00004c000000424f00005300000056
:1019d000425200004d000000425600004c00000042
:1019e000424f00004d000000424f00004600000042
:1019f0004251000048000000425200004200000036
:101a00004250000054000000425500005200000007
:101a1000424c00004400000042520000320000002e
:101a200042480000560000004248000054000000f8
:101a3000424200005a000000425a000054000000d8
:101a40004254000054000000425300004d000000ca
:101a50004255000050000000425300005420000096
:101a6000424600004b200000424600004c2000008f
:101a70004246000050200000424100004320000088
:101a80004241000044200000425400004820000071
:101a9000424600005120000042460000492000005c
:101aa0004253000051200000425300004920000032
:101ab0004246000053200000424f00004c2000002e
:101ac000424f000053200000425200004d20000011
:101ad000425600004c200000424f00004d20000004
:101ae000424f000046200000425100004820000004
:101af00042520000422000004250000054200000ea
:101b00004255000052200000424c000044200000da
:101b100042520000322000004248000056200000df
:101b20004248000054200000424200005a200000b9
:101b3000425a000054200000425300004d20000093
:101b4000425500005020000042540000540a00009a
:101b50000053000045540000004d000053350000c4
:101b60003631000031200000004100007574000093
:101b70006f20000041750000646900006f200000c4
:101b8000616e000064200000427500007a7a000057
:101b900065720000205400006f670000676c000051
:101ba000652000004f6e0000203e0000006d000028
:101bb0002f7300000d0a0000004e00006f2000008f
:101bc0006d6f0000766500006d6500006e740000aa
:101bd00020660000726f00006d200000006d0000a4
:101be0000d0a000000240000504d0000544b00007e
:101bf00031360000312c0000302a0000323800005d
:101c00000d0a0000005300006c65000065700000c4
:101c1000696e000067280000554100005254000022
:101c2000292e00002e2e00000d0a00000053000097
:101c30006c65000065700000696e0000672e000092
:101c40002e2e00000d0a00000053000068750000f1
:101c5000746400006f7700006e2e00002e2e0000ce
:101c60000d0a0000004f0000524600002042000014
:101c70007566000066650000722000004675000071
:101c80006c6c00000d0a000000410000646400005c
:101c9000204f0000524600002066000072650000e0
:101ca000713a0000002000006d7300003a0000004f
:101cb000206200003a000000206500003a000000a9
:101cc0000d0a0000004e000065780000742000003e
:101cd0004f5200004620000066720000657100004f
:101ce0003a000000510000000000000080bf00002a
:101cf00000000000803f00000e760000d745000085
:101d000050690000746f0000742000004932000028
:101d10004320000065720000726f0000720d000029
:0c1d20000a0000000d0a00000000000096
:020000040000fa
:101d2c000000fa006a070700ccc2a900cca2a900e7
:101d3c00043a80004622de00614262000482fb000d
:101d4c00610262004322dd002616800075ff2f0021
:101d5c008502630005027200241688000002eb0065
:101d6c00043a88009d0707009007070074020700db
:101d7c00a002070014c0b3000002fd000ceeb70077
:101d8c000002fd007e16070000b828008f13070024
:101d9c007b040700c462a8005516800004102000c4
:101dac0004826200e00f520030003a007c08070009
:101dbc0000002800b15b24007900070026003700e2
:101dcc00241680006202620004f0a7000402ea00fc
:101ddc000402e9004f22de00044278000482fb007a
:101dec00610262000402420026168000d5ff2f001b
:101dfc00850263000502720024168800005023003f
:101e0c00c1002000111b070072020700241680007d
:101e1c006202620004f0a7000402ea000402e90076
:101e2c004f22de00044278000482fb006102620053
:101e3c000402420026168000d5ff2f0085026300a5
:101e4c00050272002416880000502300c1002000f7
:101e5c00fe1a0700670207005516800004102000c8
:101e6c0004826200e00f5200d5ff3200c422a800a9
:101e7c00af0c070000002000a15724004800070009
:101e8c005402070000202100a1072000ef1a0700d0
:101e9c0058020700c4e2a800c4e2a800c422a900aa
:101eac0000502300c1002000e81a070000002000a9
:101ebc00a15724003a0007004602070000502300f7
:101ecc00c1002000e11a07004a020700847280005a
:101edc00e00f520001003200240007000002eb006a
:101eec003408880011e1a8000042eb000002fd005c
:101efc000ceeb7000002fd0064e2200014427800f2
:101f0c00e14f520001003a0042020700a4e2200017
:101f1c0014427800e14f520001003a008d02070094
:101f2c0084e2200014427800e14f520001003a0094
:101f3c00e302070004718000e00f52000900320038
:101f4c00f4708000e00f5200020032002102070002
:101f5c00010037000000000004718000e00f520007
:101f6c00fdff3a0023020700e3ff37000000fa00f0
:101f7c00191907000002be00e00f5200e08f5a0052
:101f8c0005003a0020b82800fd120700401f200071
:101f9c0001002000031907000080fa000000060071
:101fac000800fa00881f7800200798003107980075
:101fbc002e029000be029000048fbe0018c0b30029
:101fcc0002002000233024001e00be0007fa070088
:101fdc0000027800e00f5200010035000044eb00d5
:101fec00e04f540003003200040020002530240090
:101ffc00048fbe001e01be000040220041af240031
:10200c00a9f907000002be000400be001cfa07007c
:10201c000002be0004027800d4708800d4708000e6
:10202c00a40c8800c4e0200014427800e04f520059
:10203c0004003200d47080000402d100b40c88007b
:10204c002600370004718000e00f520012003200ad
:10205c00d47080000402d100050020000400be00f2
:10206c0025fa07000003be00c46c8000d56c80000c
:10207c000401be000600be0074fa07000002be0098
:10208c000400be00fef907000002be000402780046
:10209c00b40c880011003700d47080000402d10009
:1020ac00050020000400be0013fa07000003be0068
:1020bc00846a8000956a80000401be000600be00a0
:1020cc0062fa07000002be000400be00ecf9070033
:1020dc000002be0004027800b40c88004f047800a3
:1020ec000080fa00000006000000fa0064e0200006
:1020fc0014427800e04f52003b00320074728000b2
:10210c00e00f52002600320084e0200014427800d8
:10211c00e04f5200120032000042eb000400780045
:10212c0006eeb7000042eb000400780008eeb700a2
:10213c006022b800846a8800956a880044c6b3009f
:10214c00040078000aeeb700e0b928008c120700f2
:10215c00810c2000800c2000340007003100370077
:10216c0014c0b3000400780006eeb70014c0b3002e
:10217c000400780008eeb700c46c8000d56c8000b9
:10218c00846a8800956a8800c0bb28007c1207000e
:10219c00810c2000007d2000240007002100370066
:1021ac000042eb000400780006eeb7000042eb00a2
:1021bc000400780008eeb7006022b800846a88003a
:1021cc00956a880090bd28006d12070044c6b300c4
:1021dc00040078000aeeb700810c2000800c20006f
:1021ec00120007000f00370014c0b3000400780081
:1021fc0006eeb700c46c8000d56c8000846a880041
:10220c00956a8800c0be28005d12070044c6b30062
:10221c00040078000aeeb700810c200000fa2000c0
:10222c00020007000080fa00000006000400fa001b
:10223c00000f7800110798006e0107001e0078004f
:10224c00f07088009e029000a4002000110009008c
:10225c008402d80000027800047188000080fa0023
:10226c00000006000800fa00889fbe006022b8003b
:10227c00048fbe0064e2200014427800e04f52004c
:10228c0016003200b4718000050020000400be006e
:10229c0099f907000004be00c471800005002000fd
:1022ac000400be0094f907000003be00e46a80003d
:1022bc00f56a80000401be000600be00e3f90700c9
:1022cc000002be000401be000800be0099f8070021
:1022dc000002be00048fbe0067003700a4e220009d
:1022ec0014427800e04f52004a003200b471800072
:1022fc00050020000400be007ff907000004be00aa
:10230c00c4718000050020000400be007af90700ab
:10231c000003be00246c8000356c80000401be00fc
:10232c000600be00c9f907000002be000401be0091
:10233c000800be007ff807000002be000404be00c7
:10234c0094728000050020000400be006af90700aa
:10235c000002be000401be000800be0074f80700b5
:10236c000002be002407980035079800e66a80003a
:10237c00f76a8000246c8000356c80000401be007c
:10238c000600be006af807000002be000403be008f
:10239c00246d8000356d80000401be000600be0077
:1023ac0064f807000002be000403be00246d800028
:1023bc00356d80000401be000600be00baf80700af
:1023cc000002be00a46a8800b56a8800947280007e
:1023dc00050020000400be0047f907000004be0001
:1023ec00a46a8000b56a80002e019000be019000a6
:1023fc000400be0095f907000002be000401be00f7
:10240c000800be004bf807000002be00048fbe009f
:10241c001900370084e2200014427800e04f52008b
:10242c0015003200d4718000050020000400be00ad
:10243c0031f907000004be00e471800005002000a3
:10244c000400be002cf907000003be00e46a800003
:10245c00f56a80000401be000600be007bf907008f
:10246c000002be000401be000800be0031f80700e7
:10247c000002be00048fbe0004718000e00f520009
:10248c0006003200f4708000cfa2de000400be0013
:10249c0016f907000002be00048fbe001e00be002d
:1024ac00bffe07004f04be000080fa0000000600cb
:1024bc000a00fa00889fbe008a9fbe003007980071
:1024cc0041079800e6668000f7668000446d800046
:1024dc00556d80000401be000600be005bf90700cc
:1024ec000002be0018c0b3003e019000ce01900067
:1024fc000400be00bff8070000027800e00f520095
:10250c0001003d000044eb00e04f54000900320094
:10251c000667800017678000a46c8000b56c800093
:10252c000401be000600be0048f907000002be0010
:10253c007e00370014002000040f78007000370074
:10254c001e027800c322dd00c4cd200004824200ac
:10255c001403be00446d8000556d80000401be0064
:10256c000600be0039f907000002be0018c0b30017
:10257c003e019000ce0190000400be009df80700c3
:10258c0000027800e00f520001003d000044eb0017
:10259c00e04f5400590032001e02e900c322dd0056
:1025ac00c4cd2000048242001403be00446d8000a0
:1025bc00556d80000401be000600be0023f9070023
:1025cc000002be000401be003e009000ce00900050
:1025dc00d7f707000002be000404be001e027800fc
:1025ec00c322dd00c4cd2000048242001403be00cf
:1025fc00446d8000556d80000401be000600be00d5
:10260c0012f907000002be000405be001e02e9001c
:10261c00c322dd00c4cd2000048242001403be009e
:10262c00446d8000556d80000401be000600be00a4
:10263c0006f907000002be000401be000a00be003d
:10264c00bbf707000002be000401be000800be007c
:10265c0015f807000002be00140798002507980023
:10266c001e02e9004322dd00e4024200c4cd20003a
:10267c00048242001404be001e0278004322dd00d6
:10268c00e4024200c4cd2000048242001403be00c8
:10269c001e02e9004322dd00e4024200c4cd20000a
:1026ac00048242001402be000401be000600be00fb
:1026bc009ff707000002be001e019000ae019000c3
:1026cc000400be00e1f807000002be000401be00d9
:1026dc000800be0097f707000002be000403be000e
:1026ec00a46c8000b56c80000401be000600be0026
:1026fc00d6f807000002be000c0037001e0fe800e1
:10270c001e027800e60f52008dff340086688000b0
:10271c0097688000a46c8000b56c80000401be003a
:10272c000600be00c9f807000002be000400be008f
:10273c004f05be004f04be000080fa0000000600ea
:10274c000000fa000002eb00840c88000002eb0091
:10275c00940c8800d47080000402d100b40c880062
:10276c00d4708000a40c8800940c8000f401b30099
:10277c00940c880092e1a900840c800004a0a000b5
:10278c0004b0a00004c0a000840c880091a1a90092
:10279c00840c80000400a1000410a0000420a00000
:1027ac00840c8800c46c8000d56c8000846a88001e
:1027bc00956a880014c0b3000400780006eeb700d8
:1027cc0014c0b3000400780008eeb7000080fa00d3
:1027dc00000006000000fa00840c80000400a10038
:1027ec000410a0000420a000840c88000080fa00d3
:1027fc00000006000000fa00840c80000400a10018
:10280c000410a1000420a100840c88000080fa00b0
:10281c00000006000200fa000002eb00040f780032
:10282c0043003700ebff070044728000e00f5200ba
:10283c0001003200c422a800e46a8000f56a80001e
:10284c000400be001aff07000002be000240220076
:10285c00436f24000400be007cf807000002be0099
:10286c000400be00e5f707000002be00040f78006c
:10287c000002eb00a40888001fe1a8000000000083
:10288c009e027800a4088000848f52000700360056
:10289c0064e2200014427800e04f52000300320042
:1028ac0004718000e00f5200f5ff32001fe1a90017
:1028bc00d0ff0700c422a900e46a8000f56a8000fa
:1028cc000400be00fafe07000002be000240220017
:1028dc00436f24000400be005cf807000002be0039
:1028ec000400be00c5f707000002be00040f78000c
:1028fc000002eb00a40888001fe1a8000000000003
:10290c009e027800a4088000848f520007003600d5
:10291c0064e2200014427800e04f520003003200c1
:10292c0004718000e00f5200f5ff32001fe1a90096
:10293c0064e2200014427800e04f520003003200a1
:10294c0004718000e00f5200b6ff32000080fa00e4
:10295c00000006000600fa00889fbe000002eb0093
:10296c00040f78004b0037009aff0700a46a800020
:10297c00b56a800002002800b35324000400be0096
:10298c0032f807000002be000400be009bf70700ef
:10299c000002be0004027800853821000482520037
:1029ac00140798001e029000cfa2de000400be00a7
:1029bc00cef707000004be00a46a8000b56a800050
:1029cc000401be000000200001f82300d8f6070027
:1029dc000002be0002002000831c24000400be0084
:1029ec001af807000002be0002002000030a2400af
:1029fc000400be00cff607000002be000401be00ba
:102a0c000800be0028f707000002be000400be004c
:102a1c007af707000002be00240798002e029000ef
:102a2c00040f78000002eb00a40888001fe1a80046
:102a3c00000000009e027800a4088000848f5200e1
:102a4c000300360004718000e00f5200f9ff3200e1
:102a5c001fe1a90067ff07009e0290002e02900064
:102a6c00048f52000002eb00a40888001fe1a800ac
:102a7c00000000009e027800a4088000848f5200a1
:102a8c000300360004718000e00f5200f9ff3200a1
:102a9c001fe1a900a4e2200014427800e14f52008b
:102aac0003003a0004718000e00f5200aeff3200c8
:102abc0050ff07004f04be000080fa000000060023
:102acc000000fa0043ff07000000000084e2200031
:102adc0014427800e14f520003003a000471800068
:102aec00e00f5200f9ff320042ff07000080fa00ad
:102afc00000006001c00fa00889fbe00000f980022
:102b0c00110f9800220f9800330f9800440f980073
:102b1c00550f9800e46a8000f56a80004e09900019
:102b2c00de0990000400be00c8f707000002be00da
:102b3c000403be00c46a8000d56a80000401be0094
:102b4c000600be007bf607000002be00c46a8800c7
:102b5c00d56a88004e0a9000de0a90000401be007f
:102b6c000400be0073f607000002be000403be00a2
:102b7c00246b8000356b80000401be000600be0093
:102b8c00b2f707000002be000404be004e0990001c
:102b9c00de0990004e089000de089000abf70700ad
:102bac000002be000403be00446b8000556b800025
:102bbc000401be000600be00a4f707000002be0020
:102bcc000401be000800be005af607000002be0059
:102bdc000404be00646b8000756b80004e0990008d
:102bec00de0990000400be0098f707000002be004a
:102bfc004e099000de0990000400be0093f7070018
:102c0c000002be004e099000de0990000400be00d8
:102c1c008ef707000002be004e099000de099000fe
:102c2c000400be0089f707000002be00020020006d
:102c3c00030824000400be009bf607000002be003f
:102c4c000401be000800be003af607000002be00f8
:102c5c000403be00046b8000156b80000401be00f1
:102c6c000600be0033f607000002be00046b8800ad
:102c7c00156b8800446b8000556b80004e099000ea
:102c8c00de0990000400be0070f707000002be00d1
:102c9c000404be00646b8000756b80004e099000cc
:102cac00de0990000400be0068f707000002be00b9
:102cbc004e099000de0990000400be0063f7070087
:102ccc000002be004e099000de0990000400be0018
:102cdc005ef707000002be00020020000300240083
:102cec000400be0070f607000002be000401be0026
:102cfc000800be000ff607000002be000403be0071
:102d0c00246b8000356b80000401be000600be0001
:102d1c0008f607000002be00246b8800356b8800a3
:102d2c00646b8000756b80004e099000de0990008a
:102d3c000400be0045f707000002be004e099000db
:102d4c00de0990000400be0040f707000002be0040
:102d5c000403be00446b8000556b80000401be0070
:102d6c000600be00f3f507000002be00446b8800ad
:102d7c00556b8800c46a8000d56a80000401be00cf
:102d8c000e0890009e089000e9f507000002be00b6
:102d9c00048fbe00046b8000156b80002e09900020
:102dac00be0990000400be00e2f507000002be0060
:102dbc000401be000000200001f823003af60700d1
:102dcc000002be002407980035079800046b8000b1
:102ddc00156b80002e019000be0190000400be0017
:102dec001af707000002be00440798005507980028
:102dfc00246b8000356b80002e019000be0190008a
:102e0c000400be0011f707000002be006407980022
:102e1c00750798001e01be004e009000de00900069
:102e2c000af707000002be000403be00c46a80005b
:102e3c00d56a80000401be000600be00bdf5070087
:102e4c000002be00c46a8800d56a88001e01be005c
:102e5c006e009000fe009000fcf607000002be0021
:102e6c000403be00e46a8000f56a80000401be0021
:102e7c000600be00aff507000002be00e46a880041
:102e8c00f56a8800486b8000596b8000246b8000c9
:102e9c00356b80006e019000fe0190000400be00b6
:102eac00eaf607000002be000401be000800be00e6
:102ebc009ff507000002be00446b8800556b88002c
:102ecc00286b8000396b8000246b8000356b800090
:102edc004e019000de0190000400be00dbf60700fe
:102eec000002be000401be000800be0090f5070001
:102efc000002be00246b8800356b8800086b8000d4
:102f0c00196b8000046b8000156b80004e019000e3
:102f1c00de0190000400be00ccf607000002be00eb
:102f2c000401be000800be0081f507000002be00cf
:102f3c00046b8800156b88004f04be000080fa00fb
:102f4c00000006000000fa00e0bf28000c0f07008c
:102f5c00c0002000f40e070000c2b300d70e07001b
:102f6c00800d2000f00e0700d0c0b300d30e070078
:102f7c00a0c0b300d10e07000080fa0000000600cc
:102f8c000000fa0030c02800fd0e070010c1280018
:102f9c00fb0e0700c0002000e30e0700e0c2b300e8
:102fac00c60e0700800d2000df0e0700d0c0b30056
:102fbc00c20e0700a0c0b300c00e07000080fa00cc
:102fcc00000006000400fa00008fbe00a0c128001b
:102fdc00eb0e07001e02780004007800d20e0700ea
:102fec00d0c0b300b50e0700a0c0b300b30e0700ed
:102ffc000080fa00000006000400fa00008fbe00fa
:10300c00f0c12800de0e0700520020001e00be009a
:10301c00fc0e070084728000e00f52000b0032009f
:10302c0000c2b300a50e0700c46b8000d56b8000f6
:10303c00110020000401be0040d220004e0d0700fc
:10304c000002780004007800cd0e0700d0c0b30059
:10305c009a0e0700a0c0b300980e07000080fa007b
:10306c00000006000000fa0040c22800c40e070051
:10307c00446a8000556a80000400be00b40e07004c
:10308c0000c2b3008d0e0700091307000002be003a
:10309c000400be00ae0e0700d0c0b300870e0700c0
:1030ac00a0c0b300850e07000080fa0000000600e7
:1030bc000400fa00c46a8000d56a800002a02200d5
:1030cc00d37224000400be0077f507000002be0096
:1030dc000401be000000200001f8230014f50700d5
:1030ec000002be00628f2200830a24000400be008e
:1030fc008af607000002be000403be00e46c8000e8
:10310c00f56c80000401be000600be004ff60700ff
:10311c000002be000400be00b8f507000002be00ad
:10312c00048fbe0090c22800950e070052002000ac
:10313c001e00be00b30e0700a0c0b3005f0e070058
:10314c000080fa00000006000c00fa00c46a80003f
:10315c00d56a800002a02200d37224000400be00b5
:10316c0051f507000002be000401be000000200063
:10317c0001f82300eef407000002be00628f22006b
:10318c00830a24000400be0064f607000003be009e
:10319c00e46c8000f56c80000401be000600be00eb
:1031ac002af607000002be000400be0093f50700db
:1031bc000002be00048fbe00e46a8000f56a800045
:1031cc0002002000832c24000400be001ff6070020
:1031dc000002be000400be0088f507000002be001d
:1031ec0024079800ac1207000002be000400be00c9
:1031fc00bef507000002be000200200003122400ee
:10320c000400be0028f507000002be003407980039
:10321c00450798000002eb0054079800de0290006e
:10322c0084c82000848242000042eb00844a78006b
:10323c005e019000f1c2280080c82000660d0700d6
:10324c0000027800540798001e01be0040d22000f6
:10325c00300c0700000278005e01900084007800ba
:10326c0080c820005c0d070000027800540798000d
:10327c005e01900041c3280080c82000560d070055
:10328c000002780054079800ae00900000d3200094
:10329c009e0b0700000278005e019000840078000d
:1032ac0080c820004c0d07000002780054079800dd
:1032bc005e01900041c3280080c82000460d070025
:1032cc000002780054079800210020003e01900075
:1032dc00ce01900040d22000a70c0700000278001d
:1032ec005e0190008400780080c820003a0d070031
:1032fc0000027800540798005e01900041c328003a
:10330c0080c82000340d0700000278005407980094
:10331c005e01900061c3280080c820002e0d0700bc
:10332c0000027800540798005e01900041c3280009
:10333c0080c82000280d0700000278005407980070
:10334c0084728000e00f52000d003200c46b8000cc
:10335c00d56b8000210020000401be0040d220006b
:10336c00850c0700000278005e0190008400780054
:10337c0080c82000180d0700000278005407980040
:10338c0040c2b300cd0d070080c82000fc0d070023
:10339c00a0c2b300c90d070080c82000cd0d0700e6
:1033ac0000427800044078009b0e0700d0c0b300a8
:1033bc00c20d0700a0c0b300c00d07000080fa00ca
:1033cc00000006000c00fa00c46a8000d56a800078
:1033dc0002a02200d37224000400be00b2f4070045
:1033ec000002be000401be000000200001f8230012
:1033fc004ff407000002be00628f2200830a2400f3
:10340c000400be00c5f507000003be00e46c80009c
:10341c00f56c80000401be000600be008bf50700b1
:10342c000002be000400be00f4f407000002be005f
:10343c001407980025079800e46a8000f56a80005c
:10344c0002002000832c24000400be007ff507003e
:10345c000002be000400be00e8f407000002be003b
:10346c0034079800121207000002be000400be00d0
:10347c001ef507000002be0002002000832c240071
:10348c000400be0088f407000002be004407980048
:10349c00550798000002eb00040f780084c8200048
:1034ac009e0242000042eb00844a78001e01780024
:1034bc0081c3280080c82000c70c070000027800d8
:1034cc00040f78001e019000ae01900040d2200045
:1034dc00900b0700000278001e0178008400780031
:1034ec0080c82000bc0c070000027800040f780094
:1034fc001e01780041c3280080c82000b60c0700cc
:10350c0000027800040f7800be00900000d3200069
:10351c00fe0a0700000278001e0178008400780083
:10352c0080c82000ac0c070000027800040f780063
:10353c001e01780041c3280080c82000a60c07009b
:10354c0000027800040f7800210020004e0190004a
:10355c00de01900040d22000070c0700000278002a
:10356c001e0178008400780080c820009a0c0700a7
:10357c0000027800040f78001e01780041c3280077
:10358c0080c82000940c070000027800040f78001b
:10359c001e01780061c3280080c820008e0c070033
:1035ac0000027800040f78001e01780041c3280047
:1035bc0080c82000880c070000027800040f7800f7
:1035cc0084728000e00f52000d003200c46b80004a
:1035dc00d56b8000210020000401be0040d22000e9
:1035ec00e50b0700000278001e01780084007800cb
:1035fc0080c82000780c070000027800040f7800c7
:10360c001e01780041c3280080c82000720c0700fe
:10361c0000027800040f78001e01780041c32800d6
:10362c0080c820006c0c070000027800040f7800a2
:10363c0084728000e00f52000d0032004613070028
:10364c000002be00110020000401be0040d2200088
:10365c00c90b0700000278001e0178008400780076
:10366c0080c820005c0c070000027800040f780072
:10367c0040c2b300110d070080c82000400d0700a8
:10368c00a0c2b3000d0d070080c82000110d07006b
:10369c000042780004407800df0d0700d0c0b30072
:1036ac00060d0700a0c0b300040d07000080fa004f
:1036bc00000006000800fa00e46a8000f56a800049
:1036cc0002002000832c24000400be00dff407005d
:1036dc000002be000400be0048f407000002be0059
:1036ec00040f78006c1107000002be000400be003d
:1036fc007ef407000002be0002002000031224002a
:10370c000400be00e8f307000002be001407980096
:10371c00250798000002eb0034079800be029000c9
:10372c0084c82000848242000042eb00844a780066
:10373c003e019000d1c3280080c82000260c070051
:10374c000002780034079800446a8000556a8000b3
:10375c000401be0040d22000ee0a070000027800ef
:10376c003e0190008400780080c820001a0c0700ed
:10377c0000027800340798003e01900051c42800e4
:10378c0080c82000140c0700000278003407980051
:10379c009e00780000d320005c0a0700000278002d
:1037ac003e0190008400780080c820000a0c0700bd
:1037bc0000027800340798003e01900041c32800b5
:1037cc0080c82000040c0700000278003407980021
:1037dc00110020001e019000ae01900040d220008c
:1037ec00650b0700000278003e0190008400780011
:1037fc0080c82000f80b07000002780034079800fe
:10380c003e01900041c3280080c82000f20b070045
:10381c0000027800340798003e019000d1c42800c3
:10382c0080c82000ec0b07000002780034079800d9
:10383c003e01900041c3280080c82000e60b070021
:10384c00000278003407980040c2b3009b0c0700bc
:10385c0080c82000ca0c0700a0c2b300970c070058
:10386c0080c820009b0c07000042780004407800c0
:10387c00690d0700d0c0b300900c0700a0c0b300c6
:10388c008e0c07000080fa00000006000200fa000f
:10389c00881f78000002eb00040f780084c8200019
:1038ac009e0242000042eb00844a78001e01780020
:1038bc0011c5280080c82000c70b07000002780043
:1038cc00040f780084728000e00f52004200320036
:1038dc00c46b8000d56b800018c0b3006011b800b9
:1038ec000400be00c3f3070000027800e00f520092
:1038fc0001003d000044eb00e04f54001b0032007f
:10390c00c46b8000d56b8000a28a2b0083fc230043
:10391c000400be004df407000002be000400be000f
:10392c0061f507000002be006266260063062400f3
:10393c000400be0045f407000002be001100200088
:10394c000401be0040d220000b0b070000027800df
:10395c001e0178008400780080c820009e0b0700b0
:10396c0000027800040f78001b003700c46b800045
:10397c00d56b800005f0a200a28a2b0083fc2300eb
:10398c000400be0031f407000002be000400be00bb
:10399c0045f507000002be006266260063062c0097
:1039ac000400be0029f407000002be001100200034
:1039bc000401be0040d22000ef0a0700000278008c
:1039cc001e0178008400780080c82000820b07005c
:1039dc0000027800040f78001e01780041c3280013
:1039ec0080c820007c0b070000027800040f7800d0
:1039fc00c46a8000d56a8000110020000401be005a
:103a0c0040d22000dc0a0700000278001e0178007a
:103a1c008400780080c820006f0b0700000278003b
:103a2c00040f78001e01780041c3280080c82000d4
:103a3c00690b070000027800040f7800e46a80002c
:103a4c00f56a8000210020000401be0000d3200094
:103a5c00c90a0700000278001e0178008400780073
:103a6c0080c820005c0b070000027800040f78006f
:103a7c001e017800a1c5280080c82000560b070045
:103a8c0000027800040f780040c2b3000b0c070052
:103a9c0080c820003a0c0700a0c2b300070c070036
:103aac0080c820000b0c070000427800044078000e
:103abc00d90c0700d0c0b300000c0700a0c0b300a5
:103acc00fe0b07004f0478000080fa00000006008f
:103adc000000fa006e60a900c622a900c022a9004d
:103aec00e024a9006e00a900c082a8006ee0a80026
:103afc00c862a900e264a900cc62a80071c0a90048
:103b0c0059c0a800c642a900c042a800e044a900c0
:103b1c0071a0a90059a0a900c662a900c062a900a1
:103b2c00c902a8006fc0a900cf82a900c982a90050
:103b3c00e384a9006f60a900cfe2a900c9e2a90043
:103b4c00cde2a8006f80a900c9c2a800e3c4a900f7
:103b5c006fa0a900cfa2a900c9a2a900e3a4a90043
:103b6c0057e0a900cf62a900c962a900cd62a900e3
:103b7c007000a8005800a900cf42a900c942a800b3
:103b8c005be3a90090e1a9009101a9007160a90073
:103b9c00cea2a900c8a2a9007100a900cec2a9009a
:103bac00c8c2a9000080fa00000006000000fa005c
:103bbc005472800004007800001307001472800017
:103bcc000400780010120700a205070097050700f3
:103bdc001c0d07000080fa00000006000000fa002f
:103bec000000eb005713070000027800e10f4200c1
:103bfc0001003a00ea0007002000200051130700e2
:103c0c0000027800050020000400be003af3070013
:103c1c000002be0002002000a34724000400be00e6
:103c2c00a1f207000002be00046c8800156c88002d
:103c3c00400020004313070000027800050020001c
:103c4c000400be002cf307000002be00020020009e
:103c5c00832c24000400be0093f207000002be0077
:103c6c00246c8800356c8800600020003513070038
:103c7c000002780074718800800020003113070066
:103c8c000002780084718800a00020002d1307002a
:103c9c000002780094718800c000200029130700ee
:103cac0000027800a4718800e000200025130700b2
:103cbc0000027800b4718800000120002113070075
:103ccc0000027800c4718800200120001d13070039
:103cdc0000027800d47188004001200019130700fd
:103cec0000027800e47188006001200015130700c1
:103cfc0000027800050020000400be00fef2070060
:103d0c000002be0002002000832c24000400be0030
:103d1c0065f207000002be00446c8800556c8800f8
:103d2c008001200007130700000278000500200026
:103d3c000400be00f0f207000002be0002002000ea
:103d4c00832c24000400be0057f207000002be00c2
:103d5c00646c8800756c8800a0012000f9120700c3
:103d6c0000027800050020000400be00e2f207000b
:103d7c000002be0002002000832c24000400be00c0
:103d8c0049f207000002be00846c8800956c880024
:103d9c00c0012000eb120700000278000500200093
:103dac000400be00d4f207000002be000200200096
:103dbc00832c24000400be003bf207000002be006e
:103dcc00a46c8800b56c8800e0012000dd120700af
:103ddc0000027800050020000400be00c6f20700b7
:103dec000002be0002002000a34724000400be0015
:103dfc002df207000002be00c46c8800d56c880050
:103e0c0000022000cf12070000027800f471880035
:103e1c0020022000cb1207000002780004728800f8
:103e2c0040022000c71207000002780005002000a5
:103e3c000400be00b0f207000002be000200240025
:103e4c00c37924000400be00baf107000002be00d2
:103e5c00e46c8800f56c880060022000b912070041
:103e6c00000278001472880080022000b51207004e
:103e7c000002780024728800a0022000b112070012
:103e8c000002780034728800c0022000ad120700d6
:103e9c000002780044728800e0022000a91207009a
:103eac00000278005472880000032000a51207005d
:103ebc00000278006472880020032000a112070021
:103ecc000002780005002000046d8800156d880044
:103edc00400320009b1207000002780074728800d7
:103eec0060032000971207000002780005002000f4
:103efc000400be0080f207000002be000200200099
:103f0c00832c24000400be00e7f107000002be0071
:103f1c00246d8800356d880080032000891207000d
:103f2c0000027800050020000400be0072f20700b9
:103f3c000002be0002002000832c24000400be00fe
:103f4c00d9f107000002be00446d8800556d880051
:103f5c00a00320007b120700000278008472880006
:103f6c00c003200077120700000278000500200033
:103f7c000400be0060f207000002be000200200038
:103f8c00832c24000400be00c7f107000002be0011
:103f9c00646d8800756d88000080fa0000000600d2
:103fac000000fa00410620002000200076120700d5
:103fbc004101200040002000731207001100200076
:103fcc0060002000701207008000eb0080002000d1
:103fdc006d12070011002000a00020006a120700db
:103fec00410b2000c000200067120700813e20001a
:103ffc00e0002000641207004106200000012000b0
:10400c006112070001192000200120005e12070038
:10401c0041062000400120005b12070081022000b5
:10402c006001200058120700510020008001200080
:10403c0055120700e1012000a001200052120700d8
:10404c0041062000c00120004f120700813e2000d5
:10405c00e00120004c1207008000eb000002200061
:10406c004912070011002000200220004612070010
:10407c00d13425004002200043120700f10c20002f
:10408c006002200040120700110020008002200076
:10409c003d1207008000eb00a00220003a1207003e
:1040ac0011002000c002200037120700210220005e
:1040bc00e002200034120700410120000003200020
:1040cc003112070081252000200320002e1207004a
:1040dc008000eb00400320002b120700810220001f
:1040ec0060032000281207004106200080032000f6
:1040fc00251207008000eb00a0032000221207000d
:10410c0041062000c00320001f1207008000eb00b6
:10411c000000eb001c1207000080fa0000000600f3
:10412c000c00fa00500798003200200031c628001d
:10413c005e0090005ef5070000027800e00f520070
:10414c002d003a0034002000040f780026003700c0
:10415c001e0278000402e800de0290000482420095
:10416c0004007800c70807000002780034079800a4
:10417c001e02e8000401780001c2b3005e0090004a
:10418c00e809070000027800040f78001e0278008e
:10419c000402e800de029000048242000400780071
:1041ac00b80807000002780044079800ce00900081
:1041bc003e0090006307070000027800e00f5200f9
:1041cc0002003a0000000000d70337001e02e8008e
:1041dc000401780001c2b3005e009000d109070011
:1041ec0000027800040f78001e027800e00f5200e5
:1041fc00d7ff3a00cc0337003200200071c62800ec
:10420c005e0090002af5070000027800e00f5200d3
:10421c0017003a00c422a800b0c62800580a0700ac
:10422c0000202100a1072000081207005e02900068
:10423c006402420004007800510a0700d0c0b300a9
:10424c001e0a070000902000d1032000ff11070078
:10425c00f0c628004a0a070000902000d103200075
:10426c00fa110700c422a9000000fe00ae033700bb
:10427c003200200041c728005e0090000cf50700ba
:10428c0000027800e00f520032003a00c46c80004b
:10429c00d56c800002002000a34724000400be005f
:1042ac00eaf107000002be000400be0053f1070053
:1042bc000002be00140798001e0290000402420087
:1042cc00140798009e029000843e2000848f5200b8
:1042dc0002003400843e2000140798001e02900057
:1042ec0084007800e0012000a71107001e02900056
:1042fc00cfa2de000400be007cf107000002be006d
:10430c0002002000a34724000400be00e6f00700d2
:10431c000002be00c46c8800d56c8800c46c8000a0
:10432c00d56c8000846a8800956a880014c0b3003c
:10433c000400780006eeb70014c0b3000400780047
:10434c0008eeb700810c2000007d2000b7f70700b5
:10435c00750337003200200081c728005e009000f2
:10436c00d3f4070000027800e00f520034003a004a
:10437c00c46c8000d56c800002002000a347240090
:10438c000400be00b1f107000002be000400be0034
:10439c001af107000002be0024079800ae0290003c
:1043ac0024002000110009008402d80000027800cb
:1043bc00240798002e029000e00f520002003c00ef
:1043cc0014002000240798002e029000840078002e
:1043dc00e00120006c1107002e029000cfa2de003d
:1043ec000400be0041f107000002be0002002000e4
:1043fc00a34724000400be00abf007000002be007f
:10440c00c46c8800d56c8800c46c8000d56c8000ae
:10441c00846a8800956a880014c0b3000400780090
:10442c0006eeb70014c0b3000400780008eeb70025
:10443c00810c2000001920007cf707003a0337009c
:10444c0032002000c1c728005e00900098f40700dd
:10445c0000027800e00f520003003a001400200024
:10446c0094708800300337003200200001c8280007
:10447c005e0090008ef4070000027800e00f5200fe
:10448c0003003a0014002000a470880026033700b3
:10449c003200200041c828005e00900084f4070020
:1044ac0000027800e00f520002003a000000fe000b
:1044bc001d0337003200200081c828005e009000e8
:1044cc007bf4070000027800e00f520009003a006c
:1044dc008080eb000000eb002b110700c0c8280007
:1044ec00ba090700a0c92800b80907000000fe009f
:1044fc000d0337003200200081ca28005e009000b6
:10450c006bf4070000027800e00f520003003a0041
:10451c00100020002a060700030337003200200099
:10452c00c1ca28005e00900061f407000002780008
:10453c00e00f520003003a000000eb0020060700d9
:10454c00f90237003200200001cb28005e009000f9
:10455c0057f4070000027800e00f520002003a0006
:10456c0062050700f00237003200200041cb280022
:10457c005e0090004ef4070000027800e00f52003d
:10458c0017003a005e0290006402420004007800ba
:10459c00bc07070000027800647188006471800019
:1045ac008400780020002000f71007006471800060
:1045bc00050020000400be00cff007000002be0082
:1045cc0002002000a34724000400be0036f00700c0
:1045dc000002be00046c8800156c8800d202370003
:1045ec003200200081cb28005e00900030f40700e0
:1045fc0000027800e00f520017003a005e029000b3
:10460c0064024200040078009e0707000002780054
:10461c006471880064718000840078004000200080
:10462c00d910070064718000050020000400be0052
:10463c00b1f007000002be0002002000832c240011
:10464c000400be0018f007000002be00246c8800b5
:10465c00356c8800b402370032002000c1cb280032
:10466c005e00900012f4070000027800e00f520088
:10467c000d003a005e0290006402420004007800d3
:10468c008007070000027800647188006471800064
:10469c008400780060002000bb100700647180006b
:1046ac0074718800a00237003200200001cc280071
:1046bc005e009000fef3070000027800e00f52004d
:1046cc000d003a005e029000640242000400780083
:1046dc006c07070000027800647188006471800028
:1046ec008400780080002000a7100700647180000f
:1046fc00847188008c0237003200200041cc2800e5
:10470c005e009000eaf3070000027800e00f520010
:10471c000d003a005e029000640242000400780032
:10472c0058070700000278006471880064718000eb
:10473c0084007800a00020009310070064718000b2
:10474c0094718800780237003200200081cc280058
:10475c005e009000d6f3070000027800e00f5200d4
:10476c000f003a005e0290006402420004007800e0
:10477c0044070700000278006471880064718000af
:10478c0084007800c00020007f1007006471800056
:10479c00a47188000002eb0074708800620237007c
:1047ac0032002000c1cc28005e009000c0f307004e
:1047bc0000027800e00f52000d003a005e029000fb
:1047cc0064024200040078002e0707000002780003
:1047dc00647188006471800084007800e00020001f
:1047ec006910070064718000b47188004e023700b4
:1047fc003200200001cd28005e009000acf30700d1
:10480c0000027800e00f52000d003a005e029000aa
:10481c0064024200040078001a07070000027800c6
:10482c0064718800647180008400780000012000ad
:10483c005510070064718000c47188003a0237007b
:10484c003200200041cd28005e00900098f3070054
:10485c0000027800e00f52000d003a005e0290005a
:10486c00640242000400780006070700000278008a
:10487c00647188006471800084007800200120003d
:10488c004110070064718000d47188002602370043
:10489c003200200081cd28005e00900084f30700d8
:1048ac0000027800e00f52000d003a005e0290000a
:1048bc006402420004007800f2060700000278004f
:1048cc0064718800647180008400780040012000cd
:1048dc002d10070064718000e4718800120237000b
:1048ec0032002000c1cd28005e00900070f307005c
:1048fc0000027800e00f520017003a005e029000b0
:10490c006402420004007800de0607000002780012
:10491c00647188006471800084007800600120005c
:10492c001910070064718000050020000400be000f
:10493c00f1ef07000002be0002002000832c2400cf
:10494c000400be0058ef07000002be00446c880053
:10495c00556c8800f40137003200200001ce28008d
:10496c005e00900052f3070000027800e00f520046
:10497c0017003a005e0290006402420004007800c6
:10498c00c006070000027800647188006471800022
:10499c008400780080012000fb0f07006471800008
:1049ac00050020000400be00d3ef07000002be008b
:1049bc0002002000832c24000400be003aef070004
:1049cc000002be00646c8800756c8800d60137004c
:1049dc003200200041ce28005e00900034f3070026
:1049ec0000027800e00f520017003a005e029000bf
:1049fc006402420004007800a2060700000278005e
:104a0c00647188006471800084007800a00120002b
:104a1c00dd0f070064718000050020000400be005b
:104a2c00b5ef07000002be0002002000832c24001a
:104a3c000400be001cef07000002be00846c88005e
:104a4c00956c8800b80137003200200081ce280018
:104a5c005e00900016f3070000027800e00f520091
:104a6c0017003a005e0290006402420004007800d5
:104a7c00840607000002780064718800647180006d
:104a8c0084007800c0012000bf0f07006471800013
:104a9c00050020000400be0097ef07000002be00d6
:104aac0002002000832c24000400be00feee070050
:104abc000002be00a46c8800b56c88009a01370017
:104acc0032002000c1ce28005e009000f8f20700f2
:104adc0000027800e00f520023003a005e029000c2
:104aec0064024200040078006606070000027800a9
:104afc00647188006471800084007800e0012000fb
:104b0c00a10f070064718000050020000400be00a6
:104b1c0079ef07000002be0002002000a34724002a
:104b2c000400be00e0ee07000002be00c46c88006a
:104b3c00d56c8800c46c8000d56c8000846a8800b9
:104b4c00956a880014c0b3000002fd0006eeb700a1
:104b5c000002fd0014c0b3000002fd0008eeb70017
:104b6c000002fd00700137003200200001cf280048
:104b7c005e009000cef2070000027800e00f5200b9
:104b8c000d003a005e0290006402420004007800be
:104b9c003c06070000027800647188006471800094
:104bac008400780000022000770f070064718000f9
:104bbc00f47188005c0137003200200041cf2800de
:104bcc005e009000baf2070000027800e00f52007d
:104bdc000d003a005e02900064024200040078006e
:104bec002806070000027800647188006471800058
:104bfc008400780020022000630f0700647180009d
:104c0c0004728800480137003200200081cf280050
:104c1c005e009000a6f2070000027800e00f520040
:104c2c0017003a005e029000640242000400780013
:104c3c00140607000002780064718800647180001b
:104c4c0084007800400220004f0f07006471800040
:104c5c00050020000400be0027ef07000002be0084
:104c6c0002002400c37924000400be0031ee0700ca
:104c7c000002be00e46c8800f56c88002a01370045
:104c8c0032002000c1cf28005e00900088f207009f
:104c9c0000027800e00f520010003a005e02900013
:104cac006402420004007800f60507000002780058
:104cbc0064718800647180008400780060022000b8
:104ccc00310f070064718000147288001472800028
:104cdc0004007800cc0d07001301370032002000cf
:104cec0001d028005e00900071f2070000027800ed
:104cfc00e00f52000d003a005e0290006402420088
:104d0c0004007800df050700000278006471880059
:104d1c006471800084007800800220001a0f070064
:104d2c006471800024728800ff003700320020007c
:104d3c0041d028005e0090005df207000002780070
:104d4c00e00f52000d003a005e0290006402420037
:104d5c0004007800cb05070000027800647188001d
:104d6c006471800084007800a0022000060f070008
:104d7c006471800034728800eb0037003200200030
:104d8c0081d028005e00900049f2070000027800f4
:104d9c00e00f52000d003a005e02900064024200e7
:104dac0004007800b70507000002780064718800e1
:104dbc006471800084007800c0022000f20e0700ad
:104dcc006471800044728800d700370032002000e4
:104ddc00c1d028005e00900035f207000002780078
:104dec00e00f520010003a005e0290006402420094
:104dfc0004007800a30507000002780064718800a5
:104e0c006471800084007800e0022000de0e070050
:104e1c006471800054728800547280000400780021
:104e2c00660e0700c00037003200200001d12800b8
:104e3c005e0090001ef2070000027800e00f5200a6
:104e4c0010003a005e0290006402420004007800f8
:104e5c008c05070000027800647188006471800082
:104e6c008400780000032000c70e070064718000e6
:104e7c00647288006022b800846b8800956b88008f
:104e8c00a90037003200200041d128005e009000bc
:104e9c0007f2070000027800e00f520012003a00ff
:104eac005e02900064024200040078007505070061
:104ebc0000027800647188006471800084007800be
:104ecc0020032000b00e0700647180000500200054
:104edc00046d8800156d88006022b800a46b8800f2
:104eec00b56b8800900037003200200081d128007b
:104efc005e009000eef1070000027800e00f520017
:104f0c0014003a005e029000640242000400780033
:104f1c005c050700000278006471880064718000f1
:104f2c008400780040032000970e07006471800015
:104f3c007472880074728000e00f520077003200a7
:104f4c0014c0b3000002fd0008eeb7000002fd0023
:104f5c007500370032002000c1d128005e0090009f
:104f6c00d3f1070000027800e00f520017003a005e
:104f7c005e029000640242000400780041050700c4
:104f8c0000027800647188006471800084007800ed
:104f9c00600320007c0e0700647180000500200077
:104fac000400be0054ee07000002be000200200008
:104fbc00832c24000400be00bbed07000002be00e1
:104fcc00246d8800356d88005700370032002000b2
:104fdc0001d228005e009000b5f1070000027800b5
:104fec00e00f520017003a005e029000640242008b
:104ffc000400780023050700000278006471880023
:10500c006471800084007800c00320005e0e0700ed
:10501c0064718000050020000400be0036ee07001d
:10502c000002be0002002000832c24000400be00fd
:10503c009ded07000002be00646d8800756d880050
:10504c00390037003200200041d228005e00900069
:10505c0097f1070000027800e00f520017003a00a9
:10506c005e0290006402420004007800050507000f
:10507c0000027800647188006471800084007800fc
:10508c0080032000400e07006471800005002000a2
:10509c000400be0018ee07000002be000200200053
:1050ac00832c24000400be007fed07000002be002c
:1050bc00446d8800556d88001b00370032002000bd
:1050cc0081d228005e00900079f107000002780080
:1050dc00e00f520014003a005e029000640242009d
:1050ec0004007800e704070000027800647188006f
:1050fc006471800084007800a0032000220e070059
:10510c00647180008472880084728000e00f520009
:10511c000400320095f30700030037000000000084
:10512c0001003700000000000080fa0000000600bb
:10513c000000fa0083f70700c0d228009006070091
:10514c0090da28008e0607000002eb00047088003d
:10515c000470800004007800fa0d0700000278004b
:10516c00f46f88000d00370000c2b300530607002f
:10517c00f46f8000040078006b0607000470800058
:10518c000482e80004708800047080000400780039
:10519c00ec0d070000027800f46f8800f46f8000bb
:1051ac00e10f4200f0ff3a00d0c0b3004306070005
:1051bc00a0c0b30041060700020007000080fa00ff
:1051cc00000006000000fa00d0da28006c06070088
:1051dc000002eb00f46f88000b003700f46f8000c6
:1051ec0004007800b80a0700000278000400780078
:1051fc003c07070000c2b30030060700f46f8000c4
:10520c000402e800f46f8800f46f8000e70f52008e
:10521c00f2ff3400d0c0b30028060700a0c0b300d2
:10522c00260607000080fa00000006000000fa00c5
:10523c001fe1a9001e21a9001ec1a9001fa1a900e0
:10524c001ea1a8001e81a8001e61a9000080fa0002
:10525c00000006000000fa0011e1a9001021a900cd
:10526c0010c1a90011a1a90010a1a9001081a800ca
:10527c001061a9003405800004c0a00004d0a00077
:10528c0004e0a1003405880084e0a90094e0a800a3
:10529c0004712200640888000002eb0034088800c6
:1052ac000080fa00000006003600f800809fbe0067
:1052bc00829fbe00849fbe00869fbe00889fbe005a
:1052cc008a9fbe003400f80000002000a001880076
:1052dc000800fa0084e1200014427800e04f5200ec
:1052ec000900320063090700540907000042eb0073
:1052fc000002fd0018eeb7000002fd007b0907005c
:10530c00c6050700a4013700690907005209070008
:10531c0014c0b3000002fd0018eeb7000002fd003f
:10532c00bb0907000002be00446a8800556a880069
:10533c00b570800014032000848f520005003c00df
:10534c00b47080000402e800b470880084e0a90006
:10535c00dc013700446a8000556a80000400be00fe
:10536c0062ed07000003be00e46c8000f56c800069
:10537c000401be000600be00cbec07000002be001c
:10538c0012cb2d0023e423000400be00e3ed070044
:10539c000002be000401be000000200001f8230042
:1053ac0063ec07000002be0002a02200d3722400ae
:1053bc000400be00a5ed07000002be00048fbe0075
:1053cc00066c8000176c8000a4702d0035ca230079
:1053dc000601be001e00be00c6f5070014168000b4
:1053ec0064026200e00f5200020032000002eb0087
:1053fc00e4708800a4e0200014427800e04f5200d2
:10540c0006003200a4e02000144278000442e900b7
:10541c000002fd000aeeb7000002fd0064e020006f
:10542c0014427800e04f52000400320084e0200067
:10543c0014427800e04f52003c003a00a4e02000f7
:10544c0014427800e04f520038003a00e66a8000bf
:10545c00f76a8000646d8000756d800018c0b30021
:10546c000401be000600be00e2ec0700000278005a
:10547c00e00f520001003d000044eb00e04f5400ef
:10548c0010003a00646d8000756d80000403be004e
:10549c0007f0a200e46a8000f56a800018c0b3002f
:1054ac000401be000600be00d2ec0700000278002a
:1054bc00e00f520001003d000044eb00e04f5400af
:1054cc001a00320014c0b3000400780006eeb700d6
:1054dc0014c0b3000400780008eeb700c46c800060
:1054ec00d56c8000846a8800956a880050db28009f
:1054fc00a3050700646d8000756d800021002000fd
:10550c000401be0040d220001b04070000027800fa
:10551c00040078009a05070070dd28009805070044
:10552c00411f2000007d200040f30700e66a800048
:10553c00f76a8000246c8000356c800018c0b300c2
:10554c000401be000600be00aaec070000027800b1
:10555c00e00f520001003d000044eb00e04f54000e
:10556c0008003200e4708000e00f520005003200a9
:10557c0014c0b3000002fd0026eeb7000002fd00cf
:10558c0011003700e66a8000f76a8000646c8000c6
:10559c00756c800018c0b3000401be000600be008c
:1055ac0092ec070000027800e00f5200010034007a
:1055bc000044eb00e04f5400030032000042eb00cb
:1055cc000400780026eeb700446c8000556c800017
:1055dc000403be0007f0a200e46a8000f56a8000b4
:1055ec0018c0b3000401be000600be0081ec070029
:1055fc0000027800e00f520001003d000044eb0077
:10560c00e04f540008003200e4708000e00f5200bc
:10561c000500320014c0b3000002fd0028eeb700f4
:10562c000002fd0014003700846c8000956c800033
:10563c000403be0007f0a200e46a8000f56a800053
:10564c0018c0b3000401be000600be0067ec0700e2
:10565c0000027800e00f5200010034000044eb001f
:10566c00e04f5400040032000042eb000002fd0049
:10567c0028eeb7000002fd00e4708000e00f52003d
:10568c002900320074728000e00f520026003200b4
:10569c0084e0200014427800e04f520022003200d7
:1056ac0064e2200014427800e04f52001e003a00e1
:1056bc0084e2200014427800e04f52001a003a00b5
:1056cc00266c8000376c8000246d8000356d800066
:1056dc000401be000600be0095eb07000002be00f0
:1056ec000403be00e46a8000f56a800018c0b300b1
:1056fc000401be000600be003cec0700000278006e
:10570c00e00f5200010034000044eb00e04f540065
:10571c000500320014c0b3000002fd002aeeb700f1
:10572c000002fd00040037000042eb000002fd0007
:10573c002aeeb7000002fd00caf207009471800047
:10574c00e470880094718000e470880004003700d5
:10575c001c060700000278000400780070fa0700ad
:10576c001206070000427800e04f5200f8ff3a00a2
:10577c00e2000700886b8000996b800064728000e7
:10578c00050020000400be005bec07000002be0018
:10579c00d2cc2c00c3dc23000400be00abec070011
:1057ac000002be000401be000800be0060eb070052
:1057bc000002be000403be00c46a8000d56a8000eb
:1057cc0018c0b3000401be000600be0009ec0700bf
:1057dc0000027800e00f520001003c000044eb0096
:1057ec00e04f54001e003a00647280000500200057
:1057fc000400be0040ec07000002be00d2cc2c001e
:10580c00c3dc23000400be0090ec07000002be00c5
:10581c000403be00846b8000956b80000401be0005
:10582c000600be0043eb07000002be000403be00ee
:10583c00c46a8000d56a800018c0b3000401be00a1
:10584c000600be00e9eb070000027800e00f5200f2
:10585c00010035000044eb00e04f5400080032001a
:10586c00c46a8000d56a8000846b8800956b8800c0
:10587c006022b800a46b8800b56b88002700370045
:10588c00a46b8000b56b800061024200e0824a008c
:10589c00a46b8800b56b8800a46b8000b56b80008e
:1058ac000400be00046d8000156d800026032000ee
:1058bc0006abb900060378006021b90082037800ba
:1058cc00070343008402780024032000042ab80054
:1058dc000503430086027800840f5000858f580022
:1058ec000e003600d0dd2800a5040700846b800074
:1058fc00956b8000110020000401be0040d22000f6
:10590c001d03070000027800040078009c040700c7
:10591c00f0de28009a04070055010700157080007e
:10592c00441f2000848f520002003a000002eb005a
:10593c0014708800147080000402e8001470880051
:10594c0084728000e00f5200130032005516800064
:10595c000440200004826200e00f520006003a006e
:10596c009d0a07000002be00e00f5200e08f5a00b3
:10597c0001003a007df10700970a07000002be0003
:10598c00e00f5200e08f5a0002003200cd62a800f6
:10599c0001003700cd62a90084728000e00f520034
:1059ac001c003200c66b8000d76b8000e46b80005b
:1059bc00f56b80000401be000600be0023ec07005e
:1059cc000002be000404be00bc0907000005be00b6
:1059dc00e46b8000f56b80000401be000000200029
:1059ec0001f82300d2ea07000002be000401be0049
:1059fc000a00be0015ec07000002be000401be0048
:105a0c000800be00cbea07000002be00c46b880091
:105a1c00d56b880004718000e00f52000400320046
:105a2c00047180000402e900047188000c00370046
:105a3c00ab01070000027800e00f520008003200b2
:105a4c00640247000400780079010700be02900050
:105a5c002e0290008500780004007800f3f1070016
:105a6c001416800064026200e00f52000a0032003b
:105a7c00c422a800247080000402e800247088006e
:105a8c0025708000840c2000848f52000c003400a0
:105a9c00f70007000a00370024708000e50f520061
:105aac00010034001100070024708000e00f520048
