:100000000C9423010C944B010C944B010C941F0D88
:100010000C941F0D0C941F0D0C944B010C94970D18
:100020000C944B010C944B010C944B010C94E60D79
:100030000C944B010C944B010C94410E0C944B010D
:100040000C94D50C0C944B010C94A30C0C947D0CCB
:100050000C944B010C944B010C944B010C944B01F0
:100060000C949C0E0C944B0107634236B79BD8A7A7
:100070001A39685618AEBAAB558C1D3CB7CC5763CD
:10008000BD6DEDFD753EF6177231BF000000803F7B
:1000900008000000BE922449123EABAAAA2ABECD97
:1000A000CCCC4C3E00000080BEABAAAAAA3E000009
:1000B0000000BF000000803F000000000008417801
:1000C000D3BB4387D1133D190E3CC3BD4282AD2B38
:1000D0003E68EC8276BED98FE1A93E4C80EFFFBE30
:1000E00001C4FF7F3F000000000000407A10F35A77
:1000F00000A0724E18090010A5D4E80000E8764868
:10010000170000E40B54020000CA9A3B000000E113
:10011000F505000080969800000040420F000000A6
:10012000A08601000000102700000000E803000086
:1001300000006400000000000A0000000000010050
:10014000000000002C76D888DC674F0823DFC1DF71
:10015000AE59E1B1B796E5E3E453C63AE651997674
:1001600096E8E6C28426EB898C9B62ED407C6FFCAE
:10017000EFBC9C9F40F2BAA56FA5F490055A2AF7F0
:100180005C936B6CF9676DC11BFCE0E40D47FEF5F9
:1001900020E6B500D0ED902E030094357705008061
:1001A000841E080000204E0A000000C80C333333C0
:1001B000330F986E12831141EF8D2114893BE65560
:1001C00016CFFEE6DB18D1844B381BF77C1D901D43
:1001D000A4BBE424203284725E228100C9F124ECA5
:1001E000A1E53D2702010000000000240027002AAD
:1001F00000000000080002010000030407000000E6
:10020000000000000000000000230026002900007C
:10021000000000250028002B00040404040404044A
:1002200004020202020202030303030303010204A5
:100230000810204080010204081020010204081068
:100240002000BB0FD41811241FBECFEFD8E0DEBFB3
:10025000CDBF12E0A0E0B1E0E2E9F4E402C0059015
:100260000D92A438B107D9F726E0A4E8B2E001C0A6
:100270001D92A83EB207E1F711E0C2E2D1E004C04E
:100280002197FE010E944420C132D107C9F70E9484
:10029000C6100C943C220C94000080916005909153
:1002A0006105891B990B08958091DF069091E00606
:1002B000892B59F1E0915E05F0915F0586E0E53C00
:1002C000F80719F1309739F0A389B4899C91858991
:1002D000809589238C938091E3068E7F8093E3063B
:1002E00010925D0510925C0585EC96E090935F0599
:1002F00080935E05E091D806F091D90680819091B7
:10030000DA06892B808381E0089580E008950895BE
:100310000895AF92BF92CF92DF92EF92FF920F9328
:100320001F93CF93DF936C017B018B01040F151F8B
:10033000EB015E01AE18BF08C017D10759F06991F3
:10034000D601ED91FC910190F081E02DC601099557
:10035000892B79F7C501DF91CF911F910F91FF9004
:10036000EF90DF90CF90BF90AF900895FC01538D38
:10037000448D252F30E0842F90E0821B930B54177F
:1003800010F0CF96089501970895FC01918D828D0C
:10039000981761F0A28DAE0FBF2FB11D5D968C91A5
:1003A000928D9F5F9F73928F90E008958FEF9FEFE4
:1003B0000895FC01918D828D981731F0828DE80FA0
:1003C000F11D858D90E008958FEF9FEF0895FC015A
:1003D000918D228D892F90E0805C9F4F821B910927
:1003E0008F739927089582ED95E00E94E70121E03F
:1003F000892B09F420E0822F089580E090E0892B7A
:1004000029F00E94F30181110C9400000895FC0171
:10041000A48DA80FB92FB11DA35ABF4F2C91848D65
:1004200090E001968F739927848FA689B7892C93C2
:10043000A089B1898C91837080648C93938D848D15
:10044000981306C00288F389E02D80818F7D808318
:100450000895EF92FF920F931F93CF93DF93EC01D8
:1004600081E0888F9B8D8C8D98131AC0E889F9895B
:10047000808185FF15C09FB7F894EE89FF8960835E
:10048000E889F98980818370806480839FBF81E0DF
:1004900090E0DF91CF911F910F91FF90EF90089521
:1004A000F62E0B8D10E00F5F1F4F0F731127E02EFC
:1004B0008C8D8E110CC00FB607FCFACFE889F98934
:1004C000808185FFF5CFCE010E940702F1CFEB8D31
:1004D000EC0FFD2FF11DE35AFF4FF0829FB7F89408
:1004E0000B8FEA89FB8980818062CFCFCF93DF9326
:1004F000EC01888D8823B9F0AA89BB89E889F9893C
:100500008C9185FD03C0808186FD0DC00FB607FC70
:10051000F7CF8C9185FFF2CF808185FFEDCFCE01A3
:100520000E940702E9CFDF91CF91089590E0FC018E
:10053000EF50FE4F2491FC01E35DFD4F3491FC012F
:10054000E75EFD4FE491EE23C9F0222339F023301A
:1005500001F1A8F4213019F1223029F1F0E0EE0F79
:10056000FF1FE15FFD4FA591B4918FB7F894EC9117
:10057000611126C030953E233C938FBF08952730EC
:10058000A9F02830C9F0243049F7809180008F7D90
:1005900003C0809180008F7780938000DFCF84B587
:1005A0008F7784BDDBCF84B58F7DFBCF8091B0008A
:1005B0008F778093B000D2CF8091B0008F7DF9CF3C
:1005C0003E2BDACFCF93DF9390E0FC01E35DFD4F4C
:1005D0002491875E9D4FFC0184918823D1F090E0A7
:1005E000880F991FFC01E951FE4FA591B491FC01C0
:1005F000E15FFD4FC591D49161110EC09FB7F89492
:100600008C91E22FE0958E238C932881E223E8835E
:100610009FBFDF91CF9108958FB7F894EC91E22BB3
:10062000EC938FBFF6CF3FB7F8948091230390915E
:100630002403A0912503B091260326B5A89B05C0ED
:100640002F3F19F00196A11DB11D3FBFBA2FA92F51
:10065000982F8827BC01CD01620F711D811D911D4E
:1006600042E0660F771F881F991F4A95D1F70895BA
:100670008F929F92AF92BF92CF92DF92EF92FF92B2
:100680006B017C010E9413034B015C01C114D10476
:10069000E104F104B9F00E941303681979098A0989
:1006A0009B09683E73408105910580F321E0C21AE1
:1006B000D108E108F10888EE880E83E0981EA11C9D
:1006C000B11CE4CFFF90EF90DF90CF90BF90AF9040
:1006D0009F908F9008952FB7F89460911F037091A9
:1006E000200380912103909122032FBF0895209130
:1006F0005E0530915F052817390771F490915C050C
:1007000080915D05981741F0E0915C05F0E0E252C0
:10071000FD4F808190E008958FEF9FEF0895089539
:10072000EF92FF920F931F93CF93DF93DC015C96C0
:10073000ED90FC905D97E114F10479F481E090E094
:1007400013969C938E93129790E080E0DF91CF9167
:100750001F910F91FF90EF9008955196ED91FC91AC
:10076000529750968C915097982F90950FB75E9610
:100770002C915E97122F127021FD6095F8942081C4
:10078000112319F1282B2083E7012197F1F728E0A5
:10079000462F50E0308160FF1AC0382B3083E701CC
:1007A0002197F1F7BA0175956795215089F71123C3
:1007B00081F08081892380830FBF5C968D919C910D
:1007C0000197F1F781E090E0C1CF2923DCCF3923F5
:1007D000E5CF9081892BEFCF20915E0530915F05A9
:1007E0002817390771F480915D0520915C0590E030
:1007F000805C9F4F821B910960E470E00E941C2086
:10080000089590E080E0089520915E0530915F05A5
:1008100028173907B9F490915C0580915D05981708
:1008200089F0E0915C05F0E0E252FD4F808120917B
:100830005C0530E02F5F3F4F2F73332720935C051B
:1008400090E008958FEF9FEF08952F923F924F927F
:100850005F926F927F928F929F92AF92BF92CF9250
:10086000DF92EF92FF921F93CF93DF9300D000D0DF
:1008700000D0CDB7DEB7DC011196EC91E7FD44C1A5
:1008800029833A834B835C831B019E838D8361E0C4
:10089000FC0180810E94E202AD81BE8111961C9113
:1008A0004101B12CA12C812F8D7F09F047C160E05F
:1008B00072E18AE790E0A50191010E94D31C290111
:1008C0003A017A016901B1E0CB1AD108E108F108D7
:1008D000EFEFCE16D104E104F10409F00CF4D9C015
:1008E00060E472E48FE090E0A50191010E94D31CC6
:1008F00069017A01F1E0CF1AD108E108F10812305C
:10090000C9F58FEFC816D104E104F10409F00CF425
:1009100067C160E970ED83E090E0A50191010E945C
:10092000D31C69017A0191E0C91AD108E108F108E4
:1009300083E0AFEFCA16D104E104F10409F00CF42E
:10094000A1C068E478EE81E090E0A50191010E94E9
:10095000D31C69017A01F1E0CF1AD108E108F1084E
:100960008FEFC816D104E104F10411F00CF04DC072
:1009700084E088C0BFEFCB16D104E104F10409F094
:100980000CF4DAC068E478EE81E090E0A501910112
:100990000E94D31C69017A01E1E0CE1AD108E10876
:1009A000F10884E0111141C083E09FEFC916D10422
:1009B000E104F10409F00CF46FC062E17AE780E031
:1009C00090E0A50194010E94D31C69017A0181E0A5
:1009D000C81AD108E108F10884E09FEFC916D104D4
:1009E000E104F10409F008F457C0730162019AE0D0
:1009F000F594E794D794C7949A95D1F7B1E0CB1AC0
:100A0000D108E108F10885E047C064E274EF80E0B6
:100A100090E0A50194010E94D31C69017A01F1E0E4
:100A2000CF1AD108E108F10885E0EFEFCE16D10426
:100A3000E104F10439F130F162E17AE780E090E01D
:100A4000A50194010E94D31C69017A01A1E0CA1A90
:100A5000D108E108F10886E0BFEFCB16D104E1042C
:100A6000F10481F078F0730162018AE0F594E79473
:100A7000D794C7948A95D1F7E1E0CE1AD108E1085E
:100A8000F10887E09091B100987F892B8093B100A5
:100A900007C081E01111F6CF95B5987F892B85BDF0
:100AA00089819A81AB81BC812FEF3FEFA901892B0E
:100AB0008A2B8B2B79F0D101AA0FBB1F29813A8198
:100AC0004B815C810E94F21C28EE33E040E050E054
:100AD0000E943C1DAD81BE8111968C91813009F43C
:100AE0005DC0823009F46CC081110EC0C7BC209378
:100AF000DA023093DB024093DC025093DD028091F6
:100B00006E00826080936E0026960FB6F894DEBF6A
:100B10000FBECDBFDF91CF911F91FF90EF90DF907F
:100B2000CF90BF90AF909F908F907F906F905F908D
:100B30004F903F902F90089582E0ACCF60E072E13B
:100B40008AE790E0A50191010E94D31C69017A0116
:100B5000A1E0CA1AD108E108F10891E0C114D1045A
:100B6000B1E0EB06F10484F068E478EE81E090E017
:100B7000A50191010E94D31C69017A01E1E0CE1A1E
:100B8000D108E108F10893E0113009F089CF809194
:100B90008100887F892B8093810082CFD092890049
:100BA000C09288002093D6023093D7024093D80297
:100BB0005093D90280916F00826080936F00A4CF20
:100BC000C092B3002093D2023093D3024093D40258
:100BD0005093D5028091700082608093700094CF12
:100BE00082E050CFDC018091D102833008F07FC0D9
:100BF0006C93E82FF0E0EC51FE4FE4911196EC93EA
:100C000011978F5F8093D102E13029F120F0E2301B
:100C100009F447C0089514BC15BC84B5826084BD36
:100C200085B5816085BD8C9190E0FC01E75EFD4F4C
:100C3000E491F0E0EE0FFF1FE15FFD4F259134914D
:100C40003093D0022093CF02FC01E35DFD4FE4918D
:100C5000E093CE020895109280001092810080915E
:100C60008100886080938100809181008160809301
:100C700081008C9190E0FC01E75EFD4FE491F0E093
:100C8000EE0FFF1FE15FFD4F259134913093CD02B0
:100C90002093CC02FC01E35DFD4FE491E093CB0295
:100CA00008951092B0001092B1008091B00082605F
:100CB0008093B0008091B10081608093B1008C91ED
:100CC00090E0FC01E75EFD4FE491F0E0EE0FFF1FC6
:100CD000E15FFD4F259134913093CA022093C90200
:100CE000FC01E35DFD4FE491E093C80208958FEFAE
:100CF00011968C9308952091A502260F3327331F58
:100D000021323105ECF42091A805FC0190E080E04F
:100D1000243069F082E00895A091A5022191AC01F0
:100D20004B575D4FA40FB52FB11D2C93019686171D
:100D300098F38091A502680F6093A50280E0089562
:100D400081E008951092A80581E08093A705109294
:100D5000820561E082E10E94960261E083E10E94E7
:100D60009602E9EBF0E080818E7F808380818D7F29
:100D7000808388E48093B80085E48093BC00089564
:100D8000CF93DF9391E0909384028823B9F0C091D0
:100D9000B800D091BA008091BC008A7B8093BC00DF
:100DA00060E082E10E94960260E083E10E94960288
:100DB0000E94A206D093BA00C093B800DF91CF91F1
:100DC00008958F929F92AF92BF92CF92DF92EF924F
:100DD000FF920F931F93CF93DF93D091D105D13220
:100DE00008F0D7C0182FC091D0050E9413036B01E3
:100DF0007C018091A80581116BC082E08093A805D9
:100E00001093A7058FEF8093A6051092A505D093A8
:100E1000A405A0EBB5E0E4E8F5E080E0D81391C0CC
:100E20001092830580918305CC0FC82BC093830556
:100E300080918205813009F088C0109282050E945D
:100E400013036B017C01809183058093BB0080912B
:100E5000AA059091AB05A091AC05B091AD05892B89
:100E60008A2B8B2BA1F00E9413030091AA051091ED
:100E7000AB052091AC053091AD056C197D098E094B
:100E80009F09061717072807390708F442C0809101
:100E9000BC0083FDD8CF85EC8093BC000E94130377
:100EA0006B017C018091A805823009F450C08091CB
:100EB000A6058F3F09F46FC08091A605803209F422
:100EC0006CC08091A605803309F469C084E026C017
:100ED0008091AA059091AB05A091AC05B091AD05AC
:100EE000892B8A2B8B2B09F484CF0E9413038090CB
:100EF000AA059090AB05A090AC05B090AD056C191B
:100F00007D098E099F0986169706A806B90608F07E
:100F100070CF8091A9050E94C00685E01092AF05B0
:100F20001092D1051092AE05DF91CF911F910F91D4
:100F3000FF90EF90DF90CF90BF90AF909F908F90F9
:100F400008959D9191938F5F69CF85EEA5CF809194
:100F5000AA059091AB05A091AC05B091AD05892B88
:100F60008A2B8B2B09F49ECF0E9413030091AA05B4
:100F70001091AB052091AC053091AD056C197D0940
:100F80008E099F09061717072807390708F08ACF27
:100F9000C0CF81E0C3CF80E0C1CF82E0BFCF83E08C
:100FA000BDCFE091610580916005E81730F4F0E075
:100FB000EE59FA4F808190E008958FEF9FEF0895EA
:100FC00090916105809160052FEF3FEF981748F4ED
:100FD000E92FF0E0EE59FA4F208130E09F5F9093C7
:100FE0006105C9010895CF92DF92EF92FF920F93AE
:100FF0001F93CF93DF937C01CB018A012091AE0533
:10100000222389F0EB016B01C40ED51ECC15DD0542
:1010100069F06991D701ED91FC910190F081E02D8B
:10102000C7010995F3CF642F0E947B06C801DF91A9
:10103000CF911F910F91FF90EF90DF90CF90089587
:10104000CF93DF931F92CDB7DEB769832091AE05B2
:101050002223F9F02091D105203258F021E030E030
:10106000FC013383228390E080E00F90DF91CF91E9
:1010700008958091AF05E82FF0E0E055FA4F99818F
:1010800090838F5F8093AF058093D10581E090E0DE
:10109000ECCF61E0CE0101960E947B06F7CFCF93A3
:1010A000C82F8091A70691E09093AE058093D0055C
:1010B0001092AF051092D10564EF8FE696E00E9482
:1010C00020086C2F8FE696E00E94200881E0CF91E7
:1010D0000C94E10690E080E008958F929F92AF9289
:1010E000BF92CF92DF92EF92FF920F931F93CF9315
:1010F000DF93C62F8A019091A706FF24F394F09204
:10110000AE059093D0051092AF051092D105682FCF
:101110008FE696E00E94200881E00E94E106D091CF
:10112000A706F092AE05D093D0051092AF051092AD
:10113000D1050E9413036B017C018091A8058111E8
:1011400065C081E08093A8058093A7059FEF9093E9
:10115000A6051092A5059C0F9093A4058093830586
:1011600080918305DD0FD82BD09383058091820574
:10117000813009F084C0109282050E9413036B0134
:101180007C01809183058093BB008091AA0590919A
:10119000AB05A091AC05B091AD05892B8A2B8B2BAB
:1011A000A1F00E9413038090AA059090AB05A09037
:1011B000AC05B090AD056C197D098E099F098616A6
:1011C0009706A806B90608F442C08091BC0083FDCA
:1011D000D8CF85EC8093BC000E9413036B017C0187
:1011E0008091A805813009F44CC08091A5058C1729
:1011F00010F4C091A505A4E8B5E0E2E6F5E080E0D2
:101200008C1751F19D9191938F5FFACF8091AA0530
:101210009091AB05A091AC05B091AD05892B8A2BBF
:101220008B2B09F48ACF0E9413038090AA0590901B
:10123000AB05A090AC05B090AD056C197D098E0989
:101240009F0986169706A806B90608F076CF809102
:10125000A9050E94C006C0E010926105C093600518
:10126000D0E080916105C81771F18FE696E00E9489
:10127000E007F801ED0FF11D8083DF5FF2CF85EE0F
:10128000A9CF8091AA059091AB05A091AC05B09132
:10129000AD05892B8A2B8B2B09F4A2CF0E94130357
:1012A0008090AA059090AB05A090AC05B090AD05DC
:1012B0006C197D098E099F0986169706A806B9063E
:1012C00008F08ECFC4CF81E0DF91CF911F910F91B5
:1012D000FF90EF90DF90CF90BF90AF909F908F9056
:1012E0000C94E106CF92DF92EF92FF92CF93DF93BF
:1012F0008EE20E944F0865E070E080E090E00E947E
:10130000380348EA56E062E086EF0E946D08C9E8BB
:10131000D6E02F8D38A132272327322750E040E036
:101320008C899D89281B390B41095109AA89BB89E0
:101330000E94F21C6B017C018FE0F594E794D79436
:10134000C7948A95D1F76C857D85072E000C880B94
:10135000990B2BE0660F771F881F991F2A95D1F7ED
:101360002E853F85032E000C440B550B2C0D3D1D87
:101370004E1D5F1D0E94D31CC20ED31EE41EF51E1F
:10138000CE8ADF8AE88EF98EDF91CF91FF90EF90C1
:10139000DF90CF9008954F925F926F927F928F92DD
:1013A0009F92AF92BF92CF92DF92EF92FF92CF9334
:1013B000DF9300D000D000D0CDB7DEB79E838D8301
:1013C0000E9472098091AB068295880F880F807CFD
:1013D0008C5C0E944F08E091AB06F091AC06EE0FDA
:1013E000FF1FE355F94F60817181072E000C880BB8
:1013F000990B0E94380348EA56E063E086EF0E94AA
:101400006D08E091AB06F091AC0640909F065090BD
:10141000A0066090A1067090A20620EA421A2FE072
:10142000520A61087108A3019201C301B2010E942E
:101430000C204B015C01BCE0B594A7949794879471
:10144000BA95D1F7A0918D06B0918E060E94FD1C31
:101450006B017C018DE0F594E794D794C7948A954D
:10146000D1F7A0918F06B0919006A50194010E943A
:10147000FD1C9C01552737FD5095452F2C0D3D1D1A
:101480004E1D5F1D2E5F3F4F4F4F5F4F62E05595E2
:101490004795379527956A95D1F730584F4F5F4F4D
:1014A000A0919906B0919A060E94F21C9B01AC0192
:1014B0007FE056954795379527957A95D1F72983FB
:1014C0003A834B835C838091A806C090A906D12CF7
:1014D000F12CE12CFE2CED2CDC2CCC24E82A809184
:1014E000AA06C82A88E090E08E1B9F0B04C0F594E2
:1014F000E794D794C7948A95D2F7A0919106B091BA
:101500009206A50194010E94FD1C4B015C01BBE009
:10151000B594A79497948794BA95D1F7A0918B0628
:10152000B0918C06A30192010E94FD1C2BE09595C1
:101530008795779567952A95D1F7860E971EA81EF1
:10154000B91E8091890690918A06092E000CAA0B7B
:10155000BB0B32E0880F991FAA1FBB1F3A95D1F72A
:10156000880D991DAA1DBB1D4C015D010E2E04C0E6
:10157000880C991CAA1CBB1C0A94D2F732E0830E7B
:10158000911CA11CB11C42E0B594A7949794879438
:101590004A95D1F7A7019601281939094A095B092B
:1015A00060E573EC80E090E004C0959587957795B1
:1015B0006795EA95D2F70E940C2097FD5CC0660FF4
:1015C000771F881F991F29813A814B815C810E9476
:1015D0003C1D69017A019927F7FC9A958F2D7E2D84
:1015E0006D2D9B01AC010E940C209B01AC01AEED66
:1015F000BBE00E94F21C4B015C01A3E4B3EEA70127
:1016000096010E94001D9C01552737FD5095452FDE
:101610004501BB2497FCB094AB2C280D391D4A1D05
:101620005B1D2153314F4F4F5F4F74E055954795E8
:10163000379527957A95D1F7C20ED31EE41EF51E75
:10164000ED81FE81C082D182E282F38226960FB6BE
:10165000F894DEBF0FBECDBFDF91CF91FF90EF902A
:10166000DF90CF90BF90AF909F908F907F906F90C2
:101670005F904F90089529813A814B815C810E944F
:101680003C1D69017A01CC0CDD1CEE1CFF1CA3CFB4
:10169000FC0101900020E9F73197AF01481B590B7D
:1016A000BC0182ED95E00C948901CF93DF930E94F9
:1016B000480BEC0182E491E00E94480B8C0F9D1FC7
:1016C000DF91CF910895FC0180819181009711F005
:1016D0000C94E62008950F931F93CF93DF93EC01B2
:1016E00088819981009759F02A813B812617370715
:1016F00030F081E0DF91CF911F910F9108958B0120
:101700006F5F7F4F0E946F21009759F09983888304
:101710001B830A832C813D81232B59F7FC01108206
:10172000E8CF80E0E7CFEF92FF920F931F93CF9324
:10173000DF93EC01FB01E080F180E114F10411F191
:101740000481158101151105A9F08C819D81080F77
:10175000191FB801CE010E946B0B882399F02881D4
:1017600039818C819D81B701820F931F0E943522A0
:101770001D830C83CE01DF91CF911F910F91FF90BC
:10178000EF90089588819981009711F00E94E620DA
:10179000198218821D821C821B821A82EBCFEF9263
:1017A000FF920F931F93CF93DF93EC017B018A018C
:1017B000BA010E946B0B28813981811114C0211557
:1017C000310519F0C9010E94E620198218821D8294
:1017D0001C821B821A82CE01DF91CF911F910F9143
:1017E000FF90EF9008951D830C83B701C9010E94FB
:1017F0003522F1CFFB0101900020E9F73197AF01CD
:10180000461B570B0C94CF0B0F931F93CF93DF9373
:10181000CDB7DEB762970FB6F894DEBF0FBECDBF6F
:101820008C01CB01F8011182108213821282158281
:1018300014824AE0BE016F5F7F4F0E941219BE0101
:101840006F5F7F4FC8010E94FA0B62960FB6F89443
:10185000DEBF0FBECDBFDF91CF911F910F910895D5
:10186000FC0111821082138212821582148261158A
:10187000710551F0FB0101900020E9F73197AF01AC
:10188000461B570B0C94CF0B089585ED8093BC003D
:101890008091AA059091AB05A091AC05B091AD05E2
:1018A0000796A11DB11D23E0B695A795979587953D
:1018B0002A95D1F72091BC0024FD03C01092A80501
:1018C00008954091AA055091AB056091AC057091C7
:1018D000AD05452B462B472B69F30097A105B105B4
:1018E00041F025E32A95F1F700000197A109B1091C
:1018F000E1CF8091A9050C94C0061F920F920FB6FC
:101900000F9211242F933F934F935F936F937F9385
:101910008F939F93AF93BF93EF93FF9382ED95E0E7
:101920000E940702FF91EF91BF91AF919F918F911C
:101930007F916F915F914F913F912F910F900FBECB
:101940000F901F9018951F920F920FB60F921124AF
:101950002F938F939F93EF93FF93E091E205F09184
:10196000E3058081E091E805F091E90582FD1BC067
:1019700090818091EB058F5F8F732091EC0582172A
:1019800041F0E091EB05F0E0EE52FA4F958F809335
:10199000EB05FF91EF919F918F912F910F900FBECB
:1019A0000F901F9018958081F4CF1F920F920FB661
:1019B0000F9211242F933F938F939F93AF93BF93D5
:1019C00080911F0390912003A0912103B0912203E5
:1019D00030911E0323E0230F2D3758F50196A11DEA
:1019E000B11D20931E0380931F0390932003A093A7
:1019F0002103B09322038091230390912403A091AB
:101A00002503B09126030196A11DB11D80932303E8
:101A100090932403A0932503B0932603BF91AF9125
:101A20009F918F913F912F910F900FBE0F901F901C
:101A3000189526E8230F0296A11DB11DD2CF1F9243
:101A40000F920FB60F9211242F933F934F935F93F2
:101A50006F937F938F939F93AF93BF93EF93FF9376
:101A6000E0915E05F0915F05309749F0A685B78556
:101A70008585968D91FF14C09C918923A1F4FF91D7
:101A8000EF91BF91AF919F918F917F916F915F91F6
:101A90004F913F912F910F900FBE0F901F9018956F
:101AA0009C91892361F7A389B4899C91858980954C
:101AB00089238C93868997890197F1F7608D718DC1
:101AC000A685B785558538E020E0CB010197F1F771
:101AD000822F90E095958795282F4C91452309F00A
:101AE0002068315091F7868D81FD209580915D05AC
:101AF00090E001968F73992730915C05381799F023
:101B0000A0915D05B0E0A252BD4F2C9380935D057E
:101B1000828D938D0197F1F7A389B4898C91958972
:101B2000892B8C93ACCF868D8160868FF1CF1F92ED
:101B30000F920FB60F9211242F933F938F939F9381
:101B4000AF93BF93EF93FF938091D2029091D30212
:101B5000A091D402B091D5020097A105B10531F151
:101B60003091C802E091C902F091CA022081232776
:101B70002083181619061A061B061CF40197A109E2
:101B8000B1098093D2029093D302A093D402B09370
:101B9000D502FF91EF91BF91AF919F918F913F91AE
:101BA0002F910F900FBE0F901F90189520917000ED
:101BB0002D7F209370002091C802E091C902F0911E
:101BC000CA023081209523232083DBCF1F920F92FE
:101BD0000FB60F9211248F939F93AF93BF93EF9300
:101BE000FF938091D6029091D702A091D802B09134
:101BF000D902892B8A2B8B2BA1F19091CB02E091FA
:101C0000CC02F091CD028081892780838091D60219
:101C10009091D702A091D802B091D9021816190656
:101C20001A061B069CF48091D6029091D702A091CF
:101C3000D802B091D9020197A109B1098093D602C7
:101C40009093D702A093D802B093D902FF91EF915D
:101C5000BF91AF919F918F910F900FBE0F901F90EA
:101C6000189580916F008D7F80936F008091CB02DB
:101C7000E091CC02F091CD02908180958923808300
:101C8000E5CF1F920F920FB60F9211248F939F935F
:101C9000AF93BF93EF93FF938091DA029091DB02B1
:101CA000A091DC02B091DD02892B8A2B8B2BA1F154
:101CB0009091CE02E091CF02F091D00280818927ED
:101CC00080838091DA029091DB02A091DC02B091D6
:101CD000DD02181619061A061B069CF48091DA021A
:101CE0009091DB02A091DC02B091DD020197A10985
:101CF000B1098093DA029093DB02A093DC02B093E7
:101D0000DD02FF91EF91BF91AF919F918F910F9065
:101D10000FBE0F901F90189580916E008D7F80935D
:101D20006E008091CE02E091CF02F091D0029081BE
:101D3000809589238083E5CF1F920F920FB60F9273
:101D400011242F933F934F935F936F937F938F93C0
:101D50009F93AF93BF93EF93FF938091B900887FD8
:101D6000803609F44AC0F0F5883209F4A7C018F5A6
:101D7000803109F49BC0B8F4882309F4F9C0883095
:101D800009F494C0FF91EF91BF91AF919F918F9112
:101D90007F916F915F914F913F912F910F900FBE67
:101DA0000F901F901895883109F488C0803251F740
:101DB0008093A60514C0803409F49DC040F480339C
:101DC000B9F38833F9F68093A60585ECB0C0803569
:101DD00009F485C0883509F496C0883499F60E94C4
:101DE000450CD0CF883909F48CC038F5883729F0F4
:101DF00050F4883611F0803729F683E08093A805E7
:101E00001092C70257C0883809F47BC0803919F096
:101E1000803809F0B7CF8091C702803208F071C0D6
:101E2000E091C70281E08E0F8093C7028091BB00D2
:101E3000F0E0E955FD4F80833DC0803B39F0E0F490
:101E4000803A09F479C0883A09F09CCF84E0809305
:101E5000A8051092A6021092A502E0912903F09124
:101E60002A0309958091A50281110FC081E080931A
:101E7000A5021092850209C0803C09F4A6CF883CD7
:101E800009F4A3CF883B09F07DCFE091A60281E061
:101E90008E0F8093A602F0E0EB57FD4F8081809378
:101EA000BB009091A6028091A50229C08091830574
:101EB0008093BB0085EC8093BC0064CF9091A50516
:101EC0008091A405981758F5E091A50581E08E0F43
:101ED0008093A505F0E0EC57FA4F8081E9CFE091BF
:101EE000A50581E08E0F8093A5058091BB00F0E0F1
:101EF000EC57FA4F80839091A5058091A40598171F
:101F0000C8F285E8D8CFE091A50581E08E0F8093D7
:101F1000A5058091BB00F0E0EC57FA4F80838091DB
:101F2000A70581115CCF81E08093820584EA8093CC
:101F3000BC001092A80526CF85EC8093BC001092BF
:101F4000A8058091C702803230F4E091C702F0E02A
:101F5000E955FD4F10826091C70270E0E0912703C0
:101F6000F091280387EA92E009951092C7020ACF00
:101F70001092A60534CF1092D5051092D40588EEA4
:101F800093E0A0E0B0E08093D6059093D705A093AE
:101F9000D805B093D90520E131E03093D3052093E3
:101FA000D20525EC30E03093DF052093DE0524ECEC
:101FB00030E03093E1052093E00520EC30E03093F1
:101FC000E3052093E20521EC30E03093E505209312
:101FD000E40522EC30E03093E7052093E60526EC9B
:101FE00030E03093E9052093E8051092EB0510925C
:101FF000EC051092ED051092EE051092720610920B
:1020000071068093730690937406A0937506B0933F
:10201000760622E231E03093700620936F0610922C
:10202000C8061092C7068093C9069093CA06A0936B
:10203000CB06B093CC0684E391E09093C6068093E0
:10204000C5061092DC061092DB061092DE06109296
:10205000DD061092E0061092DF061092E206109262
:10206000E1066091E3066E7F6D7F6093E3066695FF
:10207000617081E0682783E00E94960261E083E05E
:102080000E94E202E0E3F2E0E491E093D506ECE1A5
:10209000F2E0E491F0E0EE0FFF1FE15FFD4F85916C
:1020A00094919093D7068093D60660E082E00E94D8
:1020B000E2028091E30681FD04C061E082E00E94BB
:1020C000960282E08093D106EFE2F2E0E491E093A1
:1020D000D206EBE1F2E0E491F0E0EE0FFF1FEB5FE0
:1020E000FD4F859194919093D4068093D30687E712
:1020F0008093A70685E090E09093AE068093AD06AE
:1021000088E090E09093B0068093AF068EE090E078
:102110009093B2068093B1068AE190E09093B40662
:102120008093B3061092B5061092B6061092B706C9
:102130001092B8061092B9061092BA061092BB0619
:102140001092BC061092A3061092A4061092A50647
:102150001092A6060E946B030E946B036093850693
:102160007093860680938706909388060E946B037F
:102170006093810670938206809383069093840611
:1021800064E471E08BE796E00C94300CCF93DF931E
:10219000CDB7DEB7C458D1090FB6F894DEBF0FBE75
:1021A000CDBF789484B5826084BD84B5816084BDE0
:1021B00085B5826085BD85B5816085BD80916E00E5
:1021C000816080936E001092810080918100826016
:1021D0008093810080918100816080938100809153
:1021E00080008160809380008091B1008460809342
:1021F000B1008091B00081608093B00080917A003E
:10220000846080937A0080917A00826080937A0063
:1022100080917A00816080937A0080917A00806852
:1022200080937A001092C100E091E205F091E305FD
:1022300082E08083E091E205F091E3051082E09175
:10224000DE05F091DF051082E091E005F091E105F7
:1022500080E180831092EA05E091E605F091E705C0
:1022600086E08083E091E405F091E505808180615E
:102270008083E091E405F091E505808188608083AA
:10228000E091E405F091E505808180688083E0912C
:10229000E405F091E50580818F7D808310926105D2
:1022A000109260051092AF051092D1050E94A2060F
:1022B00087E891E090932A038093290388E891E0CE
:1022C000909328038093270380EC8093BA001092A8
:1022D000E0061092DF061092DE061092DD061092E4
:1022E000DC061092DB068DE991E09093E206809384
:1022F000E1069091D106963108F047C02DEB30E011
:102300003093DC062093DB062BE931E03093DE06C8
:102310002093DD062CE231E03093E0062093DF06C7
:102320002091680084E0983048F031E09E3008F455
:1023300030E081E001C0880F3A95EAF7822B809364
:1023400068002DE630E0983050F02BE630E09E300B
:1023500030F02CE630E0963110F030E020E03093A1
:10236000D9062093D806292F30E0983008F005C60A
:1023700081E001C0880F9A95EAF78093DA06809190
:10238000E1069091E2060197F1F70E9454010E9444
:10239000540185E491E00E94550B88E791E00E948A
:1023A000550B8BEA91E00E94550B8EED91E00E9457
:1023B000550B81E192E00E94550B81E192E00E9471
:1023C000550B84E492E00E94550B85E491E00E9455
:1023D000550B68E086EA93E00E94F20569E084EA22
:1023E00093E00E94F20548EA56E062E08AEA0E9421
:1023F0006D088091A8069091A906982789279827AB
:1024000090938A068093890648EA56E062E08CEA57
:102410000E946D088091A8069091A90698278927A7
:10242000982790938C0680938B0648EA56E062E0EA
:102430008EEA0E946D088091A8069091A9069827BF
:102440008927982790938E0680938D0648EA56E058
:1024500062E080EB0E946D088091A8069091A90629
:1024600098278927982790939A068093990648EA97
:1024700056E062E082EB0E946D088091A806909180
:10248000A90698278927982790939C0680939B06F6
:1024900048EA56E062E084EB0E946D088091A8064D
:1024A0009091A90698278927982790939E06809354
:1024B0009D0648EA56E062E086EB0E946D08809136
:1024C000A8069091A90698278927982790939006A7
:1024D00080938F0648EA56E062E088EB0E946D0820
:1024E0008091A8069091A90698278927982790930C
:1024F00092068093910648EA56E062E08AEB0E94D9
:102500006D088091A8069091A90698278927982799
:10251000909394068093930648EA56E062E08CEB31
:102520000E946D088091A8069091A9069827892796
:102530009827909396068093950648EA56E062E0C5
:102540008EEB0E946D088091A8069091A9069827AD
:102550008927982790939806809397060E9472097E
:1025600083E090E09093AC068093AB068DEC9BE803
:10257000A1E0B0E08093BD069093BE06A093BF0695
:10258000B093C006CE0101960E94CB0969817A8181
:102590008B819C810E94B61B6B017C016091BD0602
:1025A0007091BE068091BF069091C0060E94B61B36
:1025B0009B01AC01C701B6010E94DA1D21E03EED8E
:1025C00042E45EE30E94871E4B015C016091B50608
:1025D0007091B6068091B7069091B8060E94B61B1E
:1025E0006B017C01A501940160E070E080E89FE34D
:1025F0000E946D1D20ED38E447E85AE40E94151C46
:102600009B01AC01C701B6010E946E1D0E944C1EC9
:102610006093C1067093C2068093C3069093C4066C
:102620000CE211E028EC30E040E050E0B80186EA2E
:1026300093E00E942504B8016B5F7F4F28EC30E0E7
:1026400040E050E084EA93E00E94250464E670E0F4
:1026500080E090E00E9438030C591F4F003426E0C0
:10266000120701F70CED15E028EC30E040E050E0F7
:10267000B80186EA93E00E942504B8016B5F7F4FA2
:1026800028EC30E040E050E084EA93E00E9425042A
:1026900064E670E080E090E00E943803045611097F
:1026A00019F71E0185E6280E311C0E946B030E945B
:1026B000B41BAF966CAF7DAF8EAF9FAFAF9782E08C
:1026C00091E00E94CB09C0900201D0900301E090FC
:1026D0000401F0900501ABE2B3E0FD0144815581B6
:1026E00066817781419351936193719393E0EF38C1
:1026F000F907A1F7C0928B03D0928C03E0928D036F
:10270000F0928E0360E070E0CB010D911D912D9150
:102710003D91600F711F821F931FE3E0AF38BE072A
:10272000A1F729E130E040E050E00E94D31CC358FB
:10273000DF4F288339834A835B83CD57D040C7015D
:10274000B6010E94B61B20E836EE45EC57E40E9425
:10275000DA1D21EB3CED42E45EE30E94871E9B0103
:10276000AC0160E070E080E89FE30E946D1D20E016
:102770003AE24DE257E40E94151C4B015C01809245
:10278000580590925905A0925A05B0925B05C3581E
:10279000DF4F688179818A819B81CD57D0400E942B
:1027A000B61B20E836EE45EC57E40E94DA1D21EB1B
:1027B0003CED42E45EE30E94871E9B01AC0160E0B9
:1027C00070E080E89FE30E946D1D20E03AE24DE258
:1027D00057E40E94151C6B017C01C0925405D092F5
:1027E0005505E0925605F09257050E946B030E9432
:1027F000B41B2B013C0120E030E04AE754E4609137
:1028000050057091510580915205909153050E9499
:102810006E1D9B01AC01C301B2010E94821E87FDA7
:102820002EC020914C0530914D0540914E055091A0
:102830004F05C701B6010E946D1D20E030E048EC55
:1028400052E40E94151C60934805709349058093DB
:102850004A0590934B05C0924C05D0924D05E092ED
:102860004E05F0924F050E946B030E94B41B6093CB
:102870005005709351058093520590935305ECE7F2
:10288000F4E0A0EBB3E04481558166817781419308
:1028900051936193719314964D915D916D917C91DB
:1028A00017974D935D936D937D9325E0E434F20784
:1028B00051F78092440590924505A0924605B0924A
:1028C0004705AF968CAD9DADAEADBFADAF978093D4
:1028D000780490937904A0937A04B0937B04809158
:1028E000D8039091D903A091DA03B091DB03CF57BD
:1028F000DF4F88839983AA83BB83C158D04008EDFA
:1029000013E0A4EAB4E0E996BFAFAEAFE997E7966B
:102910001CAE1DAE1EAE1FAEE797E3961CAE1DAEFD
:102920001EAE1FAEE397412C512C320153014201E0
:10293000F80161917191819191918F01CF57DF4F92
:10294000288139814A815B81C158D0400E946D1D28
:102950006B017C01E996EEADFFADE9978191919114
:10296000A191B191E996FFAFEEAFE997ED968CAFEB
:102970009DAFAEAFBFAFED979C01AD01C701B601F2
:102980000E94151C9B01AC01C501B4010E946E1D83
:102990004B015C01A7019601C301B2010E946E1DAB
:1029A0002B013C01ED962CAD3DAD4EAD5FADED97ED
:1029B000E3966CAD7DAD8EAD9FADE3970E946E1D2D
:1029C000E3966CAF7DAF8EAF9FAFE397A701960103
:1029D000C701B6010E94151C9B01AC01E7966CADC6
:1029E0007DAD8EAD9FADE7970E946E1DE7966CAFF3
:1029F0007DAF8EAF9FAFE797F4E008371F0709F070
:102A000097CF2091AC033091AD034091AE0350912C
:102A1000AF03AF966CAD7DAD8EAD9FADAF970E940D
:102A20006D1D2091A8033091A9034091AA035091F4
:102A3000AB030E94821E18160CF0C4C020E030E0E8
:102A400040E252E4C501B4010E94151C6B017C01F7
:102A5000E3962CAD3DAD4EAD5FADE397C301B20142
:102A60000E94151C9B01AC01C701B6010E946D1D9F
:102A700020E030E04AE754E40E94151C6B017C0121
:102A800020E030E040E252E4E7966CAD7DAD8EADE3
:102A90009FADE7970E94151C4B015C01A3019201B9
:102AA000C301B2010E94151C9B01AC01C501B40118
:102AB0000E946D1D9B01AC01C701B6010E94DA1D89
:102AC0006B017C01AF968CAD9DADAEADBFADAF9748
:102AD0008093AC039093AD03A093AE03B093AF0388
:102AE00020E030E040E05FE3C701B6010E94821EB3
:102AF00018160CF04FC220E030E040E251E4C7016C
:102B0000B6010E94AF1B18160CF444C220E030E05E
:102B100040EF51E4C701B6010E946E1DA701960166
:102B20000E94151C9B01AC0160E070E889E094E410
:102B30000E946D1D6093A8037093A9038093AA035C
:102B40009093AB0320E030E040EA51E4C701B601C6
:102B50000E946E1DA70196010E94151C9B01AC01ED
:102B600060E070E082ED93E40E946D1D0E94531EB0
:102B70004B015C0120E030E048E453E4C701B601BA
:102B80000E94151C6B017C0120E030E04FEA54E408
:102B90000E946E1D0E94531EA501940186EA93E0D7
:102BA0000E94250420E030EC4FEA54E4C701B6014E
:102BB0000E946E1D0E94531EA501940184EA93E0B9
:102BC0000E9425040E946B03AB01BC018091850625
:102BD00090918606A0918706B091880688519C4FF7
:102BE000AF4FBF4F481759076A077B0708F461C00A
:102BF0000E94720960919F067091A0068091A106C3
:102C00009091A206685F7F4F8F4F9F4F54E095953C
:102C10008795779567955A95D1F76093A003709340
:102C2000A1038093A2039093A3032AE030E040E045
:102C300050E00E94D31C30930101209300018EE4E8
:102C400080937C0062E070E080E090E00E943803B6
:102C500080917A00806480937A0080917A0086FD6A
:102C6000FCCF809178002091790030E0322F22272C
:102C7000032E000C440B550B282B60E070E381E120
:102C800090E00E94D31CCA01B9010E94B61B609358
:102C90009C0370939D0380939E0390939F030E94D7
:102CA0006B036093850670938606809387069093E6
:102CB00088060E946B03AB01BC0180918106909154
:102CC0008206A0918306B091840688519C4FAF4F35
:102CD000BF4F481759076A077B0708F4EDC1609199
:102CE0009C0370919D0380919E0390919F030E948D
:102CF0004C1E9B01AC01245C394041095109A3E6FB
:102D0000B0E00E94F21C28E037E040E050E00E9472
:102D1000D31C69017A019FEFC91AD90AE90AF90A95
:102D200067E772E0CE0183960E94300CB6016851CD
:102D30007C4FCE0189960E94040C67E772E0CE01B9
:102D40008F960E94300C6091000170910101CE01BC
:102D5000C5960E94040C67E772E0CE01CB960E94F4
:102D6000300C609148057091490580914A05909119
:102D70004B0506E913E020E040E00E94F418BC0196
:102D8000CE018F5B9F4F0E94300C67E772E0CE014F
:102D9000895B9F4F0E94300C6091580570915905D6
:102DA00080915A0590915B0500E913E020E040E036
:102DB0000E94F418BC01CE01835B9F4F0E94300C2F
:102DC00067E772E0CE018D5A9F4F0E94300C6B96E0
:102DD0001FAE1EAE6B976D961FAE1EAE6D976F96B3
:102DE0001FAE1EAE6F972AE0AE014F5F5F4FC35814
:102DF000DF4F688179818A819B81CD57D0400E94C5
:102E00001D19BE016F5F7F4FCE01875A9F4F0E94F1
:102E1000FA0B67E772E0CE0101960E94300C69E779
:102E200072E0CE01815A9F4F0E94300CBE016F5F4D
:102E30007F4FCE01815A9F4F0E94930BBE01675A6C
:102E40007F4F0E94930BBE016D5A7F4F0E94930BE0
:102E5000BE01635B7F4F0E94930BBE01695B7F4F96
:102E60000E94930BBE016F5B7F4F0E94930BBE01CC
:102E7000655C7F4F0E94930BBE016B5C7F4F0E948D
:102E8000930BBE01615D7F4F0E94930BBE01675D96
:102E90007F4F0E94930BBE016D5D7F4F0E94930B8D
:102EA000D10111961C921E9213961C921E9212979B
:102EB00015961C921E9214978215930559F0FC01E9
:102EC000608171816115710529F044815581C101CD
:102ED0000E94CF0BCE01815A9F4F0E94630BCE01FF
:102EE00001960E94630BCE01875A9F4F0E94630B8D
:102EF000CE018D5A9F4F0E94630BCE01835B9F4F83
:102F00000E94630BCE01895B9F4F0E94630BCE0131
:102F10008F5B9F4F0E94630BCE01CB960E94630B89
:102F2000CE01C5960E94630BCE018F960E94630B63
:102F3000CE0189960E94630BCE0183960E94630B9B
:102F4000D10114964D915C9115972D913C9190E093
:102F500080E010E000E04817590709F469C0F90162
:102F6000E80FF91F2115310521F410928F03EFE8C6
:102F7000F3E0608106270196EECF9E3040F42850A2
:102F8000310981E001C0880F2A95EAF7F6C92E5071
:102F90003109F7CF20E030E040E251E4C701B6014B
:102FA0000E94821E1816ECF480E090E0A0E2B3E4E8
:102FB0008093A8039093A903A093AA03B093AB03B3
:102FC00028E730E040E050E06AE77DE086EA93E001
:102FD0000E94250428E730E040E050E060E87DE012
:102FE000EDCD2DEC3CEC4CE85FEBC701B6010E9447
:102FF000AF1B87FFE7CD80E090E0A8E4B3E48093C7
:10300000A8039093A903A093AA03B093AB0324E56C
:1030100031E040E050E06CE271E086EA93E00E942B
:10302000250424E531E040E050E060E471E0C6CDE5
:1030300080E892E00E94480BF10144815581608153
:10304000718182ED95E00E94890182E892E00E9400
:10305000480BA80170E060E019A2CE0181968A01B8
:103060009B010F7011272227332724E0769567955F
:10307000579547952A95D1F70A30BCF5005DDC01DC
:103080000E93CD01411551056105710541F7AB2B3B
:1030900011F00E94480B82E491E00E94480B0E94CC
:1030A0006B036093810670938206809383069093EE
:1030B0008406C1010E94630B0E946B0385EC96E0BD
:1030C0000E94EC03892B99F085EC96E00E94EC03BA
:1030D000892B09F45CC085EC96E00E940404682FFB
:1030E00085EC96E00E949003EFCF095CC8CF82ED9B
:1030F00095E00E94E701892B09F449C082ED95E033
:103100000E94E701892B09F442C082ED95E00E94FC
:10311000C5018432B9F440917F06509180066091D8
:103120007B0670917C0682ED95E00E94890182E425
:1031300091E00E94480B60E872E08BE796E00E9405
:10314000FA0BDCCF8A30D1F289831A8200917F0694
:10315000109180060F5F1F4FB8018BE796E00E9429
:103160006B0B882359F220917B0630917C0680916D
:103170007F0690918006BE016F5F7F4F820F931F85
:103180000E9435221093800600937F06B7CF80E01F
:1031900090E0892B09F489CA0E94F301882309F47D
:1031A00080CA0E9400007DCA8BE796E00E94630BF4
:1031B00084E391E09093C6068093C50680915E05F6
:1031C00090915F05855C964071F4E091D806F0918E
:1031D000D90690818091DA068095892380831092A8
:1031E0005F0510925E050895EF920F931F93CF93A2
:1031F000DF93E80134E047FD34E1042E000C550B69
:1032000057FF03C0519541955109E32E022F242FFA
:10321000AE010E946819CE01DF91CF911F910F91ED
:10322000EF900895BB274A3031F4992322F4BDE290
:10323000909581959F4F0C944F19BB272A3051F4DC
:10324000992342F4BDE290958095709561957F4FEA
:103250008F4F9F4F0C942D19BB27FA01A62F621791
:10326000710581059105330B30FB66F0AA27660FC7
:10327000771F881F991FAA1FA21710F0A21B639522
:103280003850A9F7A05DAA3308F0A95DA19336F7DD
:10329000B111B1931082CA010C949F1BBB27FB0193
:1032A0005527AA27880F991FAA1FA41710F0A41B3F
:1032B00083955051B9F7A05DAA3308F0A95DA19399
:1032C000009779F7B111B1931192CB010C949F1B28
:1032D000A9E0B0E0EEE6F9E10C940B1D6A01F22ED4
:1032E000B02E102FFBE3AF2EA01608F41BE31F5FD8
:1032F000012F27E0AE014F5F5F4F0E94C71ABC014C
:103300008981982F9970913009F43FC09BE2E1FCCC
:1033100004C09E2D9170E0FC3AC05E2D5071E82FE4
:10332000E87083FF46C084E0911101C083E0EF2D77
:10333000E81B8F1508F0E0E0D6018E2F20E2552320
:1033400051F1992329F0D6019C93C60101966C0195
:1033500096012D5F3F4FE2FE24C08EE4D6018C9390
:1033600091E411969C93119712968C93D9018E2F0C
:1033700090E281111BC0E20FF32FF11D10828EEF3E
:103380009FEF2996ECE00C94271D9DE2C6CF90E2BA
:10339000C4CF2D9381508111FCCFCE0ED11CE0E023
:1033A000D0CF8EE6D6018C9391E6DBCF9D938150F2
:1033B000E0CF482F447082FF3DC084E0911101C0EE
:1033C00083E08F1510F4EF2DE81BD6018E2F20E23D
:1033D000552309F1992329F0D6019C93C601019642
:1033E0006C0196012D5F3F4FE2FE1BC089E4D601C0
:1033F0008C938EE411968C93119786E412968C939D
:10340000D9018E2F90E2882309F4B5CF9D93815086
:10341000FACF2D9381508111FCCFCE0ED11CE0E06C
:10342000D9CF89E6D6018C938EE611968C931197AD
:1034300086E6E4CF9B0177FF02C030E020E0A1E008
:10344000B0E0911102C0B0E0A0E0F9013196AE0FFA
:10345000BF1F8B2C912CBB2009F461C05401EFEFEE
:10346000AE1ABE0AAA0DBB1DFA161B0619F014F0FF
:103470004F2D4A1B511188C0E3FC59C07601A42F7F
:10348000B0E2A1114FC0C40ED11C992309F45BC056
:1034900040E0D6011196F60190836D01552309F4A1
:1034A00048C0012F060F9A81582F507184FF03C026
:1034B000913309F4015010160CF047C0093008F0A0
:1034C00008E0EEE2FE2E5B01A01AB108850191949E
:1034D000819491082F3F320729F4D601FC92F6011E
:1034E00031966F016217730794F1021713077CF589
:1034F000DB01A21BB30BAA24A394B12CAC0EBD1EFE
:10350000AA0DBB1D11968C9121503109D60111963F
:1035100028153905F4F0F60180836D01DBCFB12C5D
:10352000A12CA0CFF701B1937F01A150AACF911197
:10353000B0CFD601942F50E302C05D93915091110A
:10354000FCCFC40ED11C40E0ACCF01E0BACF80E389
:10355000DBCF6217730731F4963388F4953311F497
:10356000552369F0F6018083FD01842F90E28111DB
:1035700008C0A40FB11D1C9290E080E002CF81E34F
:10358000F1CF91938150F3CF911183CF8ACF28301F
:1035900008F027E03327DA01990F311D87FD91608C
:1035A00000966105710539F432602E5F3D9330E37A
:1035B0002A95E1F708959F3F30F080387105610545
:1035C00009F03C5F3C5F3D93913008F08068911DAD
:1035D000DF93CF931F930F93FF92EF92192F987F52
:1035E0009695E92F96959695E90FFF27EC5BFE4F90
:1035F00099273327EE24FF24A701E70105900894BB
:10360000079428F4360FE71EF81E491F511D660F58
:10361000771F881F991F0694A1F70590079428F437
:10362000E70EF81E491F561FC11D770F881F991FEF
:10363000661F0694A1F70590079428F4F80E491F19
:10364000561FC71FD11D880F991F661F771F06942D
:10365000A1F70590079420F4490F561FC71FD81FE4
:10366000990F661F771F881F0694A9F784911095FC
:10367000177041F0D695C79557954795F794E794FD
:103680001A95C1F7EAEEF0E068941590159135911E
:103690006591959105907FE27395E118F10A430BCE
:1036A000560BC90BD009C0F7E10CF11E431F561F82
:1036B000C91FD01D7EF4703311F48A95E6CFE894CB
:1036C000015030F0080F0AF40027021708F4202FE9
:1036D0002395022F7A3328F079E37D932A95E9F731
:1036E00010C07D932A9589F606949795679537952E
:1036F00017951794E118F10A430B560BC90BD00923
:1037000098F023957E9173957A3308F070E37C935B
:103710002013B8F77E9170617D9330F0839571E34B
:103720007D9370E32A95E1F71124EF90FF900F91BC
:103730001F91CF91DF91992787FD90950895DC0126
:10374000FC01672F71917723E1F7329704C07C91D8
:103750006D9370836291AE17BF07C8F308950E94FE
:10376000F11B08F481E00895E89409C097FB3EF44A
:1037700090958095709561957F4F8F4F9F4F9923BE
:10378000A9F0F92F96E9BB279395F695879577953C
:103790006795B795F111F8CFFAF4BB0F11F460FFFC
:1037A0001BC06F5F7F4F8F4F9F4F16C0882311F054
:1037B00096E911C0772321F09EE8872F762F05C068
:1037C000662371F096E8862F70E060E02AF09A9503
:1037D000660F771F881FDAF7880F9695879597F9F8
:1037E0000895990F0008550FAA0BE0E8FEEF161692
:1037F0001706E807F907C0F012161306E407F507E5
:1038000098F0621B730B840B950B39F40A2661F058
:10381000232B242B252B21F408950A2609F4A140FB
:10382000A6958FEF811D811D08950E94281C0C9480
:10383000991C0E948B1C38F00E94921C20F095234A
:1038400011F00C94821C0C94881C11240C94CD1C37
:103850000E94AA1C70F3959FC1F3950F50E0551F6D
:10386000629FF001729FBB27F00DB11D639FAA27D5
:10387000F00DB11DAA1F649F6627B00DA11D661F24
:10388000829F2227B00DA11D621F739FB00DA11D45
:10389000621F839FA00D611D221F749F3327A00DFF
:1038A000611D231F849F600D211D822F762F6A2F9B
:1038B00011249F5750409AF0F1F088234AF0EE0F00
:1038C000FF1FBB1F661F771F881F91505040A9F72D
:1038D0009E3F510580F00C94821C0C94CD1C5F3FE0
:1038E000E4F3983ED4F3869577956795B795F79569
:1038F000E7959F5FC1F7FE2B880F911D96958795E1
:1039000097F9089597F99F6780E870E060E008955F
:103910009FEF80EC089500240A94161617061806E7
:103920000906089500240A941216130614060506C3
:103930000895092E0394000C11F4882352F0BB0F54
:1039400040F4BF2B11F460FF04C06F5F7F4F8F4FB7
:103950009F4F089557FD9058440F551F59F05F3FF2
:1039600071F04795880F97FB991F61F09F3F79F0A1
:1039700087950895121613061406551FF2CF469523
:10398000F1DF08C0161617061806991FF1CF8695A5
:103990007105610508940895E894BB276627772789
:1039A000CB0197F90895052E97FB1EF400940E9411
:1039B000EA1C57FD07D00E943C1D07FC03D04EF4C3
:1039C0000C94EA1C50954095309521953F4F4F4FF0
:1039D0005F4F089590958095709561957F4F8F4FBB
:1039E0009F4F08950E945E1DA59F900DB49F900D5E
:1039F000A49F800D911D11240895B7FF0C94F21C13
:103A00000E94F21C821B930B08952F923F924F92BB
:103A10005F926F927F928F929F92AF92BF92CF925E
:103A2000DF92EF92FF920F931F93CF93DF93CDB767
:103A3000DEB7CA1BDB0B0FB6F894DEBF0FBECDBFDF
:103A400009942A88398848885F846E847D848C84B0
:103A50009B84AA84B984C884DF80EE80FD800C81B9
:103A60001B81AA81B981CE0FD11D0FB6F894DEBF9C
:103A70000FBECDBFED010895A1E21A2EAA1BBB1BFC
:103A8000FD010DC0AA1FBB1FEE1FFF1FA217B3072A
:103A9000E407F50720F0A21BB30BE40BF50B661F40
:103AA000771F881F991F1A9469F760957095809504
:103AB00090959B01AC01BD01CF010895A29FB0017B
:103AC000B39FC001A39F700D811D1124911DB29F52
:103AD000700D811D1124911D08955058BB27AA27F0
:103AE0000E94851D0C94991C0E948B1C38F00E942A
:103AF000921C20F039F49F3F19F426F40C94881C92
:103B00000EF4E095E7FB0C94821CE92F0E94AA1C9E
:103B100058F3BA17620773078407950720F079F402
:103B2000A6F50C94CC1C0EF4E0950B2EBA2FA02D0C
:103B30000B01B90190010C01CA01A0011124FF275A
:103B4000591B99F0593F50F4503E68F11A16F04055
:103B5000A22F232F342F4427585FF3CF4695379554
:103B60002795A795F0405395C9F77EF41F16BA0B19
:103B7000620B730B840BBAF09150A1F0FF0FBB1FC7
:103B8000661F771F881FC2F70EC0BA0F621F731F10
:103B9000841F48F4879577956795B795F7959E3F6D
:103BA00008F0B0CF9395880F08F09927EE0F9795FE
:103BB000879508950E94EE1D0C94991C0E94921CFA
:103BC00058F00E948B1C40F029F45F3F29F00C94C0
:103BD000821C51110C94CD1C0C94881C0E94AA1CB0
:103BE00068F39923B1F3552391F3951B550BBB272C
:103BF000AA2762177307840738F09F5F5F4F220F71
:103C0000331F441FAA1FA9F335D00E2E3AF0E0E867
:103C100032D091505040E695001CCAF72BD0FE2FB1
:103C200029D0660F771F881FBB1F26173707480745
:103C3000AB07B0E809F0BB0B802DBF01FF279358FD
:103C40005F4F3AF09E3F510578F00C94821C0C9423
:103C5000CD1C5F3FE4F3983ED4F386957795679546
:103C6000B795F7959F5FC9F7880F911D9695879532
:103C700097F90895E1E0660F771F881FBB1F621751
:103C800073078407BA0720F0621B730B840BBA0B0F
:103C9000EE1F88F7E09508950E94531E6894B111B5
:103CA0000C94CD1C08950E94B21C88F09F5798F088
:103CB000B92F9927B751B0F0E1F0660F771F881F31
:103CC000991F1AF0BA95C9F714C0B13091F00E944B
:103CD000CC1CB1E008950C94CC1C672F782F88275A
:103CE000B85F39F0B93FCCF3869577956795B39572
:103CF000D9F73EF490958095709561957F4F8F4FE1
:103D00009F4F08950E94F11B08F48FEF0895FA0168
:103D1000EE0FFF1F309621053105A1F161157105E8
:103D200061F48038BFE39B0749F1689490388105BE
:103D300061F08038BFEF9B0741F099234AF5FF3FC0
:103D4000E1053105210519F1E8940894E795D901B9
:103D5000AA2329F4AB2FBE2FF85FD0F310C0FF5F6A
:103D600070F4A695E0F7F73950F019F0FF3A38F4FF
:103D70009F779F930DD00F9007FC9058089546F0C1
:103D80000C94881C60E070E080E89FE308954FE7A2
:103D90009F775F934F933F932F930E94821F2F91A2
:103DA0003F914F915F910E94151C0C94DF1E29F4E6
:103DB00016F00C94821C0C94CC1C0C94881C0E9451
:103DC000B21CA8F39638A0F707F80F92E8942BE3FB
:103DD0003AEA48EB5FE70E942B1C0F920F920F927A
:103DE0004DB75EB70F920E94CA1FE8E6F0E00E944E
:103DF000111F4F915F91EF91FF91E595EE1FFF1F0E
:103E000049F0FE57E0684427EE0F441FFA95E1F7AA
:103E10004195550B0E94441F0F9007FE0C94381FCC
:103E20000895DF93CF931F930F93FF92EF92DF924A
:103E30007B018C01689406C0DA2EEF010E94281CD9
:103E4000FE01E894A5912591359145915591A6F3F0
:103E5000EF010E94851DFE019701A801DA9469F720
:103E6000DF90EF90FF900F911F91CF91DF91089518
:103E70009B01AC0160E070E080E89FE30C94DA1DE8
:103E80000C94821C0C94FE1F0E94B21CD8F3992340
:103E9000C9F3940F511DA3F39150504094F059F081
:103EA000882332F0660F771F881F91505040C1F76A
:103EB0009E3F51052CF7880F911D9695879597F990
:103EC00008955F3FACF0983E9CF0BB2786957795B0
:103ED0006795B79508F4B1609395C1F7BB0F58F794
:103EE00011F460FFE8CF6F5F7F4F8F4F9F4FE3CF9D
:103EF0000C94CD1C16F00C94FE1F0C94881C689436
:103F00000C94821C0E94B21CA8F39923C1F3AEF357
:103F1000DF93CF931F930F93FF92C92FDD27882341
:103F20002AF02197660F771F881FDAF720E030E02C
:103F300040E85FEB9FE3883920F0803E38F021961F
:103F40008F770E946E1DE0E9F0E004C00E946E1DB4
:103F5000EDEBF0E00E94111F8B01BE01EC01FB2E86
:103F60006F5771097595771F880B990B0E94B61BC7
:103F700028E132E741E35FE30E94281CAF2D98015E
:103F8000AE01FF900F911F91CF91DF910E94851D8F
:103F90000C94991CFA01DC01AA0FBB1F9B01AC0118
:103FA000BF5728F4222733274427507820C0B75121
:103FB00090F4AB2F0024469537952795011CA395C7
:103FC000D2F3002071F0220F331F441FB395DAF3B0
:103FD0000ED00C946D1D61307105A0E88A07B946BA
:103FE00030F49B01AC0166277727882790783096BC
:103FF00021F0208331834283538308959F3F31F022
:10400000915020F4879577956795B795880F911D06
:104010009695879597F90895DB018F939F930E945A
:10402000F21CBF91AF91A29F800D911DA39F900D97
:10403000B29F900D1124089597FB072E16F400945B
:1040400007D077FD09D00E94302007FC05D03EF450
:10405000909581959F4F0895709561957F4F089534
:10406000AA1BBB1B51E107C0AA1FBB1FA617B7079E
:1040700010F0A61BB70B881F991F5A95A9F78095BA
:104080009095BC01CD010895EE0FFF1F0590F491AE
:10409000E02D09940F931F93CF93DF938230910506
:1040A00010F482E090E0E091E606F091E70630E05F
:1040B00020E0B0E0A0E0309799F42115310509F433
:1040C0004AC0281B390B24303105D8F58A819B81E1
:1040D0006115710589F1FB0193838283FE0111C093
:1040E000408151810281138148175907E0F0481738
:1040F000590799F4109761F012960C931297139642
:104100001C933296CF01DF91CF911F910F910895AB
:104110000093E6061093E706F4CF2115310551F020
:104120004217530738F0A901DB019A01BD01DF01F5
:10413000F801C1CFEF01F9CF9093E7068093E6062F
:10414000CDCFFE01E20FF31F8193919322503109ED
:1041500039832883D7CF2091E4063091E506232BBD
:1041600041F420910801309109013093E506209334
:10417000E40620910601309107012115310541F433
:104180002DB73EB740910A0150910B01241B350B0E
:10419000E091E406F091E506E217F307A0F42E1B88
:1041A0003F0B2817390778F0AC014E5F5F4F24179B
:1041B000350748F04E0F5F1F5093E5064093E40625
:1041C000819391939FCFF0E0E0E09CCFCF93DF937A
:1041D0000097E9F0FC01329713821282A091E60663
:1041E000B091E706ED0130E020E01097A1F42081C6
:1041F0003181820F931F2091E4063091E506281744
:10420000390709F061C0F093E506E093E406DF9119
:10421000CF910895EA01CE17DF07E8F54A815B8167
:104220009E0141155105B1F7E901FB83EA834991EC
:104230005991C40FD51FEC17FD0761F4808191815E
:104240000296840F951FE901998388838281938167
:104250009B838A83F0E0E0E012968D919C91139706
:104260000097B9F52D913C911197CD010296820FDF
:10427000931F2091E4063091E5062817390739F697
:10428000309751F51092E7061092E606B093E506D6
:10429000A093E406BCCFD383C28340815181840FB5
:1042A000951FC817D90761F44E5F5F4F88819981C8
:1042B000480F591F518340838A819B819383828356
:1042C0002115310509F0B0CFF093E706E093E6063B
:1042D0009ECFFD01DC01C0CF13821282D7CFB0E0A8
:1042E000A0E0E5E7F1E20C94071D8C01009751F482
:1042F000CB010E944A208C01C801CDB7DEB7E0E1B6
:104300000C94231DFC01E60FF71F9C01225031097C
:10431000E217F30708F49DC0D901CD91DC91119704
:10432000C617D70798F0C530D10530F3CE010497F2
:104330008617970708F3C61BD70B2297C193D19313
:104340006D937C93CF010E94E620D6CF5B01AC1A1F
:10435000BD0A4C018C0E9D1EA091E606B091E706A9
:10436000512C412CF12CE12C109731F58091E40671
:104370009091E5068815990509F05CC04616570628
:1043800008F058C08091060190910701009741F410
:104390008DB79EB740910A0150910B01841B950B7C
:1043A000E817F90708F055C0F093E506E093E40636
:1043B000F90171836083A0CF8D919C911197129622
:1043C0006C90129713967C901397A815B90559F520
:1043D0006C0142E0C40ED11CCA14DB0420F1AC0114
:1043E0004A195B09DA011296159780F0628273828E
:1043F00051834083D9016D937C93E114F10471F0F2
:10440000D7011396FC93EE93129776CF22968C0FDA
:104410009D1FF90191838083F301EFCFF093E706AD
:10442000E093E60669CF4816590608F42C017D0191
:10443000D3019ACFCB010E944A207C01009749F01A
:10444000AE01B8010E942C22C8010E94E62087011B
:1044500053CF10E000E050CFFB01DC0102C001901F
:104460000D9241505040D8F70895FB01DC010190B6
:104470000D920020E1F7089511E0C2E2D1E004C0FE
:10448000FE010E9444202196C332D107C9F7F89457
:02449000FFCF5C
:104492000100CD8B01000000E80680000000000052
:1044A20029028901B6017602E701C501D90100009E
:1044B20000002008F3076A088F034D01E007D107C7
:1044C20000000000900389016A088F03EC030404D2
:1044D20077030D0A002F2F2F2F2F2F2F2F2F2F2F44
:1044E2002F2F2F2F2F2F2F2F2F2F2F2F2F2F2F2FDA
:1044F2002F2F2F2F2F2F2F2F2F2F2F2F2F2F2F2FCA
:104502002F2F2F2F2F2F2F002F2F20202020202042
:104512002020564152494F4D45544F2057494E4451
:10452200464C59205354415254204750532056313F
:104532002E302020202020202F2F002F2F2020441B
:104542004553454E564F4C5649444F20504F5220EA
:10455200524F445249474F2053494C5641204445FB
:104562002043415256414C484F20202F2F002F2FDD
:10457200202020202020202020202020434F4E5485
:1045820041544F20283036342939383432302D37CF
:1045920036303120202020202020202020202F2FC4
:1045A200002F2F202020202020202020202020200B
:1045B20020202020202020202020202020202020F9
:1045C20020202020202020202020202020202020E9
:1045D200202F2F002F2F20202020202020202020BD
:1045E200202020205757572E57494E44464C592ECB
:1045F200434F4D2E425220202020202020202020D8
:10460200202020202F2F002C004C4B384558310001
:0446120024002A0056
:00000001FF
