:020000040000fa
:080000000002040000000000f2
:020000040000fa
:100008009a0200009a0200009a0200009a02000078
:100018009a0200009a0200009a0200009a02000068
:100028009a0200009a0200009a0200009a02000058
:100038009a0200009a0200009a020000c62b0000f3
:10004800c23b00009a0200009a020000b04500007e
:100058009a0200009a0200009a0200009a02000028
:100068009a0200009a0200009a020000643200001e
:100078009a0200009a0200009a0200009a02000008
:100088009a0200009a0200009a0200009a020000f8
:100098009a0200009a020000824700009a020000bb
:1000a8009a0200009a0200009a0200009a020000d8
:1000b8009a0200009a0200009a0200009a020000c8
:1000c8009a0200009a0200009a0200009a020000b8
:1000d8009a0200009a0200009a0200009a020000a8
:1000e8009a0200009a0200009a0200009a02000098
:1000f8009a0200009a0200009a0200009a02000088
:100108009a0200009a0200009a0200009a02000077
:100118009a0200009a0200009a0200009a02000067
:100128009a0200009a0200009a0200009a02000057
:100138009a0200009a0200009a0200009a02000047
:100148009a0200009a0200009a0200009a02000037
:100158009a0200009a0200009a0200009a02000027
:100168009a0200009a0200009a0200009a02000017
:100178009a0200009a0200009a0200009a02000007
:100188009a0200009a0200009a0200009a020000f7
:100198009a0200009a0200009a0200009a020000e7
:1001a8009a0200009a0200009a0200009a020000d7
:1001b8009a0200009a0200009a0200009a020000c7
:1001c8009a0200009a0200009a0200009a020000b7
:1001d8009a0200009a0200009a0200009a020000a7
:1001e8009a0200009a0200009a0200009a02000097
:0801f8009a0200009a020000c7
:020000040000fa
:100208009a0200009a0200009a0200009a02000076
:100218009a0200009a0200009a0200009a02000066
:100228009a0200009a0200009a0200009a02000056
:100238009a0200009a0200009a020000c62b0000f1
:10024800c23b00009a0200009a020000b04500007c
:100258009a0200009a0200009a0200009a02000026
:100268009a0200009a0200009a020000643200001c
:100278009a0200009a0200009a0200009a02000006
:100288009a0200009a0200009a0200009a020000f6
:100298009a0200009a020000824700009a020000b9
:1002a8009a0200009a0200009a0200009a020000d6
:1002b8009a0200009a0200009a0200009a020000c6
:1002c8009a0200009a0200009a0200009a020000b6
:1002d8009a0200009a0200009a0200009a020000a6
:1002e8009a0200009a0200009a0200009a02000096
:1002f8009a0200009a0200009a0200009a02000086
:100308009a0200009a0200009a0200009a02000075
:100318009a0200009a0200009a0200009a02000065
:100328009a0200009a0200009a0200009a02000055
:100338009a0200009a0200009a0200009a02000045
:100348009a0200009a0200009a0200009a02000035
:100358009a0200009a0200009a0200009a02000025
:100368009a0200009a0200009a0200009a02000015
:100378009a0200009a0200009a0200009a02000005
:100388009a0200009a0200009a0200009a020000f5
:100398009a0200009a0200009a0200009a020000e5
:1003a8009a0200009a0200009a0200009a020000d5
:1003b8009a0200009a0200009a0200009a020000c5
:1003c8009a0200009a0200009a0200009a020000b5
:1003d8009a0200009a0200009a0200009a020000a5
:1003e8009a0200009a0200009a0200009a02000095
:0803f8009a0200009a020000c5
:020000040000fa
:100400008fe920000eff20000e0188000000000090
:10041000000020000000e000020032000001200087
:10042000200288000c000700c0c02300010020004b
:1004300011000700000020000000e0000200320070
:100440000000020000000000ac0e020000000000ee
:100450000040da000000fe004440a900c032200045
:100460000000e0000300320000002000a00188002e
:100470004440a80000000600910188008000780038
:100480000000eb0015003700e280400032a0b4000d
:100490009101ba00e280400032a0b4009102ba009b
:1004a000e280400032a0b4000002eb00472bde00e7
:1004b000f507b200602ce10004003a000059eb009f
:1004c0008301e900fdff3e00040037006128e100e0
:1004d000010032000082eb00040007001101ba00a5
:1004e0000200e000e8ff3a00000006003159ba00bf
:1004f0008301e9000c0032002159ba008301e900b0
:10050000080032000400e00003003a00e2804000ee
:1005100032a0b400f5ff370011d9ba008301e90019
:10052000faff3a008100e800e180400032a0b40008
:10053000000006000040da000000fe0003f0a20008
:10054000889fbe008a9fbe008c1f78002a0107008a
:10055000310133006450e1004f0032006420e100bb
:100560005200320003826c0007003b000905d000f6
:100570000306d000820f54000c065d000200390013
:100580000200320089017800030678008582550058
:1005900004003d000003fd008103fd008502ea0028
:1005a0008b854200840f720002003b006000100047
:1005b000e08018006011b8000005eb007a28e10027
:1005c0000a00390006007800c75ddd00f707b200b9
:1005d000878075002d003700828171000a01780044
:1005e000610560008180d1000080d3008502e900b0
:1005f000f9ff3b00060440008784480002003b00ee
:1006000060041400e0841c000988a3000700320085
:100610008a81710082817100610164008904d100c6
:100620000884d3008b05e800170037000978a30081
:1006300013003a000b00e000130034008b05e900c2
:100640000804440089844c000a4474000978a3001b
:100650000d003a000b00e000070034008b05e900b4
:100660000804440089844c0001003a000b0020007b
:100670000978a300f7ff32000001eb000200370009
:10068000828171000a017800a00007000cf0a70029
:1006900001f0a000e90037006420e10002003a0008
:1006a000838f6c00e90033000801be000200be0029
:1006b000e2003700889fbe008a9fbe008c1f780032
:1006c000cd000700d400330003866c006450e100c5
:1006d0002e0032006420e100330032006150e1005e
:1006e0002f0032006120e100310032008585550085
:1006f000eb07b000090020000804200005003700c7
:100700000804440089844c000a00310006034300b9
:1007100087834b000001530081815b00f8ff3300a9
:100720000203be000800a0000804440089844c00b5
:10073000f6ff3900c639dd00830173000100320085
:10074000130020008904d1000884d3000998a30075
:10075000050032000800a7000300a0008904d100b2
:100760000884d3008b05e8008904d1000884d300f5
:100770000001eb000281d2006400070001f0a1003b
:100780000cf0a70001f0a000ac0037006420e100ed
:10079000ae0032000801be000200be00f7ff3700c5
:1007a0006120e100a90032006000b800f3ff3700cb
:1007b0000000200001f82700f0ff3700839f680049
:1007c0000100e00002003d0060001000e080180021
:1007d0000300e00002003d0060011100e08119000b
:1007e000e90107004f00e00002003b00600010003c
:1007f000e08018000000060014002000b40237005a
:10080000f4ff2f00b20237000001be0065000700b0
:100810000470a70003f0a1006509b10016003200c2
:100820000d0035006828e10006003500f0ff2f00bc
:10083000f1ff27000300e00013003b000100280047
:100840000000050000004000818048008502e900aa
:10085000fcff3a0008003700f88f420002003c001d
:100860008000eb00000005008100d1000080d30073
:100870008502e800fcff3a000300e00002003b00b4
:1008800060001000e0801800000006000001be00bb
:10089000440007000470a70003f0a10003f8a300c0
:1008a00013003a006509b10010003200090035005c
:1008b0006928e10002003500010028000000050061
:1008c00000004000818048008502e900fcff3a00fa
:1008d00000000600f88f4200050035008100d100bd
:1008e0000080d3008502e800fcff3a00000006000b
:1008f0008000eb00000005004f89de0082017800d7
:100900008e0237006011b8009c0237008100200081
:10091000618055000b003d000b00200061fe2f00a0
:100920000100e1001d00340082817100610164005a
:100930008904d1000884d3000000e800faff3a00df
:10094000710020006100640003007000020060007c
:100950000900320061044400e0844c000988a500cd
:10096000050032008b05e8006808e10002003a004b
:100970008904d1000884d300f20f20000258e1005e
:1009800005003d00c75ddd00f907b20089807500f4
:1009900008007800000006000bf827008b007800a4
:1009a00000000500c70ade00f107b200f50fb20033
:1009b00008003200e1cf4200020032000170a000c6
:1009c00024000500810f70000100320004080500ba
:1009d00044000500810f700002003a001400050079
:1009e0008502e9000000400081c04800fcff3b0098
:1009f0000170a000240005000004be00e9ff07000c
:100a00000003be000405be000200be00e5ff0700b3
:100a1000844f7500000006000200be006450e10033
:100a2000050036006420e100020036000968a300da
:100a300001003a000800be000160a0004f067800e7
:100a40004f05be004f04be0000000600f0ff2f005f
:100a5000f1ff2700f9ff3700889fbe008a9fbe0084
:100a60008c1f7800e4ff0700ebff330003866c0067
:100a70006450e100240032006420e10027003200cd
:100a80006150e100220032006120e10021003200cb
:100a90008b854200eb07b1000134b800003ab80082
:100aa0000804420089844a00013ab8000030b800c6
:100ab0008880400009014a00040033000000400023
:100ac00081804800020149008b05e900c909dd0069
:100ad000830170000100320013002000c814de0002
:100ae0004814dd004709de001200b200c808de002d
:100af0000884700085ff070001f0a1000cf0a7003a
:100b000001f0a000cdff37006120e100cfff3200ef
:100b10000801be000200be00f7ff37006150e1008f
:100b2000fcff3a00c9ff37000c00fa00889fbe00a6
:100b30008a9fbe008c9fbe00afff07000206be006a
:100b4000840578000200be0002002000b901070001
:100b500005003a008b02b30012002000b501070027
:100b600001003a00f8856d000c01be00c6000700c8
:100b70000800be009b0032000b08a3009e003a0054
:100b80000df0a7000be0a00009f0a7000bf0a000fb
:100b900009f0a1000801be00bb0007000bf0a60091
:100ba0009500320001003c000bd0a0008acf7500f8
:100bb000b20033006000b8006250e10099003900d3
:100bc000a1003e000b28a300a2003a000bf8a300ee
:100bd000060032000b58a300a70032000801be0037
:100be000a90007000800be00940032000800be0003
:100bf000210107000004be00050578000bf0a700e6
:100c00000b30a6000bf0a1005b079800324f2000cc
:100c100053f32300f8fe070005003d000800be0066
:100c200012002000040207000004be000a05e900cb
:100c30004a0798006150b9002fff0700008fbe00df
:100c40000c01be0084ff0700effe0700300798008c
:100c50000100e00002003d0060001000e08018008c
:100c6000f2ff2700820f5000e08f580064003e0022
:100c70000c00be00e4fe070020079800f2072000e9
:100c8000820f5000e08f580005003c0012f82f0042
:100c9000f3ff2f00820f5000838f580009003d00a2
:100ca0000a00e0000300320001003c000201ea00fb
:100cb000020578006000b800200798003a07980005
:100cc000190037003e0090006100b9000aff0700dc
:100cd000809fbe000c00be004109dd004811de000f
:100ce0007208b100530107000005be001e01be00de
:100cf00059ff07004f01be0010fe0700809fbe0095
:100d00000c00be000a01be000cfe07001e01be0062
:100d100051ff07004f01be0009fe07008221270096
:100d200013f323004cff07000005be002e009000c7
:100d30006100b900f0fe070001f0a2000c01be0046
:100d4000fffd07000006be000800be00dc01070032
:100d50000c01be0040ff07000a01be00f8fd0700bd
:100d6000809fbe004a0007002e0590000af0a700f1
:100d70000a05ea00050037000800be000801be00b1
:100d800035ff07000004be000c00be000801be00d5
:100d90000a00a70030ff07000006be000a05d100c8
:100da000f5ff3a005e01900002e0a6000300370064
:100db0000001be00360007003efe07000004be0032
:100dc0004f00be00b90007000801be0022ff070067
:100dd0003e01900098010700de0590000bf0a7008f
:100de00001f0a2004f06be004f05be004f04be003a
:100df0000080fa000000060025000700f9ff370018
:100e0000270007006000b8000bd0a7000bc0a000af
:100e10000be0a7000bc0a2000bc0a70001f8270041
:100e2000f0ff37000df8a300020032001e0007009b
:100e3000190007000bf8a300eaff32000b30a700ef
:100e400001f0a200e7ff37000df8a300f9ff3a0018
:100e5000f7ff37000801be000b000700e6ff320075
:100e600001003c000df0a2006000b8000df0a700ea
:100e700009000700dbff37000b000700f1ff270028
:100e8000f0ff2f00d7ff3700010007005afe3700a0
:100e900001f823000000050001f82700000005000c
:100ea000200220000100370010022000b0748800ea
:100eb00000000600889fbe008a9fbe008c1f78003d
:100ec0000004be00b7fe07000478a30026003a0025
:100ed0006120e1002500320009f8a30025003a0056
:100ee0006420e10021003200f507b1000508a300ed
:100ef0000200320000004000818048006044b800d9
:100f00000310200002002000000040008180480003
:100f10000805440089854c000a0541008b8549007d
:100f20000a0550008b855800030033000a00be00fc
:100f300002047400838474008301d1000281d30011
:100f4000830f7100f0ff3a008904d1000884d300b8
:100f50006001490082017800c1adde00fb07b000ee
:100f60006afe0700b5fe37000960a0000800be0059
:100f7000b2fe370012022000b2748800f0ff2f008a
:100f8000f1ff2700adfe37006022b8000602200006
:100f90000000d0008180d2000482d2008582d2007d
:100fa0000000a0000202520083825a0003003100b8
:100fb0000202420083824a000000a1000603e90009
:100fc000f3ff3a0000000600efff07000400be0038
:100fd00000000600889fbe008a9fbe008c1f78001c
:100fe0000006eb00e00f5000e08f5800e00f5900c2
:100ff000e08f590007003d006044b8006055b8001c
:101000001c0020000000540081805c0002015d0093
:1010100083815d00e00f5200e08f5a00e00f5b001b
:10102000e08f5b0007003d006044b8006055b800e9
:101030000c00a2000402540085825c0006035d00df
:1010400087835d0075010700e00f5600060032003f
:101050006022b8006033b8000000520081805a005e
:1010600002015b0083815b004f0678004f05be00e4
:101070004f04be00000006000003be0049fe07004a
:101080006220e100020032000600be0005000500fb
:10109000e507b100f107b20004f02300848070007e
:1010a00007f0a70001f0a00024000500889fbe0003
:1010b0008a9fbe008c9fbe000004be0039fe070060
:1010c0000800be006420e10048003e0055003200e8
:1010d00072212700132b2400c9fd070047003c00a4
:1010e0000800be00c2ec2800e32c2c00c2fd070063
:1010f000470035000800be0001f0a10002002000fa
:1011000003382300bcfd0700430035000800be0083
:10111000b2a32a0083fb23004ffe07000200200039
:1011200003f0230001f0a70003f0a00004fd070076
:10113000b5fd07000005be00effd070001f0a200ad
:101140000006be000200280013f3230042fe070041
:101150000801be00fafc0700809fbe000c00be0024
:1011600032082800e3952b003bfe07004f01be002c
:10117000f3fc07000006be000001be0036fe0700bb
:10118000809fbe004241250083b8230032fe070045
:101190000200200003e82300e9fc07000c01be0068
:1011a0002dfe07000006be004f00be00f2f92b0026
:1011b000c3d4230028fe07000200200003f0230010
:1011c000dffc07000c01be00dcfc07000001be00d4
:1011d0000c00be0037fd07000200200003f02300d2
:1011e000d7fc070061014500930007004f06be00d1
:1011f0004f05be004f04be000000060001f82700a6
:101200000000200022022000b2748800f7ff37009f
:101210006000b800fbff370001f823000000200049
:10122000f2ff370009f8a300f0ff32006000b800b9
:10123000eeff3700889fbe008a9fbe000003be00fd
:10124000d8fd070085057800828152000200200049
:101250006220e10004003a00f307b1000400350009
:101260007718e100040035000600be0014003700c6
:101270006000b8000f003700f50f2000faff2f00c4
:101280008502d1000a85d3008301e900fcff3b0001
:101290008184620000046500890f7400f2ff32004f
:1012a0008582ea000a85ea00818462000004650004
:1012b00096fd070007f0a70001f0a0000081eb00f9
:1012c0000200e0004f05be004f04be000000060013
:1012d000889fbe008a9fbe00841f7800c6fd07005d
:1012e0004f00780011003300f0ff2f00838f6c0057
:1012f00006003b00040565000a00a700080037004f
:1013000009f0a6001000200008003700820f5400ea
:10131000838f5c00030039001000200001003e00b4
:101320000000200009f0a7000000ea004f05be0001
:101330004f04be000000e00000000600881f780097
:10134000030478000300e00007003d006000100087
:10135000e080180060011900e081190002003b00e4
:1013600001f02d00030037000400070008f0a7007b
:1013700001f0a0004f04780000000600889fbe0026
:101380008a9fbe0000827000040271000482710016
:10139000260032000004be000200be006011b8004a
:1013a0006b092000950220000182cf000a0039005d
:1013b0000541b1000082cf00070039000541b100ae
:1013c0000982cf00040039000541b1000882cf0036
:1013d000010039000541b1000542520012003200ff
:1013e0000a003b0082817100610164008100d1002c
:1013f0000080d3008984d3000884d3008b05e800e3
:101400000442e800f7ff3a000700370008044400f0
:1014100089844c0000004800818048008b05e90069
:101420000442e900f9ff3a0038fd07004f05be000d
:101430004f04be00000006000003be0059fd070077
:101440006220e100020032000600be00000006003b
:1014500085024100e30f20000328e10005003c0065
:10146000a3fe2f000328e10007003d000500200037
:1014700001003700f50f200020022000b074880022
:101480006000b8000800370013002000838152007c
:1014900005003d008100d1000080d3008301e800f9
:1014a000fcff3a0005002000c72add00f107b2006a
:1014b0008580700007f0a70001f0a0000000060082
:1014c000889fbe008a9fbe008c9fbe00eafe070078
:1014d000850478000005be006420e10049003e005c
:1014e0006220e10003003200090035000bf8a30080
:1014f000440032000bf8a300080032001002200064
:10150000b0748800f0ff2f00f1ff27003d00370086
:1015100001f82f00000020003a0037003d000700ce
:1015200006fc07000006be000a00be00324f200085
:1015300053f32300b2fc0700060034000c00be0089
:1015400034000700fdfb07000006be000a00be00d5
:10155000020037008904e9000c00be002d000700de
:101560003dfd07002b000700f5fb07000001be0052
:101570000c00be004ffc07000005be000001be00cd
:1015800035fd07000006be00a2f32300430d2c002a
:10159000ebfb0700809fbe000c00be00d2e32700db
:1015a000d3f02b002cfd07004f01be0041fc0700cb
:1015b0000006be000a01be0027fd07000a01be00aa
:1015c000dffb07000006be006148b900cafc070047
:1015d0000005be0032082800e3952b001efd070021
:1015e0000c01be00d6fb07000006be000a00be00cc
:1015f0000200280013f3230017fd07000c01be00b2
:10160000cffb07004f06be004f05be004f04be00d3
:101610000000060003f0230002000500889fbe00c2
:101620008a9fbe008c9fbe000404b8000506b80067
:101630008904460060854e000606b8000a0546008b
:10164000e0854e000706b8008b054600040eb80082
:10165000890446000a854e00e0854d00050eb8005d
:101660000a0546008b854e00060eb8008b05460025
:101670000416b8000a0546008b854e000516b80012
:101680008b054600041eb8008b0546000800be000e
:101690000a01be004f06be004f05be004f04be004b
:1016a0000000060000027800b1427800055a780078
:1016b000e0cf5200fcff3a00000006000b003700ac
:1016c00030427800e04f5200030032000201e9008e
:1016d000b14f5200050032000480fb0095427800b3
:1016e0008582fb00050050000000060081027800a2
:1016f000e00f5100f2ff3a000200780000000600ff
:020000040000fa
:101700005a000000426100007474000020000000d4
:1017100042410000542000000054000072690000a3
:1017200067670000657200002050000069740000c7
:101730006f74000020430000616c000069620000cb
:1017400072610000746900006f6e00000d0a0000f5
:101750000041000075640000696f00002061000016
:101760006e64000020420000757a00007a65000077
:1017700072200000546f0000676700006c65000075
:10178000204f0000666600000d0a000000410000c6
:1017900075640000696f0000206100006e64000045
:1017a00020420000757a00007a6500007220000077
:1017b000546f0000676700006c650000204f000058
:1017c0006e0d00000a000000417500006469000011
:1017d0006f200000546f0000676700006c65000018
:1017e000204f0000666600000d0a00000041000066
:1017f00075640000696f0000205400006f670000ee
:10180000676c0000652000004f6e00000d0a0000ac
:10181000004200004656000020000000426c00001c
:1018200075650000466c000079560000617200008a
:10183000696f00005f00000055530000425f000028
:10184000005400004d5000002000000050520000e5
:10185000532000000042000046520000200000001b
:101860005f5000005253000020000000424600007c
:10187000562c0000002c00000042000046580000da
:101880002c0000004c4b000038450000583100008f
:101890002c0000002c3900003939000039390000d3
:1018a0002c0000004c58000057500000302c000065
:1018b0004e2c0000002c00002c2c00002c2c0000d2
:1018c0002c2c00002c0000004253000044000000bb
:1018d000524e0000430000002424000024000000b9
:1018e000522c0000310a0000004200005655000052
:1018f0000042000056440000004200005354000023
:10190000005400004d5000000052000053540000ed
:10191000005200005358000000240000504d000009
:10192000544b000030300000302a000033320000f9
:101930000d0a000000240000504d0000544b000030
:1019400031300000342a0000333700000d0a000057
:10195000005300004c500000005300004c580000a1
:1019600000420000544e000000420000464b0000c0
:1019700000420000464c00000042000046500000bb
:1019800000420000414300000042000041440000ca
:101990000042000054480000004200004651000090
:1019a0000042000046490000004200005351000080
:1019b000004200005349000000420000465300006e
:1019c000004200004f4c0000004200004f53000056
:1019d00000420000524d000000420000564c000042
:1019e000004200004f4d0000004200004f46000042
:1019f0000042000051480000004200005242000036
:101a00000042000050540000004200005552000007
:101a1000004200004c44000000420000523200002e
:101a200000420000485600000042000048540000f8
:101a300000420000425a0000004200005a540000d8
:101a4000004200005454000000420000534d0000ca
:101a500000420000555000000042000053540000b6
:101a600020420000464b000020420000464c00008f
:101a70002042000046500000204200004143000088
:101a80002042000041440000204200005448000071
:101a9000204200004651000020420000464900005c
:101aa0002042000053510000204200005349000032
:101ab0002042000046530000204200004f4c00002e
:101ac000204200004f53000020420000524d000011
:101ad00020420000564c0000204200004f4d000004
:101ae000204200004f460000204200005148000004
:101af00020420000524200002042000050540000ea
:101b00002042000055520000204200004c440000da
:101b100020420000523200002042000048560000df
:101b2000204200004854000020420000425a0000b9
:101b3000204200005a54000020420000534d000093
:101b40002042000055500000204200005454000084
:101b50000a00000053450000540000004d530000ef
:101b600035360000313100002000000041750000d2
:101b7000746f00002041000075640000696f000070
:101b8000206100006e64000020420000757a0000b1
:101b90007a65000072200000546f00006767000043
:101ba0006c650000204f00006e2000003e00000029
:101bb0006d2f0000730d00000a0000004e6f000042
:101bc000206d00006f760000656d0000656e0000fe
:101bd00074200000667200006f6d0000200000009d
:101be0006d0d00000a0000004c6f0000772000001f
:101bf000426100007474000065720000790d0000fd
:101c00000a0000005f420000415400002000000074
:101c1000245000004d5400004b31000036310000cc
:101c20002c3000002a320000380d00000a000000ad
:101c3000536c000065650000706900006e6700006d
:101c40002855000041520000542900002e2e0000ab
:101c50002e0d00000a000000536c000065650000b6
:101c6000706900006e6700002e2e00002e0d00002f
:101c70000a0000005368000075740000646f0000e3
:101c8000776e00002e2e00002e0d00000a000000ce
:101c90004f520000462000004275000066660000ba
:101ca0006572000020460000756c00006c0d00009d
:101cb0000a00000041640000642000004f52000050
:101cc0004620000066720000657100003a000000c6
:101cd000206d0000733a000000200000623a00000e
:101ce00000200000653a0000000d00000a0000001e
:101cf0004e65000078740000204f0000524600003e
:101d00002066000072650000713a000000000000cb
:101d1000510000000000000080bf00000000000033
:101d2000803f00000e760000d7450000506900009b
:101d3000746f00007420000049320000432000004e
:101d400065720000726f0000720d00000a00000052
:081d50000d0a00000000000074
:020000040000fa
:101d58000200fa00de070700ccc2a900cca2a90045
:101d6800043a80004622de00614262000482fb00e1
:101d7800610262004322dd002616800075ff2f00f5
:101d88008502630005027200241688000002eb0039
:101d9800043a8800c8080700040807009a020700e8
:101da800c602070014c0b3000002fd0044eeb700ed
:101db8000002fd002c18070000b8280021150700b4
:101dc800a1040700c462a800551680000410200072
:101dd80004826200e00f520030003a00a7090700b1
:101de80000002800b15b24009f0007002600370090
:101df800241680006202620004f0a7000402ea00d0
:101e08000402e9004f22de00044278000482fb004d
:101e1800610262000402420026168000d5ff2f00ee
:101e28008502630005027200241688000050230012
:101e3800c1002000bf1c070098020700241680007c
:101e48006202620004f0a7000402ea000402e9004a
:101e58004f22de00044278000482fb006102620027
:101e68000402420026168000d5ff2f008502630079
:101e7800050272002416880000502300c1002000cb
:101e8800ac1c07008d0207005516800004102000c6
:101e980004826200e00f5200d5ff3200c422a8007d
:101ea800da0d070000002000a15724006e0007008b
:101eb8007a02070000202100a10720009d1c0700ce
:101ec8007e020700ef07070020b82800ca140700a1
:101ed800a472800004007800b1140700d0c0b300d9
:101ee80094140700a0c0b3009214070080b828001b
:101ef800c1140700a472800004007800311507009f
:101f0800d0c0b3008b140700a0c0b3008914070029
:101f180000002000a14f24005300070004e1200026
:101f2800040f78000a00370000a026008101200075
:101f3800801c07005902070000a02600810120002c
:101f48007c1c07005d020700440620001e0f4200ab
:101f58009e027800a4728000848f5200f2ff36003f
:101f6800c4e2a800c422a90000502300c100200038
:101f7800701c070000002000a15724003a00070049
:101f88004602070000502300c1002000691c07001a
:101f98004a02070064748000e00f5200010032001a
:101fa800240007000002eb003408880011e1a800b3
:101fb8000042eb000002fd0044eeb7000002fd0005
:101fc80024e6200014427800e14f520001003a0054
:101fd8004202070064e6200014427800e14f5200f4
:101fe80001003a008d02070044e620001442780000
:101ff800e14f520001003a00e3020700e47280005a
:10200800e00f520009003200d4728000e00f520045
:102018000200320021020700010037000000000022
:10202800e4728000e00f5200fdff3a00230207002f
:10203800e3ff37000000fa00a11a07000002be0003
:10204800e00f5200e08f5a0005003a00d0b828008f
:1020580069140700401f2000010020008b1a0700a8
:102068000080fa00000006000800fa00881f7800c7
:1020780020079800310798002e029000be029000b9
:10208800048fbe0018c0b3000200200023302400d3
:102098001e00be00d6f9070000027800e00f5200cb
:1020a800010035000044eb00e04f5400030032000b
:1020b8000400200025302400048fbe001e01be004d
:1020c8000040220041af240078f907000002be005a
:1020d8000400be00ebf907000002be00040278000d
:1020e800b4728800b4728000a40c880044e4200014
:1020f80014427800e04f520004003200b4728000ad
:102108000402d100b40c880026003700e472800075
:10211800e00f520012003200b47280000402d100b5
:10212800050020000400be00f4f907000003be000b
:10213800846e8000956e80000401be000600be001b
:1021480043fa07000002be000400be00cdf90700f4
:102158000002be0004027800b40c880011003700a9
:10216800b47280000402d100050020000400be0003
:10217800e2f907000003be00446c8000556c800043
:102188000401be000600be0031fa07000002be00ce
:102198000400be00bbf907000002be00040278007c
:1021a800b40c88004f0478000080fa000000060094
:1021b8000000fa00e4e3200014427800e04f5200e7
:1021c8003b00320054748000e00f520026003200b9
:1021d80004e4200014427800e04f5200120032005c
:1021e8000042eb00040078003eeeb7000042eb002e
:1021f8000400780040eeb7006022b800446c880004
:10220800556c880044c6b3000400780042eeb7005d
:1022180090ba2800f8130700810c2000800c2000d9
:10222800340007003100370014c0b3000400780000
:102238003eeeb70014c0b3000400780040eeb700cb
:10224800846e8000956e8000446c8800556c880010
:1022580070bc2800e8130700810c2000007d2000d6
:1022680024000700210037000042eb00040078003a
:102278003eeeb7000042eb000400780040eeb700e5
:102288006022b800446c8800556c880040be280065
:10229800d913070044c6b3000400780042eeb70023
:1022a800810c2000800c2000120007000f0037006e
:1022b80014c0b300040078003eeeb700846e8000be
:1022c800956e8000446c8800556c880070bf2800ab
:1022d800c913070044c6b3000400780042eeb700f3
:1022e800810c200000fa2000020007000080fa009c
:1022f800000006000400fa00000f7800110798009b
:102308006e0107001e007800d07288009e029000bf
:10231800a4002000110009008402d80000027800ff
:10232800e47288000080fa00000006000800fa0045
:10233800889fbe006022b800048fbe0024e62000fb
:1023480014427800e04f5200160032009473800067
:10235800050020000400be0068f907000004be0064
:10236800a4738000050020000400be0063f9070084
:102378000003be00a46c8000b56c80000401be00a0
:102388000600be00b2f907000002be000401be004c
:102398000800be0068f807000002be00048fbe00f7
:1023a8006700370064e6200014427800e04f5200ce
:1023b8004a00320094738000050020000400be002b
:1023c8004ef907000004be00a47380000500200039
:1023d8000400be0049f907000003be00e46d800058
:1023e800f56d80000401be000600be0098f90700e4
:1023f8000002be000401be000800be004ef807003f
:102408000002be000404be007474800005002000b1
:102418000400be0039f907000002be000401be0036
:102428000800be0043f807000002be002407980019
:1024380035079800a66c8000b76c8000e46d8000ba
:10244800f56d80000401be000600be0039f80700e3
:102458000002be000403be00e46e8000f56e80003a
:102468000401be000600be0033f807000002be00eb
:102478000403be00e46e8000f56e80000401be0017
:102488000600be0089f807000002be00646c8800e0
:10249800756c880074748000050020000400be007c
:1024a80016f907000004be00646c8000756c80009b
:1024b8002e019000be0190000400be0064f90700e0
:1024c8000002be000401be000800be001af80700a2
:1024d8000002be00048fbe001900370044e6200049
:1024e80014427800e04f520015003200b4738000a7
:1024f800050020000400be0000f907000004be002b
:10250800c4738000050020000400be00fbf807002b
:102518000003be00a46c8000b56c80000401be00fe
:102528000600be004af907000002be000401be0012
:102538000800be0000f807000002be00048fbe00bd
:10254800e4728000e00f520006003200d47280006e
:10255800cfa2de000400be00e5f807000002be00be
:10256800048fbe001e00be00bffe07004f04be0061
:102578000080fa00000006000a00fa00889fbe00ea
:102588008a9fbe003007980041079800a66880001f
:10259800b7688000046f8000156f80000401be00da
:1025a8000600be002af907000002be0018c0b300ea
:1025b8003e019000ce0190000400be008ef8070096
:1025c80000027800e00f520001003d000044eb00db
:1025d800e04f540009003200c6688000d7688000c8
:1025e800646e8000756e80000401be000600be00a7
:1025f80017f907000002be007e0037001400200013
:10260800040f7800700037001e027800c322dd0036
:1026180044d12000048242001403be00046f8000ed
:10262800156f80000401be000600be0008f907000f
:102638000002be0018c0b3003e019000ce01900019
:102648000400be006cf8070000027800e00f52009a
:1026580001003d000044eb00e04f540059003200f7
:102668001e02e900c322dd0044d12000048242009a
:102678001403be00046f8000156f80000401be00c3
:102688000600be00f2f807000002be000401be000a
:102698003e009000ce009000a6f707000002be00a2
:1026a8000404be001e027800c322dd0044d12000cd
:1026b800048242001403be00046f8000156f80007e
:1026c8000401be000600be00e1f807000002be00db
:1026d8000405be001e02e900c322dd0044d120002b
:1026e800048242001403be00046f8000156f80004e
:1026f8000401be000600be00d5f807000002be00b7
:102708000401be000a00be008af707000002be00ee
:102718000401be000800be00e4f707000002be0086
:1027280014079800250798001e02e9004322dd00df
:10273800e402420044d12000048242001404be0096
:102748001e0278004322dd00e402420044d120004a
:10275800048242001403be001e02e9004322dd0089
:10276800e402420044d12000048242001402be0068
:102778000401be000600be006ef707000002be009e
:102788001e019000ae0190000400be00b0f80700e2
:102798000002be000401be000800be0066f7070084
:1027a8000002be000403be00646e8000756e8000e7
:1027b8000401be000600be00a5f807000002be0026
:1027c8000c0037001e0fe8001e027800e60f5200ca
:1027d8008dff3400466a8000576a8000646e80006e
:1027e800756e80000401be000600be0098f8070060
:1027f8000002be000400be004f05be004f04be002c
:102808000080fa00000006000000fa000002eb0059
:10281800840c88000002eb00940c8800b4728000dd
:102828000402d100b40c8800b4728000a40c8800a3
:10283800940c8000f401b300940c880092e1a90084
:10284800840c800004a0a00004b0a00004c0a00074
:10285800840c880091a1a900840c80000400a100c8
:102868000410a0000420a000840c8800846e80005e
:10287800956e8000446c8800556c880014c0b300c5
:10288800040078003eeeb70014c0b30004007800de
:1028980040eeb7000080fa00000006000000fa00d1
:1028a800840c80000400a1000410a0000420a000f3
:1028b800840c88000080fa00000006000000fa007e
:1028c800840c80000400a1000410a1000420a100d1
:1028d800840c88000080fa00000006000200fa005c
:1028e8000002eb00040f780043003700ebff0700fd
:1028f80024748000e00f520001003200c422a800b6
:10290800a46c8000b56c80000400be001aff0700ac
:102918000002be0002402200436f24000400be00f3
:102928004bf807000002be000400be00b4f7070021
:102938000002be00040f78000002eb00a408880023
:102948001fe1a800000000009e027800a408800093
:10295800848f52000700360024e6200014427800d5
:10296800e04f520003003200e4728000e00f520092
:10297800f5ff32001fe1a900d0ff0700c422a9001b
:10298800a46c8000b56c80000400be00fafe07004d
:102998000002be0002402200436f24000400be0073
:1029a8002bf807000002be000400be0094f70700e1
:1029b8000002be00040f78000002eb00a4088800a3
:1029c8001fe1a800000000009e027800a408800013
:1029d800848f52000700360024e620001442780055
:1029e800e04f520003003200e4728000e00f520012
:1029f800f5ff32001fe1a90024e620001442780008
:102a0800e04f520003003200e4728000e00f5200f1
:102a1800b6ff32000080fa00000006000600fa0047
:102a2800889fbe000002eb00040f78004b003700bf
:102a38009aff0700646c8000756c80000200280013
:102a4800b35324000400be0001f807000002be00d2
:102a58000400be006af707000002be000402780006
:102a68008538210004825200140798001e02900045
:102a7800cfa2de000400be009df707000004be00e0
:102a8800646c8000756c80000401be0000002000aa
:102a980001f82300a7f607000002be00020020008c
:102aa800831c24000400be00e9f707000002be00f2
:102ab80002002000030a24000400be009ef607005e
:102ac8000002be000401be000800be00f7f60700c1
:102ad8000002be000400be0049f707000002be0065
:102ae800240798002e029000040f78000002eb00e3
:102af800a40888001fe1a800000000009e027800da
:102b0800a4088000848f520003003600e47280001d
:102b1800e00f5200f9ff32001fe1a90067ff07002c
:102b28009e0290002e029000048f52000002eb00db
:102b3800a40888001fe1a800000000009e02780099
:102b4800a4088000848f520003003600e4728000dd
:102b5800e00f5200f9ff32001fe1a90064e62000ef
:102b680014427800e14f520003003a00e4728000fa
:102b7800e00f5200aeff320050ff07004f04be00c6
:102b88000080fa00000006000000fa0043ff07007a
:102b98000000000044e6200014427800e14f520093
:102ba80003003a00e4728000e00f5200f9ff32009f
:102bb80042ff07000080fa00000006001c00fa002f
:102bc800889fbe00000f9800110f9800220f9800f0
:102bd800330f9800440f9800550f9800a46c80009c
:102be800b56c80004e099000de0990000400be001c
:102bf80097f707000002be000403be00846c800043
:102c0800956c80000401be000600be004af607006d
:102c18000002be00846c8800956c88004e0a900003
:102c2800de0a90000401be000400be0042f6070060
:102c38000002be000403be00e46c8000f56c800056
:102c48000401be000600be0081f707000002be00b6
:102c58000404be004e099000de0990004e08900062
:102c6800de0890007af707000002be000403be00e9
:102c7800046d8000156d80000401be000600be00d2
:102c880073f707000002be000401be000800be0082
:102c980029f607000002be000404be00246d80006f
:102ca800356d80004e099000de0990000400be00da
:102cb80067f707000002be004e099000de09900089
:102cc8000400be0062f707000002be004e09900033
:102cd800de0990000400be005df707000002be0098
:102ce8004e099000de0990000400be0058f7070066
:102cf8000002be0002002000030824000400be00f9
:102d08006af607000002be000401be000800be000b
:102d180009f607000002be000403be00c46c800070
:102d2800d56c80000401be000600be0002f6070054
:102d38000002be00c46c8800d56c8800046d800059
:102d4800156d80004e099000de0990000400be0059
:102d58003ff707000002be000404be00246d800097
:102d6800356d80004e099000de0990000400be0019
:102d780037f707000002be004e099000de099000f8
:102d88000400be0032f707000002be004e099000a2
:102d9800de0990000400be002df707000002be0007
:102da80002002000030024000400be003ff60700d4
:102db8000002be000401be000800be00def50700e8
:102dc8000002be000403be00e46c8000f56c8000c5
:102dd8000401be000600be00d7f507000002be00d1
:102de800e46c8800f56c8800246d8000356d8000e7
:102df8004e099000de0990000400be0014f7070099
:102e08000002be004e099000de0990000400be00da
:102e18000ff707000002be000403be00046d800027
:102e2800156d80000401be000600be00c2f5070053
:102e38000002be00046d8800156d8800846c800057
:102e4800956c80000401be000e0890009e0890005a
:102e5800b8f507000002be00048fbe00c46c8000f5
:102e6800d56c80002e099000be0990000400be00b9
:102e7800b1f507000002be000401be0000002000fa
:102e880001f8230009f607000002be002407980095
:102e980035079800c46c8000d56c80002e01900026
:102ea800be0190000400be00e9f607000002be0063
:102eb8004407980055079800e46c8000f56c800082
:102ec8002e019000be0190000400be00e0f607004d
:102ed8000002be0064079800750798001e01be0036
:102ee8004e009000de009000d9f607000002be00f8
:102ef8000403be00846c8000956c80000401be0051
:102f08000600be008cf507000002be00846c880035
:102f1800956c88001e01be006e009000fe009000b7
:102f2800cbf607000002be000403be00a46c8000bc
:102f3800b56c80000401be000600be007ef50700e7
:102f48000002be00a46c8800b56c8800086d800083
:102f5800196d8000e46c8000f56c80006e019000b3
:102f6800fe0190000400be00b9f607000002be0092
:102f78000401be000800be006ef507000002be0096
:102f8800046d8800156d8800e86c8000f96c80007d
:102f9800e46c8000f56c80004e019000de0190002a
:102fa8000400be00aaf607000002be000401be002d
:102fb8000800be005ff507000002be00e46c880050
:102fc800f56c8800c86c8000d96c8000c46c8000e7
:102fd800d56c80004e019000de0190000400be0018
:102fe8009bf607000002be000401be000800be00f8
:102ff80050f507000002be00c46c8800d56c88003c
:103008004f04be000080fa00000006000000fa002d
:1030180090c0280078100700c0002000601007004a
:1030280000c2b30043100700c01320005c10070063
:10303800d0c0b3003f100700a0c0b3003d10070088
:103048000080fa00000006000000fa00e0c0280036
:1030580069100700c0c1280067100700c0002000e1
:103068004f100700e0c2b30032100700c013200061
:103078004b100700d0c0b3002e100700a0c0b3004b
:103088002c1007000080fa00000006000400fa0077
:10309800008fbe0010c22800571007001e027800db
:1030a800040078003e100700d0c0b30021100700cc
:1030b800a0c0b3001f1007000080fa00000006003f
:1030c8000400fa00008fbe0060c228004a10070002
:1030d800520020001e00be006810070064748000c3
:1030e800e00f52000b00320000c2b30011100700bd
:1030f800846d8000956d8000110020000401be00e1
:10310800c0d52000ba0e070000027800040078003d
:1031180039100700d0c0b30006100700a0c0b300e4
:10312800041007000080fa00000006000000fa0002
:10313800b0c2280030100700046c8000156c8000b5
:103148000400be002010070000c2b300f90f0700fa
:10315800911407000002be000400be001a10070008
:10316800d0c0b300f30f0700a0c0b300f10f0700f1
:103178000080fa00000006000400fa00846c800059
:10318800956c800002a02200d37224000400be00c7
:1031980046f507000002be000401be000000200042
:1031a80001f82300e3f407000002be00628f22004a
:1031b800830a24000400be0059f607000002be007e
:1031c8000403be00a46e8000b56e80000401be003a
:1031d8000600be001ef607000002be000400be0086
:1031e80087f507000002be00048fbe0000c3280058
:1031f80001100700520020001e00be001f1007002b
:10320800a0c0b300cb0f07000080fa000000060042
:103218001200fa00846c8000956c800002a02200e5
:10322800d37224000400be0020f507000002be008f
:103238000401be000000200001f82300bdf40700cf
:103248000002be00628f2200830a24000400be0030
:1032580033f607000003be00a46e8000b56e800040
:103268000401be000600be00f9f507000002be001a
:103278000400be0062f507000002be00048fbe0015
:10328800a46c8000b56c800002002000832c240010
:103298000400be00eef507000002be000400be00f8
:1032a80057f507000002be002407980034140700f1
:1032b8000002be000400be008df507000002be003b
:1032c80002002000031224000400be00f7f40700e7
:1032d8000002be003407980045079800a4728000d9
:1032e800050020000400be0084f507000002be00af
:1032f80002002000a34724000400be00ebf40700ee
:103308000002be0054079800650798005e00900010
:10331800ee009000f80207000002be000400be00a4
:1033280058f507000002be00740798000002eb0081
:10333800040f98008e0a900084c8200084824200fe
:103348000042eb00844a78000e09900061c328000f
:1033580080c82000be0e070000027800040f980005
:103368001e01be00c0d52000880d070000027800ad
:103378000e0990008400780080c82000b40e070071
:1033880000027800040f98000e099000b1c32800cd
:1033980080c82000ae0e070000027800040f9800d5
:1033a800ae00900080d62000f60c070000027800de
:1033b8000e0990008400780080c82000a40e070041
:1033c80000027800040f98000e099000b1c328008d
:1033d80080c820009e0e070000027800040f9800a5
:1033e800210020003e019000ce019000c0d52000b1
:1033f800ff0d0700000278000e0990008400780095
:1034080080c82000920e070000027800040f980080
:103418000e099000b1c3280080c820008c0e070058
:1034280000027800040f9800fe009000c0d520002c
:10343800230d0700000278000e0990008400780030
:1034480080c82000820e070000027800040f980050
:103458000e099000b1c3280080c820007c0e070028
:1034680000027800040f980064748000e00f520096
:103478000d003200846d8000956d800021002000d1
:103488000401be00c0d52000d90d07000002780055
:103498000e0990008400780080c820006c0e070098
:1034a80000027800040f980040c2b300210f070003
:1034b80080c82000500f0700a0c2b3001d0f0700ee
:1034c80080c82000210f07000042780004407800df
:1034d800ef0f0700d0c0b300160f0700a0c0b3005d
:1034e800140f07000080fa00000006001200fa001e
:1034f800846c8000956c800002a02200d3722400a6
:103508000400be0069f407000002be000401be000a
:103518000000200001f8230006f407000002be00a6
:10352800628f2200830a24000400be007cf5070095
:103538000003be00a46e8000b56e80000401be00ca
:103548000600be0042f507000002be000400be00ef
:10355800abf407000002be00140798002507980086
:10356800a46c8000b56c800002002000832c24002d
:103578000400be0036f507000002be000400be00cd
:103588009ff407000002be0034079800821307006a
:103598000002be000400be00d5f407000002be0011
:1035a80002002000832c24000400be003ff4070022
:1035b8000002be004407980055079800a4728000d6
:1035c800050020000400be00ccf407000002be0085
:1035d80002002000a34724000400be0033f40700c3
:1035e8000002be0064079800750798006e009000fe
:1035f800fe009000400207000002be000400be006a
:10360800a0f407000002be00040f98000002eb00bf
:10361800040f780084c820009e0242000042eb009c
:10362800844a78001e017800d1c3280080c8200091
:10363800070e070000027800040f78001e019000b2
:10364800ae019000c0d52000d00c07000002780021
:103658001e0178008400780080c82000fc0d070057
:1036680000027800040f78001e017800b1c328001a
:1036780080c82000f60d070000027800040f7800cb
:10368800be00900080d620003e0c070000027800a3
:103698001e0178008400780080c82000ec0d070027
:1036a80000027800040f78001e017800b1c32800da
:1036b80080c82000e60d070000027800040f78009b
:1036c800210020004e019000de019000c0d52000ae
:1036d800470d0700000278001e017800840078007a
:1036e80080c82000da0d070000027800040f780077
:1036f8001e017800b1c3280080c82000d40d07003f
:1037080000027800040f78008e089000c0d52000d1
:103718006b0c0700000278001e0178008400780016
:1037280080c82000ca0d070000027800040f780046
:103738001e017800b1c3280080c82000c40d07000e
:1037480000027800040f780064748000e00f5200d3
:103758000d003200846d8000956d800021002000ee
:103768000401be00c0d52000210d0700000278002a
:103778001e0178008400780080c82000b40d07007e
:1037880000027800040f78001e017800b1c32800f9
:1037980080c82000ae0d070000027800040f7800f2
:1037a800210020006e019000fe019000c0d520008d
:1037b8000f0d0700000278001e01780084007800d1
:1037c80080c82000a20d070000027800040f7800ce
:1037d8001e017800b1c3280080c820009c0d070096
:1037e80000027800040f780064748000e00f520033
:1037f8000d003200921407000002be0011002000e4
:103808000401be00c0d52000f90c070000027800b2
:103818001e0178008400780080c820008c0d070005
:1038280000027800040f780040c2b300410e070080
:1038380080c82000700e0700a0c2b3003d0e07002c
:1038480080c82000410e070000427800044078003c
:103858000f0f0700d0c0b300360e0700a0c0b3009a
:10386800340e07000080fa00000006000c00fa0081
:10387800a46c8000b56c800002002000832c24001a
:103888000400be0072f407000002be000400be007f
:10389800dbf307000002be00040f7800b81207002f
:1038a8000002be000400be0011f407000002be00c2
:1038b80002002000031224000400be007bf307006e
:1038c8000002be001407980025079800a472800023
:1038d800050020000400be0008f407000002be0036
:1038e80002002000a34724000400be006ff3070075
:1038f8000002be0034079800450798000002eb005c
:1039080054079800de02900084c820008482420098
:103918000042eb00844a78005e01900021c4280030
:1039280080c820004a0d070000027800540798005c
:10393800046c8000156c80000401be00c0d5200016
:10394800120c0700000278005e01900084007800e5
:1039580080c820003e0d0700000278005407980038
:103968005e019000a1c4280080c82000380d07001f
:1039780000027800540798009e00780080d6200046
:10398800800b0700000278005e0190008400780038
:1039980080c820002e0d0700000278005407980008
:1039a8005e019000b1c3280080c82000280d0700e0
:1039b8000002780054079800110020001e019000b2
:1039c800ae019000c0d52000890c070000027800e5
:1039d8005e0190008400780080c820001c0d07005c
:1039e80000027800540798005e019000b1c32800d7
:1039f80080c82000160d07000002780054079800c0
:103a0800210020003e019000ce019000c0d520008a
:103a1800770c0700000278005e01900084007800af
:103a280080c820000a0d070000027800540798009b
:103a38005e019000b1c3280080c82000040d070073
:103a4800000278005407980040c2b300b90d07007f
:103a580080c82000e80d0700a0c2b300b50d07001c
:103a680080c82000b90d07000042780004407800a3
:103a7800870e0700d0c0b300ae0d0700a0c0b3008a
:103a8800ac0d07000080fa00000006000200fa00f2
:103a9800881f78000002eb00040f780084c820001b
:103aa8009e0242000042eb00844a78001e01780022
:103ab80021c5280080c82000e50c07000002780016
:103ac800040f780064748000e00f52004200320056
:103ad800846d8000956d800018c0b3006011b80037
:103ae8000400be0044f3070000027800e00f520013
:103af80001003d000044eb00e04f54001b00320081
:103b0800846d8000956d8000a28a2b0083fc2300c1
:103b18000400be00cef307000002be000400be0091
:103b2800e2f407000002be00626626006306240075
:103b38000400be00c6f307000002be00110020000a
:103b48000401be00c0d52000290c0700000278003f
:103b58001e0178008400780080c82000bc0c070093
:103b680000027800040f78001b003700846d800085
:103b7800956d800005f0a200a28a2b0083fc23002b
:103b88000400be00b2f307000002be000400be003d
:103b9800c6f407000002be006266260063062c0019
:103ba8000400be00aaf307000002be0011002000b6
:103bb8000401be00c0d520000d0c070000027800eb
:103bc8001e0178008400780080c82000a00c07003f
:103bd80000027800040f78001e017800b1c32800a5
:103be80080c820009a0c070000027800040f7800b3
:103bf800846c8000956c8000110020000401be00d8
:103c0800c0d52000fa0b0700000278001e017800da
:103c18008400780080c820008d0c0700000278001e
:103c2800040f78001e017800b1c3280080c8200066
:103c3800870c070000027800040f7800a46c80004d
:103c4800b56c8000210020000401be0080d6200051
:103c5800e70b0700000278001e0178008400780056
:103c680080c820007a0c070000027800040f780052
:103c78001e017800b1c5280080c82000740c070018
:103c880000027800040f780040c2b300290d070035
:103c980080c82000580d0700a0c2b300250d0700fa
:103ca80080c82000290d07000042780004407800f1
:103cb800f70d0700d0c0b3001e0d0700a0c0b30069
:103cc8001c0d07004f0478000080fa000000060071
:103cd8000000fa006e60a900c622a900c022a9004f
:103ce800e024a9006e00a900c082a8006ee0a80028
:103cf800c862a900e264a900cc62a80071c0a9004a
:103d080059c0a800c642a900c042a800e044a900c2
:103d180071a0a90059a0a900c662a900c062a900a3
:103d2800c902a8006fc0a900cf82a900c982a90052
:103d3800e384a9006f60a900cfe2a900c9e2a90045
:103d4800cde2a8006f80a900c9c2a800e3c4a900f9
:103d58006fa0a900cfa2a900c9a2a900e3a4a90045
:103d680057e0a900cf62a900c962a900cd62a900e5
:103d78007000a8005800a900cf42a900c942a800b5
:103d88005be3a90090e1a9009101a9007160a90075
:103d9800cea2a900c8a2a9007100a900cec2a9009c
:103da800c8c2a9000080fa00000006000000fa005e
:103db80034748000040078003a140700f47380001b
:103dc800040078004a130700590607004e0607004a
:103dd8003a0e0700020007000080fa000000060003
:103de8000000fa00c002a800e004a800451a8000fc
:103df80004fe2f0004826200441a8800141a80000e
:103e080004e0a10004f0a100141a880043a3a9004b
:103e180024c0b3000400780044e3b700041a80000b
:103e28000440a0000450a0000460a0000470a10099
:103e3800041a8800251a800004f021000502720087
:103e4800241a8800041a80000480a1000490a100ac
:103e5800041a8800151a800034f82f0004826200c2
:103e6800141a880041e3a800540580000440a0000b
:103e78000450a1000460a100540588000080fa00e5
:103e8800000006000000fa0085a0a9004043a80031
:103e98000000000025048000040022000482620063
:103ea800e00f5200fbff32004043a90004188000d5
:103eb8009472880094728000cfa2de000400be00d5
:103ec8008bf207000002be0012002400e30c24005d
:103ed8000400be00def207000002be000400be00bf
:103ee80047f207000002be0004027800a4728800ae
:103ef8000080fa00000006000a00fa00889fbe0051
:103f08003007980041079800e4668000f566800055
:103f180018c0b3003e019000ce0190000400be001e
:103f280035f2070000027800e00f520001003d0062
:103f38000044eb00e04f54000300320004678000a7
:103f4800156780005800370014002000040f78001f
:103f5800500037001e027800c322dd00c4cd2000c7
:103f6800048242001402be0018c0b3003e01900053
:103f7800ce0190000400be001ff207000002780086
:103f8800e00f520001003d000044eb00e04f5400f8
:103f98003f0032001e02e900c322dd00c4cd20002c
:103fa800048242001402be000401be003e009000dc
:103fb800ce0090005ff107000002be000404be00be
:103fc8001e027800c322dd00c4cd20000482420016
:103fd8001403be001e02e900c322dd00c4cd200088
:103fe800048242001402be000401be000600be00a6
:103ff80050f107000002be000401be000800be0028
:10400800aaf107000002be001407980025079800cf
:104018001e02e9004322dd00e4024200c4cd200074
:10402800048242001404be001e0278004322dd0010
:10403800e4024200c4cd2000048242001403be0002
:104048001e02e9004322dd00e4024200c4cd200044
:10405800048242001402be000401be000600be0035
:1040680034f107000002be001e019000ae0190006e
:104078000400be0076f207000002be000401be0084
:104088000800be002cf107000002be000600370041
:104098001e0fe8001e027800e60f5200adff340044
:1040a80084688000956880000400be004f04be004c
:1040b8000080fa00000006000000fa000000eb0093
:1040c800da13070000027800e10f420001003a000d
:1040d800ea00070020002000d4130700000278003f
:1040e800050020000400be0004f207000002be0024
:1040f80002002000a34724000400be006bf1070063
:104108000002be00c46d8800d56d88004000200004
:10411800c613070000027800050020000400be0056
:10412800f6f107000002be0002002000832c2400e4
:104138000400be005df107000002be00e46d8800c7
:10414800f56d880060002000b813070000027800b1
:104158005473880080002000b41307000002780020
:1041680064738800a0002000b013070000027800e4
:1041780074738800c0002000ac13070000027800a8
:1041880084738800e0002000a8130700000278006c
:104198009473880000012000a4130700000278002f
:1041a800a473880020012000a013070000027800f3
:1041b800b4738800400120009c13070000027800b7
:1041c800c47388006001200098130700000278007b
:1041d800050020000400be00c8f107000002be0070
:1041e80002002000832c24000400be002ff10700e9
:1041f8000002be00046e8800156e88008001200051
:104208008a13070000027800050020000400be00a1
:10421800baf107000002be0002002000832c24002f
:104228000400be0021f107000002be00246e8800d1
:10423800356e8800a00120007c130700000278007a
:10424800050020000400be00acf107000002be001b
:1042580002002000832c24000400be0013f1070094
:104268000002be00446e8800556e8800c001200020
:104278006e13070000027800050020000400be004d
:104288009ef107000002be0002002000832c2400db
:104298000400be0005f107000002be00646e88003d
:1042a800756e8800e00120006013070000027800a6
:1042b800050020000400be0090f107000002be00c7
:1042c80002002000a34724000400be00f7f0070006
:1042d8000002be00846e8800956e880000022000ef
:1042e8005213070000027800d473880020022000cf
:1042f8004e13070000027800e47388004002200093
:104308004a13070000027800050020000400be00e0
:104318007af107000002be0002002400c3792400dd
:104328000400be0084f007000002be00a46e8800ee
:10433800b56e8800600220003c1307000002780078
:10434800f473880080022000381307000002780008
:1043580004748800a00220003413070000027800cb
:1043680014748800c002200030130700000278008f
:1043780024748800e00220002c1307000002780053
:104388003474880000032000281307000002780016
:1043980044748800200320002413070000027800da
:1043a80005002000c46e8800d56e880040032000f8
:1043b8001e13070000027800547488006003200070
:1043c8001a13070000027800050020000400be0050
:1043d8004af107000002be0002002000832c2400de
:1043e8000400be00b1f007000002be00e46e8800c1
:1043f800f56e8800800320000c1307000002780087
:10440800050020000400be003cf107000002be00c9
:1044180002002000832c24000400be00a3f0070043
:104428000002be00046f8800156f8800a0032000fa
:10443800fe1207000002780064748800c0032000a0
:10444800fa12070000027800050020000400be00f0
:104458002af107000002be0002002000832c24007d
:104468000400be0091f007000002be00246f88001f
:10447800356f88000080fa00000006000000fa008e
:104488004106200020002000f91207004101200009
:1044980040002000f61207001100200060002000f4
:1044a800f31207001100200080002000f01207001e
:1044b80011002000a0002000ed120700410b200091
:1044c800c0002000ea120700813e2000e000200022
:1044d800e71207004106200000012000e41207004f
:1044e8000119200020012000e112070041062000e8
:1044f80040012000de120700810c2000600120002e
:10450800db1207005100200080012000d8120700ac
:10451800e10b2000a0012000d51207004106200071
:10452800c0012000d2120700813e2000e0012000d7
:10453800cf1207008000eb0000022000cc12070019
:104548001100200020022000c9120700d1342500e4
:1045580040022000c6120700f10c20006002200073
:10456800c31207001100200080022000c0120700bb
:104578008000eb00a0022000bd1207008000eb00c5
:10458800c0022000ba12070001012000e00220004a
:10459800b71207004101200000032000b4120700f1
:1045a800014b200020032000b11207008000eb001f
:1045b80040032000ae120700c10320006003200062
:1045c800ab1207004106200080032000a812070054
:1045d8008000eb00a0032000a51207004106200080
:1045e800c0032000a21207008000eb000000eb00cf
:1045f8009f1207000080fa00000006000c00fa0075
:10460800500798003200200041c628005e00900044
:1046180028f4070000027800e00f52002d003a004d
:1046280034002000040f7800260037001e027800ae
:104638000402e800de0290000482420004007800d0
:104648002e09070000027800340798001e02e800cf
:104658000401780001c2b3005e0090004f0a070011
:1046680000027800040f78001e0278000402e800b7
:10467800de02900004824200040078001f0907004f
:104688000002780044079800ce0090003e00900099
:10469800ca07070000027800e00f520002003a0043
:1046a80000000000d70337001e02e800040178006c
:1046b80001c2b3005e009000380a070000027800cb
:1046c800040f78001e027800e00f5200d7ff3a006e
:1046d800cc0337003200200081c628005e0090001d
:1046e800f4f3070000027800e00f520017003a00c8
:1046f800c422a800c0c62800bf0a07000020210065
:10470800a10720008b1207005e029000640242009d
:1047180004007800b80a0700d0c0b300850a070073
:1047280000902000d10320008212070000c7280053
:10473800b10a070000902000d10320007d12070075
:10474800c422a9000000fe00ae033700320020009a
:1047580051c728005e009000d6f3070000027800d9
:10476800e00f520032003a00846e8000956e80009f
:1047780002002000a34724000400be00b4f0070094
:104788000002be000400be001df007000002be00cb
:10479800140798001e0290000402420014079800b3
:1047a8009e029000843e2000848f52000200340054
:1047b800843e2000140798001e02900084007800b0
:1047c800e00120002a1207001e029000cfa2de009e
:1047d8000400be0046f007000002be0002002000f0
:1047e800a34724000400be00b0ef07000002be008b
:1047f800846e8800956e8800846e8000956e8000b7
:10480800446c8800556c880014c0b300040078001c
:104818003eeeb70014c0b3000400780040eeb700c5
:10482800810c2000007d2000b2f6070075033700d8
:104838003200200091c728005e0090009df3070019
:1048480000027800e00f520034003a00846e8000c5
:10485800956e800002002000a34724000400be00db
:104868007bf007000002be000400be00e4ef070072
:104878000002be0024079800ae0290002400200029
:10488800110009008402d80000027800240798006b
:104898002e029000e00f520002003c00140020009d
:1048a800240798002e02900084007800e001200080
:1048b800ef1107002e029000cfa2de000400be0018
:1048c8000bf007000002be0002002000a3472400ee
:1048d8000400be0075ef07000002be00846e880069
:1048e800956e8800846e8000956e8000446c880008
:1048f800556c880014c0b300040078003eeeb70081
:1049080014c0b3000400780040eeb700810c20000a
:104918000019200077f607003a033700320020001c
:10492800d1c728005e00900062f3070000027800fb
:10493800e00f520003003a0014002000547288006f
:10494800300337003200200011c828005e009000b4
:1049580058f3070000027800e00f520003003a0005
:1049680014002000647288002603370032002000fb
:1049780051c828005e0090004ef30700000278003e
:10498800e00f520002003a000000fe001d0337004d
:104998003200200091c828005e00900045f307000f
:1049a80000027800e00f520009003a008080eb0016
:1049b8000000eb00ae110700d0c82800210a07004c
:1049c800b0c928001f0a07000000fe000d033700c9
:1049d8003200200091ca28005e00900035f30700dd
:1049e80000027800e00f520003003a001000200097
:1049f800910607000303370032002000d1ca2800bf
:104a08005e0090002bf3070000027800e00f5200d0
:104a180003003a000000eb0087060700f9023700a0
:104a28003200200011cb28005e00900021f307001f
:104a380000027800e00f520002003a006c050700ff
:104a4800f00237003200200051cb28005e009000b1
:104a580018f3070000027800e00f520017003a0030
:104a68005e029000640242000400780023080700f8
:104a78000002780044738800447380008400780042
:104a8800200020007a1107004473800005002000f0
:104a98000400be0099ef07000002be0002002000db
:104aa800a34724000400be0000ef07000002be0078
:104ab800c46d8800d56d8800d2023700320020000e
:104ac80091cb28005e009000faf2070000027800ff
:104ad800e00f520017003a005e02900064024200a4
:104ae8000400780005080700000278004473880075
:104af8004473800084007800400020005c110700a7
:104b080044738000050020000400be007bef07000e
:104b18000002be0002002000832c24000400be0016
:104b2800e2ee07000002be00e46d8800f56d880023
:104b3800b402370032002000d1cb28005e0090007c
:104b4800dcf2070000027800e00f52000d003a0086
:104b58005e0290006402420004007800e707070044
:104b68000002780044738800447380008400780051
:104b7800600020003e1107004473800054738800d1
:104b8800a00237003200200011cc28005e009000ff
:104b9800c8f2070000027800e00f52000d003a004a
:104ba8005e0290006402420004007800d307070008
:104bb8000002780044738800447380008400780001
:104bc800800020002a110700447380006473880065
:104bd8008c0237003200200051cc28005e00900083
:104be800b4f2070000027800e00f52000d003a000e
:104bf8005e0290006402420004007800bf070700cc
:104c080000027800447388004473800084007800b0
:104c1800a0002000161107004473800074738800f8
:104c2800780237003200200091cc28005e00900006
:104c3800a0f2070000027800e00f52000f003a00cf
:104c48005e0290006402420004007800ab0707008f
:104c58000002780044738800447380008400780060
:104c6800c00020000211070044738000847388008c
:104c78000002eb0034728800620237003200200024
:104c8800d1cc28005e0090008af20700000278006c
:104c9800e00f52000d003a005e02900064024200ec
:104ca8000400780095070700000278004473880024
:104cb8004473800084007800e0002000ec100700b6
:104cc80044738000947388004e023700320020003d
:104cd80011cd28005e00900076f2070000027800ef
:104ce800e00f52000d003a005e029000640242009c
:104cf80004007800810707000002780044738800e8
:104d0800447380008400780000012000d810070058
:104d180044738000a47388003a02370032002000f0
:104d280051cd28005e00900062f207000002780072
:104d3800e00f52000d003a005e029000640242004b
:104d4800040078006d0707000002780044738800ab
:104d5800447380008400780020012000c4100700fc
:104d680044738000b47388002602370032002000a4
:104d780091cd28005e0090004ef2070000027800f6
:104d8800e00f52000d003a005e02900064024200fb
:104d9800040078005907070000027800447388006f
:104da800447380008400780040012000b0100700a0
:104db80044738000c4738800120237003200200058
:104dc800d1cd28005e0090003af20700000278007a
:104dd800e00f520017003a005e02900064024200a1
:104de8000400780045070700000278004473880033
:104df8004473800084007800600120009c10070044
:104e080044738000050020000400be00bbee0700cc
:104e18000002be0002002000832c24000400be0013
:104e280022ee07000002be00046e8800156e88009e
:104e3800f40137003200200011ce28005e009000f7
:104e48001cf2070000027800e00f520017003a0039
:104e58005e02900064024200040078002707070001
:104e6800000278004473880044738000840078004e
:104e7800800120007e100700447380000500200098
:104e88000400be009dee07000002be0002002000e4
:104e9800832c24000400be0004ee07000002be00bc
:104ea800246e8800356e8800d60137003200200055
:104eb80051ce28005e009000fef107000002780045
:104ec800e00f520017003a005e02900064024200b0
:104ed800040078000907070000027800447388007e
:104ee8004473800084007800a0012000601007004f
:104ef80044738000050020000400be007fee070018
:104f08000002be0002002000832c24000400be0022
:104f1800e6ed07000002be00446e8800556e88006a
:104f2800b80137003200200091ce28005e009000c2
:104f3800e0f1070000027800e00f520017003a0085
:104f48005e0290006402420004007800eb0607004d
:104f5800000278004473880044738000840078005d
:104f6800c0012000421007004473800005002000a3
:104f78000400be0061ee07000002be00020020002f
:104f8800832c24000400be00c8ed07000002be0008
:104f9800646e8800756e88009a0137003200200020
:104fa800d1ce28005e009000c2f107000002780010
:104fb800e00f520023003a005e02900064024200b3
:104fc80004007800cd0607000002780044738800ca
:104fd8004473800084007800e0012000241007005a
:104fe80044738000050020000400be0043ee070063
:104ff8000002be0002002000a34724000400be00f7
:10500800aaed07000002be00846e8800956e880035
:10501800846e8000956e8000446c8800556c880012
:1050280014c0b3000002fd003eeeb7000002fd0010
:1050380014c0b3000002fd0040eeb7000002fd00fe
:10504800700137003200200011cf28005e00900068
:1050580098f1070000027800e00f52000d003a00b6
:105068005e0290006402420004007800a306070074
:10507800000278004473880044738000840078003c
:1050880000022000fa0f070044738000d4738800e0
:105098005c0137003200200051cf28005e009000ec
:1050a80084f1070000027800e00f52000d003a007a
:1050b8005e02900064024200040078008f06070038
:1050c80000027800447388004473800084007800ec
:1050d80020022000e60f070044738000e473880074
:1050e800480137003200200091cf28005e00900070
:1050f80070f1070000027800e00f520017003a0034
:105108005e02900064024200040078007b060700fb
:10511800000278004473880044738000840078009b
:1051280040022000d20f07004473800005002000d1
:105138000400be00f1ed07000002be0002002400da
:10514800c37924000400be00fbec07000002be0087
:10515800a46e8800b56e88002a013700320020004e
:10516800d1cf28005e00900052f1070000027800bd
:10517800e00f520010003a005e0290006402420004
:10518800040078005d060700000278004473880078
:10519800447380008400780060022000b40f070088
:1051a80044738000f4738800f4738000040078006e
:1051b8004f0e0700130137003200200011d02800dd
:1051c8005e0090003bf1070000027800e00f5200fb
:1051d8000d003a005e02900064024200040078006c
:1051e8004606070000027800447388004473800074
:1051f80084007800800220009d0f0700447380001f
:1052080004748800ff0037003200200051d02800c5
:105218005e00900027f1070000027800e00f5200be
:105228000d003a005e02900064024200040078001b
:105238003206070000027800447388004473800037
:1052480084007800a0022000890f070044738000c2
:1052580014748800eb0037003200200091d0280039
:105268005e00900013f1070000027800e00f520082
:105278000d003a005e0290006402420004007800cb
:105288001e060700000278004473880044738000fb
:1052980084007800c0022000750f07004473800066
:1052a80024748800d700370032002000d1d02800ad
:1052b8005e009000fff0070000027800e00f520047
:1052c80010003a005e029000640242000400780078
:1052d8000a060700000278004473880044738000bf
:1052e80084007800e0022000610f0700447380000a
:1052f800347488003474800004007800e90e0700d4
:10530800c00037003200200011d128005e00900054
:10531800e8f0070000027800e00f520010003a00a1
:105328005e0290006402420004007800f305070062
:105338000002780044738800447380008400780079
:10534800000320004a0f070044738000447488005b
:105358006022b800446d8800556d8800a9003700a8
:105368003200200051d128005e009000d1f00700e3
:1053780000027800e00f520012003a005e0290002e
:105388006402420004007800dc050700000278008f
:105398004473880044738000840078002003200050
:1053a800330f07004473800005002000c46e880096
:1053b800d56e88006022b800646d8800756d88001d
:1053c800900037003200200091d128005e00900044
:1053d800b8f0070000027800e00f520014003a000d
:1053e8005e0290006402420004007800c3050700d2
:1053f80000027800447388004473800084007800b9
:10540800400320001a0f070044738000547488007a
:1054180054748000e00f52007700320014c0b300cb
:105428000002fd0040eeb7000002fd0075003700e5
:1054380032002000d1d128005e0090009df00700c6
:1054480000027800e00f520017003a005e02900058
:105458006402420004007800a805070000027800f2
:10546800447388004473800084007800600320003f
:10547800ff0e070044738000050020000400be00f2
:105488001eed07000002be0002002000832c24004d
:105498000400be0085ec07000002be00e46e880030
:1054a800f56e8800570037003200200011d228001e
:1054b8005e0090007ff0070000027800e00f5200c5
:1054c80017003a005e02900064024200040078006f
:1054d8008a0507000002780044738800447380003e
:1054e80084007800c0032000e10e070044738000a8
:1054f800050020000400be0000ed07000002be0009
:1055080002002000832c24000400be0067ec070082
:105518000002be00246f8800356f8800390037000c
:105528003200200051d228005e00900061f0070090
:1055380000027800e00f520017003a005e02900067
:1055480064024200040078006c050700000278003d
:10555800447388004473800084007800800320002e
:10556800c30e070044738000050020000400be003d
:10557800e2ec07000002be0002002000832c240099
:105588000400be0049ec07000002be00046f88005a
:10559800156f88001b0037003200200091d22800c8
:1055a8005e00900043f0070000027800e00f520010
:1055b80014003a005e029000640242000400780081
:1055c8004e05070000027800447388004473800089
:1055d80084007800a0032000a50e07004473800013
:1055e8006474880064748000e00f52000400320084
:1055f80090f20700030037000000000001003700a8
:10560800000000000080fa00000006000000fa0018
:105618007ef60700d0d22800f7060700a0da280097
:10562800f50607000002eb00c4718800c471800011
:10563800040078007d0e070000027800b47188002d
:105648000d00370000c2b300ba060700b47180002d
:1056580004007800d2060700c47180000482e800c4
:10566800c4718800c4718000040078006f0e0700c0
:1056780000027800b4718800b4718000e10f420024
:10568800f0ff3a00d0c0b300aa060700a0c0b300dc
:10569800a8060700020007000080fa0000000600c4
:1056a8000000fa00e0da2800d30607000002eb0049
:1056b800b47188000b003700b471800004007800d2
:1056c8003b0b07000002780004007800a3070700de
:1056d80000c2b30097060700b47180000402e80016
:1056e800b4718800b4718000e70f5200f2ff3400f3
:1056f800d0c0b3008f060700a0c0b3008d06070016
:105708000080fa00000006000000fa001fe1a9006e
:105718001e21a9001ec1a9001fa1a9001ea1a80041
:105728001e81a8001e61a9000080fa000000060082
:105738000000fa0011e1a9001021a90010c1a90078
:1057480011a1a90010a1a9001081a8001061a90049
:105758003405800004c0a00004d0a00004e0a1002b
:105768003405880084e0a90094e0a80004712200b0
:10577800640888000002eb00340888000080fa0002
:10578800000006003600f800809fbe00829fbe0021
:10579800849fbe00869fbe00889fbe008a9fbe0071
:1057a8003400f80000002000a00188000800fa007a
:1057b80004e5200014427800e04f5200090032004e
:1057c800e6090700d70907000042eb000002fd00c8
:1057d80050eeb7000002fd00fe0907002d06070085
:1057e800ae013700ec090700d509070014c0b30063
:1057f8000002fd0050eeb7000002fd003e0a07005f
:105808000002be00046c8800156c88007572800068
:1058180014032000848f520005003c00747280003d
:105828000402e8007472880084e0a900e6013700e9
:10583800046c8000156c80000400be002cec07008e
:105848000003be00a46e8000b56e80000401be0097
:105858000600be0095eb07000002be0012cb2d002b
:1058680023e423000400be00adec07000002be00e4
:105878000401be000000200001f823002deb070002
:105888000002be0002a02200d37224000400be0061
:105898006fec07000002be00048fbe00c66d8000da
:1058a800d76d8000a4702d0035ca23000601be0004
:1058b8001e00be00c1f407001416800064026200d6
:1058c800e00f5200020032000002eb00c4728800b0
:1058d80024e4200014427800e04f52000600320011
:1058e80024e42000144278000442e9000002fd008c
:1058f80042eeb7000002fd00e4e320001442780005
:10590800e04f52000400320004e420001442780002
:10591800e04f52003c003a0024e420001442780092
:10592800e04f520038003a00a66c8000b76c800047
:10593800246f8000356f800018c0b3000401be00da
:105948000600be00aceb070000027800e00f520032
:1059580001003d000044eb00e04f540010003a0005
:10596800246f8000356f80000403be0007f0a2009a
:10597800a46c8000b56c800018c0b3000401be00a0
:105988000600be009ceb070000027800e00f520002
:1059980001003d000044eb00e04f54001a003200c3
:1059a80014c0b300040078003eeeb70014c0b30082
:1059b8000400780040eeb700846e8000956e800089
:1059c800446c8800556c880060db28000a060700d4
:1059d800246f8000356f8000210020000401be0084
:1059e800c0d5200082040700000278000400780077
:1059f8000106070080dd2800ff050700411f200081
:105a0800007d20003bf20700a66c8000b76c800088
:105a1800e46d8000f56d800018c0b3000401be007d
:105a28000600be0074eb070000027800e00f520089
:105a380001003d000044eb00e04f54000800320034
:105a4800c4728000e00f52000500320014c0b30099
:105a58000002fd0062eeb7000002fd0011003700f1
:105a6800a66c8000b76c8000246e8000356e8000c4
:105a780018c0b3000401be000600be005ceb0700be
:105a880000027800e00f5200010034000044eb00ef
:105a9800e04f5400030032000042eb00040078009d
:105aa80062eeb700046e8000156e80000403be002d
