:020000040000fa
:080000000002040000000000f2
:020000040000fa
:100008009a0200009a0200009a0200009a02000078
:100018009a0200009a0200009a0200009a02000068
:100028009a0200009a0200009a0200009a02000058
:100038009a0200009a0200009a020000202d000097
:10004800903d00009a0200009a02000084470000d8
:100058009a0200009a0200009a0200009a02000028
:100068009a0200009a0200009a020000323400004e
:100078009a0200009a0200009a0200009a02000008
:100088009a0200009a0200009a0200009a020000f8
:100098009a0200009a020000884800009a020000b4
:1000a8009a0200009a0200009a0200009a020000d8
:1000b8009a0200009a0200009a0200009a020000c8
:1000c8009a0200009a0200009a0200009a020000b8
:1000d8009a0200009a0200009a0200009a020000a8
:1000e8009a0200009a0200009a0200009a02000098
:1000f8009a0200009a0200009a0200009a02000088
:100108009a0200009a0200009a0200009a02000077
:100118009a0200009a0200009a0200009a02000067
:100128009a0200009a0200009a0200009a02000057
:100138009a0200009a0200009a0200009a02000047
:100148009a0200009a0200009a0200009a02000037
:100158009a0200009a0200009a0200009a02000027
:100168009a0200009a0200009a0200009a02000017
:100178009a0200009a0200009a0200009a02000007
:100188009a0200009a0200009a0200009a020000f7
:100198009a0200009a0200009a0200009a020000e7
:1001a8009a0200009a0200009a0200009a020000d7
:1001b8009a0200009a0200009a0200009a020000c7
:1001c8009a0200009a0200009a0200009a020000b7
:1001d8009a0200009a0200009a0200009a020000a7
:1001e8009a0200009a0200009a0200009a02000097
:0801f8009a0200009a020000c7
:020000040000fa
:100208009a0200009a0200009a0200009a02000076
:100218009a0200009a0200009a0200009a02000066
:100228009a0200009a0200009a0200009a02000056
:100238009a0200009a0200009a020000202d000095
:10024800903d00009a0200009a02000084470000d6
:100258009a0200009a0200009a0200009a02000026
:100268009a0200009a0200009a020000323400004c
:100278009a0200009a0200009a0200009a02000006
:100288009a0200009a0200009a0200009a020000f6
:100298009a0200009a020000884800009a020000b2
:1002a8009a0200009a0200009a0200009a020000d6
:1002b8009a0200009a0200009a0200009a020000c6
:1002c8009a0200009a0200009a0200009a020000b6
:1002d8009a0200009a0200009a0200009a020000a6
:1002e8009a0200009a0200009a0200009a02000096
:1002f8009a0200009a0200009a0200009a02000086
:100308009a0200009a0200009a0200009a02000075
:100318009a0200009a0200009a0200009a02000065
:100328009a0200009a0200009a0200009a02000055
:100338009a0200009a0200009a0200009a02000045
:100348009a0200009a0200009a0200009a02000035
:100358009a0200009a0200009a0200009a02000025
:100368009a0200009a0200009a0200009a02000015
:100378009a0200009a0200009a0200009a02000005
:100388009a0200009a0200009a0200009a020000f5
:100398009a0200009a0200009a0200009a020000e5
:1003a8009a0200009a0200009a0200009a020000d5
:1003b8009a0200009a0200009a0200009a020000c5
:1003c8009a0200009a0200009a0200009a020000b5
:1003d8009a0200009a0200009a0200009a020000a5
:1003e8009a0200009a0200009a0200009a02000095
:0803f8009a0200009a020000c5
:020000040000fa
:10040000afe920000eff20000e0188000000000070
:10041000000020000000e000020032000001200087
:10042000200288000c000700a0dd2300010020004e
:1004300011000700000020000000e0000200320070
:1004400000000200000000002c0f0200000000006d
:100450000040da000000fe004440a900c03a20003d
:100460000000e0000300320000002000a00188002e
:100470004440a80000000600910188008000780038
:100480000000eb0015003700e280400032a0b4000d
:100490009101ba00e280400032a0b4009102ba009b
:1004a000e280400032a0b4000002eb00472bde00e7
:1004b000f507b200602ce10004003a000059eb009f
:1004c0008301e900fdff3e00040037006128e100e0
:1004d000010032000082eb00040007001101ba00a5
:1004e0000200e000e8ff3a00000006003159ba00bf
:1004f0008301e9000c0032002159ba008301e900b0
:10050000080032000400e00003003a00e2804000ee
:1005100032a0b400f5ff370011d9ba008301e90019
:10052000faff3a008100e800e180400032a0b40008
:10053000000006000040da000000fe0003f0a20008
:10054000889fbe008a9fbe008c1f78002a0107008a
:10055000310133006450e1004f0032006420e100bb
:100560005200320003826c0007003b000905d000f6
:100570000306d000820f54000c065d000200390013
:100580000200320089017800030678008582550058
:1005900004003d000003fd008103fd008502ea0028
:1005a0008b854200840f720002003b006000100047
:1005b000e08018006011b8000005eb007a28e10027
:1005c0000a00390006007800c75ddd00f707b200b9
:1005d000878075002d003700828171000a01780044
:1005e000610560008180d1000080d3008502e900b0
:1005f000f9ff3b00060440008784480002003b00ee
:1006000060041400e0841c000988a3000700320085
:100610008a81710082817100610164008904d100c6
:100620000884d3008b05e800170037000978a30081
:1006300013003a000b00e000130034008b05e900c2
:100640000804440089844c000a4474000978a3001b
:100650000d003a000b00e000070034008b05e900b4
:100660000804440089844c0001003a000b0020007b
:100670000978a300f7ff32000001eb000200370009
:10068000828171000a017800a00007000cf0a70029
:1006900001f0a000e90037006420e10002003a0008
:1006a000838f6c00e90033000801be000200be0029
:1006b000e2003700889fbe008a9fbe008c1f780032
:1006c000cd000700d400330003866c006450e100c5
:1006d0002e0032006420e100330032006150e1005e
:1006e0002f0032006120e100310032008585550085
:1006f000eb07b000090020000804200005003700c7
:100700000804440089844c000a00310006034300b9
:1007100087834b000001530081815b00f8ff3300a9
:100720000203be000800a0000804440089844c00b5
:10073000f6ff3900c639dd00830173000100320085
:10074000130020008904d1000884d3000998a30075
:10075000050032000800a7000300a0008904d100b2
:100760000884d3008b05e8008904d1000884d300f5
:100770000001eb000281d2006400070001f0a1003b
:100780000cf0a70001f0a000ac0037006420e100ed
:10079000ae0032000801be000200be00f7ff3700c5
:1007a0006120e100a90032006000b800f3ff3700cb
:1007b0000000200001f82700f0ff3700839f680049
:1007c0000100e00002003d0060001000e080180021
:1007d0000300e00002003d0060011100e08119000b
:1007e000e90107004f00e00002003b00600010003c
:1007f000e08018000000060014002000b40237005a
:10080000f4ff2f00b20237000001be0065000700b0
:100810000470a70003f0a1006509b10016003200c2
:100820000d0035006828e10006003500f0ff2f00bc
:10083000f1ff27000300e00013003b000100280047
:100840000000050000004000818048008502e900aa
:10085000fcff3a0008003700f88f420002003c001d
:100860008000eb00000005008100d1000080d30073
:100870008502e800fcff3a000300e00002003b00b4
:1008800060001000e0801800000006000001be00bb
:10089000440007000470a70003f0a10003f8a300c0
:1008a00013003a006509b10010003200090035005c
:1008b0006928e10002003500010028000000050061
:1008c00000004000818048008502e900fcff3a00fa
:1008d00000000600f88f4200050035008100d100bd
:1008e0000080d3008502e800fcff3a00000006000b
:1008f0008000eb00000005004f89de0082017800d7
:100900008e0237006011b8009c0237008100200081
:10091000618055000b003d000b00200061fe2f00a0
:100920000100e1001d00340082817100610164005a
:100930008904d1000884d3000000e800faff3a00df
:10094000710020006100640003007000020060007c
:100950000900320061044400e0844c000988a500cd
:10096000050032008b05e8006808e10002003a004b
:100970008904d1000884d300f20f20000258e1005e
:1009800005003d00c75ddd00f907b20089807500f4
:1009900008007800000006000bf827008b007800a4
:1009a00000000500c70ade00f107b200f50fb20033
:1009b00008003200e1cf4200020032000170a000c6
:1009c00024000500810f70000100320004080500ba
:1009d00044000500810f700002003a001400050079
:1009e0008502e9000000400081c04800fcff3b0098
:1009f0000170a000240005000004be00e9ff07000c
:100a00000003be000405be000200be00e5ff0700b3
:100a1000844f7500000006000200be006450e10033
:100a2000050036006420e100020036000968a300da
:100a300001003a000800be000160a0004f067800e7
:100a40004f05be004f04be0000000600f0ff2f005f
:100a5000f1ff2700f9ff3700889fbe008a9fbe0084
:100a60008c1f7800e4ff0700ebff330003866c0067
:100a70006450e100240032006420e10027003200cd
:100a80006150e100220032006120e10021003200cb
:100a90008b854200eb07b1000134b800003ab80082
:100aa0000804420089844a00013ab8000030b800c6
:100ab0008880400009014a00040033000000400023
:100ac00081804800020149008b05e900c909dd0069
:100ad000830170000100320013002000c814de0002
:100ae0004814dd004709de001200b200c808de002d
:100af0000884700085ff070001f0a1000cf0a7003a
:100b000001f0a000cdff37006120e100cfff3200ef
:100b10000801be000200be00f7ff37006150e1008f
:100b2000fcff3a00c9ff37000c00fa00889fbe00a6
:100b30008a9fbe008c9fbe00afff07000206be006a
:100b4000840578000200be0002002000b901070001
:100b500005003a008b02b30012002000b501070027
:100b600001003a00f8856d000c01be00c6000700c8
:100b70000800be009b0032000b08a3009e003a0054
:100b80000df0a7000be0a00009f0a7000bf0a000fb
:100b900009f0a1000801be00bb0007000bf0a60091
:100ba0009500320001003c000bd0a0008acf7500f8
:100bb000b20033006000b8006250e10099003900d3
:100bc000a1003e000b28a300a2003a000bf8a300ee
:100bd000060032000b58a300a70032000801be0037
:100be000a90007000800be00940032000800be0003
:100bf000210107000004be00050578000bf0a700e6
:100c00000b30a6000bf0a1005b079800324f2000cc
:100c100053f32300f8fe070005003d000800be0066
:100c200012002000040207000004be000a05e900cb
:100c30004a0798006150b9002fff0700008fbe00df
:100c40000c01be0084ff0700effe0700300798008c
:100c50000100e00002003d0060001000e08018008c
:100c6000f2ff2700820f5000e08f580064003e0022
:100c70000c00be00e4fe070020079800f2072000e9
:100c8000820f5000e08f580005003c0012f82f0042
:100c9000f3ff2f00820f5000838f580009003d00a2
:100ca0000a00e0000300320001003c000201ea00fb
:100cb000020578006000b800200798003a07980005
:100cc000190037003e0090006100b9000aff0700dc
:100cd000809fbe000c00be004109dd004811de000f
:100ce0007208b100530107000005be001e01be00de
:100cf00059ff07004f01be0010fe0700809fbe0095
:100d00000c00be000a01be000cfe07001e01be0062
:100d100051ff07004f01be0009fe07008221270096
:100d200013f323004cff07000005be002e009000c7
:100d30006100b900f0fe070001f0a2000c01be0046
:100d4000fffd07000006be000800be00dc01070032
:100d50000c01be0040ff07000a01be00f8fd0700bd
:100d6000809fbe004a0007002e0590000af0a700f1
:100d70000a05ea00050037000800be000801be00b1
:100d800035ff07000004be000c00be000801be00d5
:100d90000a00a70030ff07000006be000a05d100c8
:100da000f5ff3a005e01900002e0a6000300370064
:100db0000001be00360007003efe07000004be0032
:100dc0004f00be00b90007000801be0022ff070067
:100dd0003e01900098010700de0590000bf0a7008f
:100de00001f0a2004f06be004f05be004f04be003a
:100df0000080fa000000060025000700f9ff370018
:100e0000270007006000b8000bd0a7000bc0a000af
:100e10000be0a7000bc0a2000bc0a70001f8270041
:100e2000f0ff37000df8a300020032001e0007009b
:100e3000190007000bf8a300eaff32000b30a700ef
:100e400001f0a200e7ff37000df8a300f9ff3a0018
:100e5000f7ff37000801be000b000700e6ff320075
:100e600001003c000df0a2006000b8000df0a700ea
:100e700009000700dbff37000b000700f1ff270028
:100e8000f0ff2f00d7ff3700010007005afe3700a0
:100e900001f823000000050001f82700000005000c
:100ea000200220000100370010022000c0748800da
:100eb00000000600889fbe008a9fbe008c1f78003d
:100ec0000004be00b7fe07000478a30026003a0025
:100ed0006120e1002500320009f8a30025003a0056
:100ee0006420e10021003200f507b1000508a300ed
:100ef0000200320000004000818048006044b800d9
:100f00000310200002002000000040008180480003
:100f10000805440089854c000a0541008b8549007d
:100f20000a0550008b855800030033000a00be00fc
:100f300002047400838474008301d1000281d30011
:100f4000830f7100f0ff3a008904d1000884d300b8
:100f50006001490082017800c1adde00fb07b000ee
:100f60006afe0700b5fe37000960a0000800be0059
:100f7000b2fe370012022000c2748800f0ff2f007a
:100f8000f1ff2700adfe37006022b8000602200006
:100f90000000d0008180d2000482d2008582d2007d
:100fa0000000a0000202520083825a0003003100b8
:100fb0000202420083824a000000a1000603e90009
:100fc000f3ff3a0000000600efff07000400be0038
:100fd00000000600889fbe008a9fbe008c1f78001c
:100fe0000006eb00e00f5000e08f5800e00f5900c2
:100ff000e08f590007003d006044b8006055b8001c
:101000001c0020000000540081805c0002015d0093
:1010100083815d00e00f5200e08f5a00e00f5b001b
:10102000e08f5b0007003d006044b8006055b800e9
:101030000c00a2000402540085825c0006035d00df
:1010400087835d0075010700e00f5600060032003f
:101050006022b8006033b8000000520081805a005e
:1010600002015b0083815b004f0678004f05be00e4
:101070004f04be00000006000003be0049fe07004a
:101080006220e100020032000600be0005000500fb
:10109000e507b100f107b20004f02300848070007e
:1010a00007f0a70001f0a00024000500889fbe0003
:1010b0008a9fbe008c9fbe000004be0039fe070060
:1010c0000800be006420e10048003e0055003200e8
:1010d00072212700132b2400c9fd070047003c00a4
:1010e0000800be00c2ec2800e32c2c00c2fd070063
:1010f000470035000800be0001f0a10002002000fa
:1011000003382300bcfd0700430035000800be0083
:10111000b2a32a0083fb23004ffe07000200200039
:1011200003f0230001f0a70003f0a00004fd070076
:10113000b5fd07000005be00effd070001f0a200ad
:101140000006be000200280013f3230042fe070041
:101150000801be00fafc0700809fbe000c00be0024
:1011600032082800e3952b003bfe07004f01be002c
:10117000f3fc07000006be000001be0036fe0700bb
:10118000809fbe004241250083b8230032fe070045
:101190000200200003e82300e9fc07000c01be0068
:1011a0002dfe07000006be004f00be00f2f92b0026
:1011b000c3d4230028fe07000200200003f0230010
:1011c000dffc07000c01be00dcfc07000001be00d4
:1011d0000c00be0037fd07000200200003f02300d2
:1011e000d7fc070061014500930007004f06be00d1
:1011f0004f05be004f04be000000060001f82700a6
:101200000000200022022000c2748800f7ff37008f
:101210006000b800fbff370001f823000000200049
:10122000f2ff370009f8a300f0ff32006000b800b9
:10123000eeff3700889fbe008a9fbe000003be00fd
:10124000d8fd070085057800828152000200200049
:101250006220e10004003a00f307b1000400350009
:101260007718e100040035000600be0014003700c6
:101270006000b8000f003700f50f2000faff2f00c4
:101280008502d1000a85d3008301e900fcff3b0001
:101290008184620000046500890f7400f2ff32004f
:1012a0008582ea000a85ea00818462000004650004
:1012b00096fd070007f0a70001f0a0000081eb00f9
:1012c0000200e0004f05be004f04be000000060013
:1012d000889fbe008a9fbe00841f7800c6fd07005d
:1012e0004f00780011003300f0ff2f00838f6c0057
:1012f00006003b00040565000a00a700080037004f
:1013000009f0a6001000200008003700820f5400ea
:10131000838f5c00030039001000200001003e00b4
:101320000000200009f0a7000000ea004f05be0001
:101330004f04be000000e00000000600881f780097
:10134000030478000300e00007003d006000100087
:10135000e080180060011900e081190002003b00e4
:1013600001f02d00030037000400070008f0a7007b
:1013700001f0a0004f04780000000600889fbe0026
:101380008a9fbe0000827000040271000482710016
:10139000260032000004be000200be006011b8004a
:1013a0006b092000950220000182cf000a0039005d
:1013b0000541b1000082cf00070039000541b100ae
:1013c0000982cf00040039000541b1000882cf0036
:1013d000010039000541b1000542520012003200ff
:1013e0000a003b0082817100610164008100d1002c
:1013f0000080d3008984d3000884d3008b05e800e3
:101400000442e800f7ff3a000700370008044400f0
:1014100089844c0000004800818048008b05e90069
:101420000442e900f9ff3a0038fd07004f05be000d
:101430004f04be00000006000003be0059fd070077
:101440006220e100020032000600be00000006003b
:1014500085024100e30f20000328e10005003c0065
:10146000a3fe2f000328e10007003d000500200037
:1014700001003700f50f200020022000c074880012
:101480006000b8000800370013002000838152007c
:1014900005003d008100d1000080d3008301e800f9
:1014a000fcff3a0005002000c72add00f107b2006a
:1014b0008580700007f0a70001f0a0000000060082
:1014c000889fbe008a9fbe008c9fbe00eafe070078
:1014d000850478000005be006420e10049003e005c
:1014e0006220e10003003200090035000bf8a30080
:1014f000440032000bf8a300080032001002200064
:10150000c0748800f0ff2f00f1ff27003d00370076
:1015100001f82f00000020003a0037003d000700ce
:1015200006fc07000006be000a00be00324f200085
:1015300053f32300b2fc0700060034000c00be0089
:1015400034000700fdfb07000006be000a00be00d5
:10155000020037008904e9000c00be002d000700de
:101560003dfd07002b000700f5fb07000001be0052
:101570000c00be004ffc07000005be000001be00cd
:1015800035fd07000006be00a2f32300430d2c002a
:10159000ebfb0700809fbe000c00be00d2e32700db
:1015a000d3f02b002cfd07004f01be0041fc0700cb
:1015b0000006be000a01be0027fd07000a01be00aa
:1015c000dffb07000006be006148b900cafc070047
:1015d0000005be0032082800e3952b001efd070021
:1015e0000c01be00d6fb07000006be000a00be00cc
:1015f0000200280013f3230017fd07000c01be00b2
:10160000cffb07004f06be004f05be004f04be00d3
:101610000000060003f0230002000500889fbe00c2
:101620008a9fbe008c9fbe000404b8000506b80067
:101630008904460060854e000606b8000a0546008b
:10164000e0854e000706b8008b054600040eb80082
:10165000890446000a854e00e0854d00050eb8005d
:101660000a0546008b854e00060eb8008b05460025
:101670000416b8000a0546008b854e000516b80012
:101680008b054600041eb8008b0546000800be000e
:101690000a01be004f06be004f05be004f04be004b
:1016a0000000060000027800b1427800055a780078
:1016b000e0cf5200fcff3a00000006000b003700ac
:1016c00030427800e04f5200030032000201e9008e
:1016d000b14f5200050032000480fb0095427800b3
:1016e0008582fb00050050000000060081027800a2
:1016f000e00f5100f2ff3a000200780000000600ff
:020000040000fa
:101700005a000000426100007474000020000000d4
:1017100042410000542000000054000072690000a3
:1017200067670000657200002050000069740000c7
:101730006f74000020430000616c000069620000cb
:1017400072610000746900006f6e00000d0a0000f5
:101750000041000075640000696f00002061000016
:101760006e64000020420000757a00007a65000077
:1017700072200000546f0000676700006c65000075
:10178000204f0000666600000d0a000000410000c6
:1017900075640000696f0000206100006e64000045
:1017a00020420000757a00007a6500007220000077
:1017b000546f0000676700006c650000204f000058
:1017c0006e0d00000a000000417500006469000011
:1017d0006f200000546f0000676700006c65000018
:1017e000204f0000666600000d0a00000041000066
:1017f00075640000696f0000205400006f670000ee
:10180000676c0000652000004f6e00000d0a0000ac
:10181000004200004656000020000000426c00001c
:1018200075650000466c000079560000617200008a
:10183000696f00005f00000055530000425f000028
:10184000424c000055450000544f00004f5400002a
:1018500048000000544d00005020000000500000df
:1018600052530000200000004246000052200000b9
:10187000005f0000505200005320000000420000b2
:10188000465600002c0000002c00000042460000dc
:10189000582c0000004c00004b3800004558000058
:1018a000312c0000002c00003939000039390000cb
:1018b000392c0000004c0000585700005030000048
:1018c0002c4e00002c0000002c2c00002c2c0000c2
:1018d0002c2c00002c2c00000024000024240000ec
:1018e000005300002d2c0000426c000075650000c4
:1018f000466c0000790a0000005200002c31000004
:101900000a0000004253000044000000524e000054
:1019100043000000425600005500000042560000ff
:10192000440000004253000054000000544d0000e9
:1019300050000000525300005400000052530000b9
:1019400058000000245000004d5400004b300000af
:10195000303000002a330000320d00000a00000081
:10196000245000004d5400004b3100003034000082
:101970002a330000370d00000a000000534c00001d
:1019800050000000534c000058000000425400007a
:101990004e000000424600004b000000424600009e
:1019a0004c00000042460000500000004241000090
:1019b0004300000042410000440000004254000087
:1019c000480000004246000051000000424600006e
:1019d0004900000042530000510000004253000043
:1019e000490000004246000053000000424f000042
:1019f0004c000000424f0000530000004252000023
:101a00004d000000425600004c000000424f000014
:101a10004d000000424f000046000000425100000f
:101a20004800000042520000420000004250000006
:101a3000540000004255000052000000424c0000db
:101a40004400000042520000320000004248000002
:101a500056000000424800005400000042420000ce
:101a60005a000000425a0000540000004254000096
:101a700054000000425300004d0000004255000099
:101a80005000000042530000542000004246000075
:101a90004b200000424600004c200000424600005f
:101aa000502000004241000043200000424100005d
:101ab000442000004254000048200000424600003c
:101ac000512000004246000049200000425300001f
:101ad000512000004253000049200000424600000f
:101ae00053200000424f00004c200000424f0000f5
:101af00053200000425200004d20000042560000da
:101b00004c200000424f00004d200000424f0000da
:101b100046200000425100004820000042520000d0
:101b200042200000425000005420000042550000b6
:101b300052200000424c00004420000042520000ad
:101b400032200000424800005620000042480000b9
:101b500054200000424200005a200000425a000077
:101b600054200000425300004d2000004255000068
:101b70005020000042540000540a000000530000ae
:101b800045540000004d0000533500003631000080
:101b90003120000000410000757400006f2000003b
:101ba00041750000646900006f200000616e000054
:101bb00064200000427500007a7a0000657200001f
:101bc000205400006f670000676c00006520000073
:101bd0004f6e0000203e0000006d00002f730000db
:101be0000d0a0000004200006c75000065740000e2
:101bf0006f6f000074680000204300006f6e0000eb
:101c00006e65000063740000656400000d0a00004a
:101c10000020000073650000636f00006e64000028
:101c2000734200006c750000657400006f6f000067
:101c300074680000576100006974000020540000bf
:101c4000696d0000656f000075740000202d0000b4
:101c50003e2000004469000073610000626c0000d7
:101c6000696e000067200000426c0000756500008e
:101c7000746f00006f740000682000005261000063
:101c8000646900006f0d00000a000000426c000053
:101c900075650000746f00006f740000682000001c
:101ca00044690000736300006f6e00006e65000001
:101cb00074650000640d00000a0000004e6f000013
:101cc000206d00006f760000656d0000656e0000fd
:101cd00074200000667200006f6d0000200000009c
:101ce0006d0d00000a0000004c6f0000772000001e
:101cf000426100007474000065720000790d0000fc
:101d00000a0000005f420000415400002000000073
:101d1000245000004d5400004b31000036310000cb
:101d20002c3000002a320000380d00000a000000ac
:101d3000536c000065650000706900006e6700006c
:101d40002855000041520000542900002e2e0000aa
:101d50002e0d00000a000000536c000065650000b5
:101d6000706900006e6700002e2e00002e0d00002e
:101d70000a0000005368000075740000646f0000e2
:101d8000776e00002e2e00002e0d00000a000000cd
:101d90004f520000462000004275000066660000b9
:101da0006572000020460000756c00006c0d00009c
:101db0000a00000041640000642000004f5200004f
:101dc0004620000066720000657100003a000000c5
:101dd000206d0000733a000000200000623a00000d
:101de00000200000653a0000000d00000a0000001d
:101df0004e65000078740000204f0000524600003d
:101e00002066000072650000713a000000000000ca
:101e1000510000000000000080bf00000000000032
:101e2000803f00000e760000d7450000506900009a
:101e3000746f00007420000049320000432000004d
:101e400065720000726f0000720d00000a00000051
:081e50000d0a00000000000073
:020000040000fa
:101e58000200fa00df070700ccc2a900cca2a90043
:101e6800043a80004622de00614262000482fb00e0
:101e7800610262004322dd002616800075ff2f00f4
:101e88008502630005027200241688000002eb0038
:101e9800043a8800c9080700050807009b020700e4
:101ea800c702070014c0b3000002fd0046eeb700e9
:101eb8000002fd00d618070000b82800c815070062
:101ec800a2040700c462a800551680000410200070
:101ed80004826200e00f520030003a00a8090700af
:101ee80000002800b15b2400a0000700260037008e
:101ef800241680006202620004f0a7000402ea00cf
:101f08000402e9004f22de00044278000482fb004c
:101f1800610262000402420026168000d5ff2f00ed
:101f28008502630005027200241688000050230011
:101f3800c10020007b1d07009902070024168000bd
:101f48006202620004f0a7000402ea000402e90049
:101f58004f22de00044278000482fb006102620026
:101f68000402420026168000d5ff2f008502630078
:101f7800050272002416880000502300c1002000ca
:101f8800681d07008e020700551680000410200007
:101f980004826200e00f5200d5ff3200c422a8007c
:101fa800470e070000002000a15724006f0007001b
:101fb8007b02070000202100a1072000591d07000f
:101fc8007f020700f007070020b8280071150700f6
:101fd800b47280000400780058150700d0c0b30020
:101fe8003b150700a0c0b3003915070080b82800ca
:101ff80068150700b472800004007800d81507003f
:10200800d0c0b30032150700a0c0b30030150700d8
:1020180000002000a14f24005400070004e1200024
:10202800040f78000a00370000a026008101200074
:102038003c1d07005a02070000a02600810120006d
:10204800381d07005e020700440620001e0f4200ec
:102058009e027800b4728000848f5200f2ff36002e
:10206800cc62a800c4e2a800c422a9000050230042
:10207800c10020002b1d070000002000a1572400ec
:102088003a0007004602070000502300c100200064
:10209800241d07004a02070074748000e00f5200f4
:1020a80001003200240007000002eb003408880019
:1020b80011e1a8000042eb000002fd0046eeb70067
:1020c8000002fd0044e6200014427800e14f52006f
:1020d80001003a004202070084e62000144278001a
:1020e800e14f520001003a008d02070064e620002b
:1020f80014427800e14f520001003a00e302070061
:10210800f4728000e00f520009003200e47280008f
:10211800e00f5200020032002102070001003700e0
:1021280000000000f4728000e00f5200fdff3a004a
:1021380023020700e3ff37000000fa004a1b0700ec
:102148000002be00e00f5200e08f5a0005003a007e
:10215800d0b828000f150700401f200001002000fc
:10216800341b07000080fa00000006000800fa008f
:10217800881f780020079800310798002e029000e9
:10218800be029000048fbe0018c0b30002002000f9
:10219800233024001e00be0095f9070000027800d5
:1021a800e00f5200010035000044eb00e04f5400fe
:1021b800030032000400200025302400048fbe00f4
:1021c8001e01be000040220041af240037f907007d
:1021d8000002be000400be00aaf907000002be000b
:1021e80004027800c4728800c4728000a40c8800bd
:1021f80064e4200014427800e04f520004003200ea
:10220800c47280000402d100b40c88002600370094
:10221800f4728000e00f520012003200c472800095
:102228000402d100050020000400be00b3f9070035
:102238000003be00846e8000956e80000401be001d
:102248000600be0002fa07000002be000400be003d
:102258008cf907000002be0004027800b40c880064
:1022680011003700c47280000402d100050020006c
:102278000400be00a1f907000003be00446c800002
:10228800556c80000401be000600be00f0f907008e
:102298000002be000400be007af907000002be007a
:1022a80004027800b40c88004f0478000080fa001b
:1022b800000006000000fa0004e420001442780040
:1022c800e04f52003b00320064748000e00f52007f
:1022d8002600320024e4200014427800e04f520027
:1022e800120032000042eb000400780040eeb70014
:1022f8000042eb000400780042eeb7006022b8000c
:10230800446c8800556c880044c6b300040078000b
:1023180044eeb70090ba28009e140700810c2000f4
:10232800800c2000340007003100370014c0b300cf
:102338000400780040eeb70014c0b3000400780031
:1023480042eeb700846e8000956e8000446c880071
:10235800556c880070bc28008e140700810c200082
:10236800007d200024000700210037000042eb0018
:102378000400780040eeb7000042eb00040078004b
:1023880042eeb7006022b800446c8800556c8800a3
:1023980040be28007f14070044c6b300040078003c
:1023a80044eeb700810c2000800c200012000700ca
:1023b8000f00370014c0b3000400780040eeb700e7
:1023c800846e8000956e8000446c8800556c88008f
:1023d80070bf28006f14070044c6b30004007800db
:1023e80044eeb700810c200000fa2000020007002c
:1023f8000080fa00000006000400fa00000f7800d0
:10240800110798006e0107001e007800e07288002e
:102418009e029000a4002000110009008402d80048
:1024280000027800f47288000080fa0000000600bc
:102438000800fa00889fbe006022b800048fbe0022
:1024480044e6200014427800e04f520016003200a3
:10245800a4738000050020000400be0027f90700cf
:102468000004be00b4738000050020000400be0014
:1024780022f907000003be00a46c8000b56c800040
:102488000401be000600be0071f907000002be008c
:102498000401be000800be0027f807000002be00c5
:1024a800048fbe006700370084e6200014427800dd
:1024b800e04f52004a003200a4738000050020005b
:1024c8000400be000df907000004be00b4738000cc
:1024d800050020000400be0008f907000003be0044
:1024e800e46d8000f56d80000401be000600be00aa
:1024f80057f907000002be000401be000800be0034
:102508000df807000002be000404be0084748000b9
:10251800050020000400be00f8f807000002be0015
:102528000401be000800be0002f807000002be0059
:102538002407980035079800a66c8000b76c8000c7
:10254800e46d8000f56d80000401be000600be0049
:10255800f8f707000002be000403be00e46e800026
:10256800f56e80000401be000600be00f2f7070009
:102578000002be000403be00e46e8000f56e800019
:102588000401be000600be0048f807000002be00b5
:10259800646c8800756c88008474800005002000d5
:1025a8000400be00d5f807000004be00646c80007b
:1025b800756c80002e019000be0190000400be00e2
:1025c80023f907000002be000401be000800be0097
:1025d800d9f707000002be00048fbe0019003700bb
:1025e80064e6200014427800e04f520015003200e3
:1025f800c4738000050020000400be00bff8070077
:102608000004be00d4738000050020000400be0052
:10261800baf807000003be00a46c8000b56c800007
:102628000401be000600be0009f907000002be0052
:102638000401be000800be00bff707000002be008c
:10264800048fbe00f4728000e00f520006003200d2
:10265800e4728000cfa2de000400be00a4f80700e8
:102668000002be00048fbe001e00be00bffe0700b1
:102678004f04be000080fa00000006000a00fa00bd
:10268800889fbe008a9fbe003007980041079800c7
:10269800a6688000b7688000046f8000156f80000e
:1026a8000401be000600be00e9f807000002be00f3
:1026b80018c0b3003e019000ce0190000400be0097
:1026c8004df8070000027800e00f520001003d00bd
:1026d8000044eb00e04f540009003200c668800057
:1026e800d7688000646e8000756e80000401be00ab
:1026f8000600be00d6f807000002be007e003700c4
:1027080014002000040f7800700037001e027800c3
:10271800c322dd0044d12000048242001403be001d
:10272800046f8000156f80000401be000600be0023
:10273800c7f807000002be0018c0b3003e019000b1
:10274800ce0190000400be002bf8070000027800bc
:10275800e00f520001003d000044eb00e04f540040
:10276800590032001e02e900c322dd0044d12000d6
:10277800048242001403be00046f8000156f8000bd
:102788000401be000600be00b1f807000002be004a
:102798000401be003e009000ce00900065f70700df
:1027a8000002be000404be001e027800c322dd0041
:1027b80044d12000048242001403be00046f80004c
:1027c800156f80000401be000600be00a0f80700d7
:1027d8000002be000405be001e02e900c322dd009f
:1027e80044d12000048242001403be00046f80001c
:1027f800156f80000401be000600be0094f80700b3
:102808000002be000401be000a00be0049f707002e
:102818000002be000401be000800be00a3f70700c6
:102828000002be0014079800250798001e02e90060
:102838004322dd00e402420044d120000482420029
:102848001404be001e0278004322dd00e4024200a8
:1028580044d12000048242001403be001e02e90095
:102868004322dd00e402420044d1200004824200f9
:102878001402be000401be000600be002df70700ca
:102888000002be001e019000ae0190000400be00d0
:102898006ff807000002be000401be000800be0079
:1028a80025f707000002be000403be00646e800026
:1028b800756e80000401be000600be0064f80700c3
:1028c8000002be000c0037001e0fe8001e02780050
:1028d800e60f52008dff3400466a8000576a800078
:1028e800646e8000756e80000401be000600be00a4
:1028f80057f807000002be000400be004f05be00e6
:102908004f04be000080fa00000006000000fa0034
:102918000002eb00840c88000002eb00940c880095
:10292800c47280000402d100b40c8800c472800014
:10293800a40c8800940c8000f401b300940c880067
:1029480092e1a900840c800004a0a00004b0a000bb
:1029580004c0a000840c880091a1a900840c800008
:102968000400a1000410a0000420a000840c88002a
:10297800846e8000956e8000446c8800556c8800d9
:1029880014c0b3000400780040eeb70014c0b300d0
:102998000400780042eeb7000080fa00000006004c
:1029a8000000fa00840c80000400a1000410a000bc
:1029b8000420a000840c88000080fa0000000600b3
:1029c8000000fa00840c80000400a1000410a1009b
:1029d8000420a100840c88000080fa000000060092
:1029e8000200fa000002eb00040f780043003700f1
:1029f800ebff070034748000e00f52000100320042
:102a0800c422a800a46c8000b56c80000400be003d
:102a18001aff07000002be0002402200436f240094
:102a28000400be000af807000002be000400be0051
:102a380073f707000002be00040f78000002eb00e5
:102a4800a40888001fe1a800000000009e0278008a
:102a5800a4088000848f52000700360044e6200056
:102a680014427800e04f520003003200f4728000f4
:102a7800e00f5200f5ff32001fe1a900d0ff070068
:102a8800c422a900a46c8000b56c80000400be00bc
:102a9800fafe07000002be0002402200436f240035
:102aa8000400be00eaf707000002be000400be00f2
:102ab80053f707000002be00040f78000002eb0085
:102ac800a40888001fe1a800000000009e0278000a
:102ad800a4088000848f52000700360044e62000d6
:102ae80014427800e04f520003003200f472800074
:102af800e00f5200f5ff32001fe1a90044e6200074
:102b080014427800e04f520003003200f472800053
:102b1800e00f5200b6ff32000080fa000000060005
:102b28000600fa00889fbe000002eb00040f780040
:102b38004b0037009aff0700646c8000756c8000ba
:102b480002002800b35324000400be00c0f70700a9
:102b58000002be000400be0029f707000002be0004
:102b68000402780085382100048252001407980076
:102b78001e029000cfa2de000400be005cf7070032
:102b88000004be00646c8000756c80000401be0007
:102b98000000200001f8230066f607000002be00ce
:102ba80002002000831c24000400be00a8f70700d0
:102bb8000002be0002002000030a24000400be0038
:102bc8005df607000002be000401be000800be005a
:102bd800b6f607000002be000400be0008f70700b2
:102be8000002be00240798002e029000040f78000f
:102bf8000002eb00a40888001fe1a8000000000004
:102c08009e027800a4088000848f520003003600da
:102c1800f4728000e00f5200f9ff32001fe1a900b2
:102c280067ff07009e0290002e029000048f52005a
:102c38000002eb00a40888001fe1a80000000000c3
:102c48009e027800a4088000848f5200030036009a
:102c5800f4728000e00f5200f9ff32001fe1a90072
:102c680084e6200014427800e14f520003003a0045
:102c7800f4728000e00f5200aeff320050ff0700f0
:102c88004f04be000080fa00000006000000fa00b1
:102c980043ff07000000000064e6200014427800ab
:102ca800e14f520003003a00f4728000e00f520036
:102cb800f9ff320042ff07000080fa00000006001a
:102cc8001c00fa00889fbe00000f9800110f9800a2
:102cd800220f9800330f9800440f9800550f980062
:102ce800a46c8000b56c80004e099000de0990004d
:102cf8000400be0056f707000002be000403be0031
:102d0800846c8000956c80000401be000600be0043
:102d180009f607000002be00846c8800956c8800e4
:102d28004e0a9000de0a90000401be000400be00b6
:102d380001f607000002be000403be00e46c800038
:102d4800f56c80000401be000600be0040f70700d5
:102d58000002be000404be004e099000de09900087
:102d68004e089000de08900039f707000002be0008
:102d78000403be00046d8000156d80000401be00d0
:102d88000600be0032f707000002be000401be00c4
:102d98000800be00e8f507000002be000404be00fb
:102da800246d8000356d80004e099000de0990008a
:102db8000400be0026f707000002be004e0990007e
:102dc800de0990000400be0021f707000002be00e3
:102dd8004e099000de0990000400be001cf70700b1
:102de8000002be004e099000de0990000400be00fb
:102df80017f707000002be000200200003082400a5
:102e08000400be0029f607000002be000401be004f
:102e18000800be00c8f507000002be000403be009b
:102e2800c46c8000d56c80000401be000600be00a2
:102e3800c1f507000002be00c46c8800d56c88008c
:102e4800046d8000156d80004e099000de09900029
:102e58000400be00fef607000002be000404be0027
:102e6800246d8000356d80004e099000de099000c9
:102e78000400be00f6f607000002be004e099000ee
:102e8800de0990000400be00f1f607000002be0053
:102e98004e099000de0990000400be00ecf6070021
:102ea8000002be0002002000030024000400be004f
:102eb800fef507000002be000401be000800be00c7
:102ec8009df507000002be000403be00e46c80000c
:102ed800f56c80000401be000600be0096f50700f0
:102ee8000002be00e46c8800f56c8800246d800048
:102ef800356d80004e099000de0990000400be0088
:102f0800d3f607000002be004e099000de099000cb
:102f18000400be00cef607000002be000403be0097
:102f2800046d8000156d80000401be000600be001f
:102f380081f507000002be00046d8800156d880049
:102f4800846c8000956c80000401be000e0890001f
:102f58009e08900077f507000002be00048fbe00af
:102f6800c46c8000d56c80002e099000be099000ca
:102f78000400be0070f507000002be000401be0098
:102f88000000200001f82300c8f507000002be0079
:102f98002407980035079800c46c8000d56c800021
:102fa8002e019000be0190000400be00a8f60700a4
:102fb8000002be004407980055079800e46c8000a2
:102fc800f56c80002e019000be0190000400be0048
:102fd8009ff607000002be00640798007507980076
:102fe8001e01be004e009000de00900098f607001b
:102ff8000002be000403be00846c8000956c800053
:103008000401be000600be004bf507000002be002a
:10301800846c8800956c88001e01be006e009000cc
:10302800fe0090008af607000002be000403be00fe
:10303800a46c8000b56c80000401be000600be00d0
:103048003df507000002be00a46c8800b56c88003e
:10305800086d8000196d8000e46c8000f56c8000bc
:103068006e019000fe0190000400be0078f6070093
:103078000002be000401be000800be002df50700d6
:103088000002be00046d8800156d8800e86c8000a1
:10309800f96c8000e46c8000f56c80004e019000b3
:1030a800de0190000400be0069f607000002be00c1
:1030b8000401be000800be001ef507000002be00a5
:1030c800e46c8800f56c8800c86c8000d96c8000be
:1030d800c46c8000d56c80004e019000de01900029
:1030e8000400be005af607000002be000401be003c
:1030f8000800be000ff507000002be00c46c88007f
:10310800d56c88004f04be000080fa00000006005d
:103118000000fa0090c028001e110700c00020001f
:103128000611070000c2b300e9100700001a2000ca
:1031380002110700d0c0b300e5100700a0c0b3001b
:10314800e31007000080fa00000006000000fa0003
:10315800e0c028000f110700c0c128000d110700aa
:10316800c0002000f5100700e0c2b300d810070027
:10317800001a2000f1100700d0c0b300d4100700d7
:10318800a0c0b300d21007000080fa0000000600bb
:103198000400fa00008fbe00a0c22800fd1007003e
:1031a8001e02780004007800e4100700d0c0b300c5
:1031b800c7100700a0c0b300c51007000080fa00c0
:1031c800000006000400fa00008fbe00f0c22800cc
:1031d800f0100700520020001e00be000e1107006c
:1031e80074748000e00f52000b00320000c2b3007c
:1031f800b7100700846d8000956d800011002000d5
:103208000401be00c0d52000600f0700000278004e
:1032180004007800df100700d0c0b300ac1007002e
:10322800a0c0b300aa1007000080fa000000060042
:103238000000fa0040c32800d6100700046c800084
:10324800156c80000400be00c610070000c2b30061
:103258009f1007003a1507000002be000400be00d8
:10326800c0100700d0c0b30099100700a0c0b30079
:10327800971007000080fa00000006000400fa001a
:10328800846c8000956c800002a02200d372240018
:103298000400be0005f507000002be000401be00e0
:1032a8000000200001f82300a2f407000002be007d
:1032b800628f2200830a24000400be0018f607006b
:1032c8000002be000403be00a46e8000b56e80003c
:1032d8000401be000600be00ddf507000002be00c6
:1032e8000400be0046f507000002be00048fbe00c1
:1032f80090c32800a7100700520020001e00be003f
:10330800c5100700a0c0b300711007000080fa00c4
:10331800000006001200fa00846c8000956c8000a2
:1033280002a02200d37224000400be00dff40700cc
:103338000002be000401be000000200001f82300c6
:103348007cf407000002be00628f2200830a24007a
:103358000400be00f2f507000003be00a46e800062
:10336800b56e80000401be000600be00b8f5070077
:103378000002be000400be0021f507000002be00e6
:10338800048fbe00a46c8000b56c80000200200091
:10339800832c24000400be00adf507000002be0027
:1033a8000400be0016f507000002be0024079800be
:1033b800dd1407000002be000400be004cf5070043
:1033c8000002be0002002000031224000400be0018
:1033d800b6f407000002be003407980045079800bd
:1033e800b4728000050020000400be0043f5070009
:1033f8000002be0002002000a34724000400be0013
:10340800aaf407000002be00540798006507980058
:103418005e009000ee009000f80207000002be0077
:103428000400be0017f507000002be0074079800ec
:103438000002eb00040f98008e0a900084c8200058
:10344800848242000042eb00844a78000e09900012
:10345800f1c3280080c82000640f0700000278002c
:10346800040f98001e01be00c0d520002e0e0700d4
:10347800000278000e0990008400780080c82000bf
:103488005a0f070000027800040f98000e099000f8
:1034980041c4280080c82000540f070000027800ab
:1034a800040f9800ae00900080d620009c0d070005
:1034b800000278000e0990008400780080c820007f
:1034c8004a0f070000027800040f98000e099000c8
:1034d80041c4280080c82000440f0700000278007b
:1034e800040f9800110020003e019000ce019000ca
:1034f800c0d52000a50e0700000278000e09900034
:103508008400780080c82000380f07000002780087
:10351800040f98000e09900041c4280080c82000bc
:10352800320f070000027800040f9800fe00900098
:10353800c0d52000c90d0700000278000e099000d0
:103548008400780080c82000280f07000002780057
:10355800040f98000e09900041c4280080c820007c
:10356800220f070000027800040f9800747480008e
:10357800e00f52000d003200846d8000956d8000d0
:10358800110020000401be00c0d520007f0e0700f6
:10359800000278000e0990008400780080c820009e
:1035a800120f070000027800040f980040c2b30011
:1035b800c70f070080c82000f60f0700a0c2b3009d
:1035c800c30f070080c82000c70f0700004278001b
:1035d8000440780095100700d0c0b300bc0f070066
:1035e800a0c0b300ba0f07000080fa000000060070
:1035f8001200fa00846c8000956c800002a0220002
:10360800d37224000400be0028f407000002be00a4
:103618000401be000000200001f82300c5f30700e4
:103628000002be00628f2200830a24000400be004c
:103638003bf507000003be00a46e8000b56e800055
:103648000401be000600be0001f507000002be002e
:103658000400be006af407000002be0014079800c8
:1036680025079800a46c8000b56c8000020020003b
:10367800832c24000400be00f5f407000002be00fd
:103688000400be005ef407000002be003407980084
:103698002b1407000002be000400be0094f40700cb
:1036a8000002be0002002000832c24000400be009b
:1036b800fef307000002be00440798005507980073
:1036c800b4728000050020000400be008bf40700df
:1036d8000002be0002002000a34724000400be0030
:1036e800f2f307000002be0064079800750798000f
:1036f8006e009000fe009000400207000002be002d
:103708000400be005ff407000002be00040f98002a
:103718000002eb00040f780084c820009e024200db
:103728000042eb00844a78001e01780061c428003a
:1037380080c82000ad0e070000027800040f780052
:103748001e019000ae019000c0d52000760d070044
:10375800000278001e0178008400780080c82000ec
:10376800a20e070000027800040f78001e017800fe
:1037780041c4280080c820009c0e07000002780081
:10378800040f7800be00900080d62000e40c0700eb
:10379800000278001e0178008400780080c82000ac
:1037a800920e070000027800040f78001e017800ce
:1037b80041c4280080c820008c0e07000002780051
:1037c800040f7800210020004e019000de019000d7
:1037d800c0d52000ed0d0700000278001e0178001a
:1037e8008400780080c82000800e0700000278005e
:1037f800040f78001e01780041c4280080c820000a
:103808007a0e070000027800040f78008e089000f6
:10381800c0d52000110d0700000278001e017800b5
:103828008400780080c82000700e0700000278002d
:10383800040f78001e01780041c4280080c82000c9
:103848006a0e070000027800040f78007474800084
:10385800e00f52000d003200846d8000956d8000ed
:10386800210020000401be00c0d52000c70d0700bc
:10387800000278001e0178008400780080c82000cb
:103888005a0e070000027800040f78001e01780025
:1038980041c4280080c82000540e070000027800a8
:1038a800040f7800210020006e019000fe019000b6
:1038b800c0d52000b50d0700000278001e01780071
:1038c8008400780080c82000480e070000027800b5
:1038d800040f78001e01780041c4280080c8200029
:1038e800420e070000027800040f7800747480000c
:1038f800e00f52000d0032003b1507000002be0029
:10390800110020000401be00c0d520009f0d070053
:10391800000278001e0178008400780080c820002a
:10392800320e070000027800040f780040c2b3008e
:10393800e70e070080c82000160f0700a0c2b300da
:10394800e30e070080c82000e70e07000042780059
:1039580004407800b50f0700d0c0b300dc0e0700a4
:10396800a0c0b300da0e07000080fa0000000600cd
:103978000c00fa00a46c8000b56c800002002000e6
:10398800832c24000400be0031f407000002be00ae
:103998000400be009af307000002be00040f78007e
:1039a800611307000002be000400be00d0f3070048
:1039b8000002be0002002000031224000400be0022
:1039c8003af307000002be00140798002507980084
:1039d800b4728000050020000400be00c7f3070091
:1039e8000002be0002002000a34724000400be001d
:1039f8002ef307000002be00340798004507980020
:103a08000002eb0054079800de02900084c82000f2
:103a1800848242000042eb00844a78005e019000f4
:103a2800b1c4280080c82000f00d0700000278000b
:103a380054079800046c8000156c80000401be00d7
:103a4800c0d52000b80c0700000278005e01900085
:103a58008400780080c82000e40d07000002780088
:103a6800540798005e01900031c5280080c82000e6
:103a7800de0d070000027800540798009e007800c9
:103a880080d62000260c0700000278005e01900016
:103a98008400780080c82000d40d07000002780058
:103aa800540798005e01900041c4280080c8200097
:103ab800ce0d07000002780054079800110020007e
:103ac8001e019000ae019000c0d520002f0d070008
:103ad800000278005e0190008400780080c8200011
:103ae800c20d070000027800540798005e0190009c
:103af80041c4280080c82000bc0d070000027800df
:103b080054079800210020003e019000ce0190004b
:103b1800c0d520001d0d0700000278005e0190004e
:103b28008400780080c82000b00d070000027800eb
:103b3800540798005e01900041c4280080c8200006
:103b4800aa0d0700000278005407980040c2b3008d
:103b58005f0e070080c820008e0e0700a0c2b300c9
:103b68005b0e070080c820005f0e07000042780047
:103b7800044078002d0f0700d0c0b300540e070092
:103b8800a0c0b300520e07000080fa000000060033
:103b98000200fa00881f78000002eb00040f78008a
:103ba80084c820009e0242000042eb00844a78004c
:103bb8001e017800b1c5280080c820008b0d0700c1
:103bc80000027800040f780074748000e00f52003f
:103bd80042003200846d8000956d800018c0b300eb
:103be8006011b8000400be0003f30700000278006b
:103bf800e00f520001003d000044eb00e04f54008c
:103c08001b003200846d8000956d8000a28a2b0015
:103c180083fc23000400be008df307000002be00f1
:103c28000400be00a1f407000002be006266260080
:103c3800630624000400be0085f307000002be00ee
:103c4800110020000401be00c0d52000cf0c0700e1
:103c5800000278001e0178008400780080c82000e7
:103c6800620d070000027800040f78001b0037007f
:103c7800846d8000956d800005f0a200a28a2b005b
:103c880083fc23000400be0071f307000002be009d
:103c98000400be0085f407000002be00626626002c
:103ca80063062c000400be0069f307000002be0092
:103cb800110020000401be00c0d52000b30c07008d
:103cc800000278001e0178008400780080c8200077
:103cd800460d070000027800040f78001e017800e6
:103ce80041c4280080c82000400d07000002780069
:103cf800040f7800846c8000956c8000110020000f
:103d08000401be00c0d52000a00c07000002780006
:103d18001e0178008400780080c82000330d070059
:103d280000027800040f78001e01780041c42800c2
:103d380080c820002d0d070000027800040f7800cd
:103d4800a46c8000b56c8000210020000401be0036
:103d580080d620008d0c0700000278001e01780034
:103d68008400780080c82000200d07000002780039
:103d7800040f78001e01780041c6280080c8200082
:103d88001a0d070000027800040f780040c2b30043
:103d9800cf0d070080c82000fe0d0700a0c2b300a9
:103da800cb0d070080c82000cf0d07000042780027
:103db800044078009d0e0700d0c0b300c40d070072
:103dc800a0c0b300c20d07004f0478000080fa00bd
:103dd800000006000000fa006e60a900c622a900d3
:103de800c022a900e024a9006e00a900c082a80092
:103df8006ee0a800c862a900e264a900cc62a8002d
:103e080071c0a90059c0a800c642a900c042a800b4
:103e1800e044a90071a0a90059a0a900c662a900a0
:103e2800c062a900c902a8006fc0a900cf82a9007a
:103e3800c982a900e384a9006f60a900cfe2a900a4
:103e4800c9e2a900cde2a8006f80a900c9c2a800f4
:103e5800e3c4a9006fa0a900cfa2a900c9a2a90024
:103e6800e3a4a90057e0a900cf62a900c962a9008c
:103e7800cd62a9007000a8005800a900cf42a9008f
:103e8800c942a8005be3a90090e1a9009101a9003b
:103e98007160a900cea2a900c8a2a9007100a9005a
:103ea800cec2a900c8c2a9000080fa00000006001e
:103eb8000000fa0044748000040078007c140700b5
:103ec8000474800004007800f3130700c506070097
:103ed800ba060700e00e0700020007000080fa009b
:103ee800000006000000fa00c002a800e004a800d4
:103ef800451a800004fe2f0004826200441a8800dc
:103f0800141a800004e0a10004f0a100141a88002b
:103f180043a3a90024c0b3000400780044e3b70019
:103f2800041a80000440a0000450a0000460a0000f
:103f38000470a100041a8800251a800004f02100ea
:103f480005027200241a8800041a80000480a10067
:103f58000490a100041a8800151a800034f82f0074
:103f680004826200141a880041e3a8005405800006
:103f78000440a0000450a1000460a100540588007a
:103f88000080fa00000006000000fa0085a0a900e1
:103f98004043a8000000000025048000040022001f
:103fa80004826200e00f5200fbff32004043a90088
:103fb80004188000a4728800a4728000cfa2de00da
:103fc8000400be004af207000002be0012002400ee
:103fd800e30c24000400be009df207000002be00ae
:103fe8000400be0006f207000002be0004027800ca
:103ff800b47288000080fa00000006000a00fa0087
:10400800889fbe003007980041079800e46680004a
:10401800f566800018c0b3003e019000ce01900004
:104028000400be00f4f1070000027800e00f52001f
:1040380001003d000044eb00e04f54000300320053
:1040480004678000156780005800370014002000be
:10405800040f7800500037001e027800c322dd00ec
:10406800c4cd2000048242001402be0018c0b30070
:104078003e019000ce0190000400be00def1070072
:1040880000027800e00f520001003d000044eb0000
:10409800e04f54003f0032001e02e900c322dd0059
:1040a800c4cd2000048242001402be000401be00f8
:1040b8003e009000ce0090001ef107000002be00f6
:1040c8000404be001e027800c322dd00c4cd200017
:1040d800048242001403be001e02e900c322dd0070
:1040e800c4cd2000048242001402be000401be00b8
:1040f8000600be000ff107000002be000401be006a
:104108000800be0069f107000002be00140798000d
:10411800250798001e02e9004322dd00e402420060
:10412800c4cd2000048242001404be001e027800a0
:104138004322dd00e4024200c4cd20000482420094
:104148001403be001e02e9004322dd00e40242001f
:10415800c4cd2000048242001402be000401be0047
:104168000600be00f3f007000002be001e0190002a
:10417800ae0190000400be0035f207000002be0048
:104188000401be000800be00ebf007000002be00fc
:10419800060037001e0fe8001e027800e60f5200e6
:1041a800adff340084688000956880000400be007c
:1041b8004f04be000080fa00000006000000fa006c
:1041c8000000eb009514070000027800e10f4200a0
:1041d80001003a00ea000700200020008f140700c1
:1041e80000027800050020000400be00c3f10700ab
:1041f8000002be0002002000a34724000400be0005
:104208002af107000002be00c46d8800d56d880041
:1042180040002000811407000002780005002000fb
:104228000400be00b5f107000002be000200200035
:10423800832c24000400be001cf107000002be000d
:10424800e46d8800f56d8800600020007314070095
:104258000002780064738800800020006f14070053
:104268000002780074738800a00020006b14070017
:104278000002780084738800c000200067140700db
:104288000002780094738800e0002000631407009f
:1042980000027800a4738800000120005f14070062
:1042a80000027800b4738800200120005b14070026
:1042b80000027800c47388004001200057140700ea
:1042c80000027800d47388006001200053140700ae
:1042d80000027800050020000400be0087f10700f6
:1042e8000002be0002002000832c24000400be004f
:1042f800eef007000002be00046e8800156e88000c
:104308008001200045140700000278000500200005
:104318000400be0079f107000002be000200200080
:10432800832c24000400be00e0f007000002be0059
:10433800246e8800356e8800a0012000371407001d
:1043480000027800050020000400be006bf10700a1
:104358000002be0002002000832c24000400be00de
:10436800d2f007000002be00446e8800556e880037
:10437800c001200029140700000278000500200071
:104388000400be005df107000002be00020020002c
:10439800832c24000400be00c4f007000002be0005
:1043a800646e8800756e8800e00120001b14070009
:1043b80000027800050020000400be004ff107004d
:1043c8000002be0002002000a34724000400be0033
:1043d800b6f007000002be00846e8800956e880063
:1043e800000220000d14070000027800e473880022
:1043f800200220000914070000027800f4738800e6
:104408004002200005140700000278000500200083
:104418000400be0039f107000002be0002002400bb
:10442800c37924000400be0043f007000002be0068
:10443800a46e8800b56e880060022000f71307009c
:10444800000278000474880080022000f31307003b
:104458000002780014748800a0022000ef130700ff
:104468000002780024748800c0022000eb130700c3
:104478000002780034748800e0022000e713070087
:10448800000278004474880000032000e31307004a
:10449800000278005474880020032000df1307000e
:1044a8000002780005002000c46e8800d56e8800e0
:1044b80040032000d91307000002780064748800c4
:1044c80060032000d51307000002780005002000d3
:1044d8000400be0009f107000002be00020020002f
:1044e800832c24000400be0070f007000002be0008
:1044f800e46e8800f56e880080032000c71307006b
:1045080000027800050020000400be00fbf0070050
:104518000002be0002002000832c24000400be001c
:1045280062f007000002be00046f8800156f880063
:10453800a0032000b91307000002780074748800f3
:10454800c0032000b5130700000278000500200012
:104558000400be00e9f007000002be0002002000cf
:10456800832c24000400be0050f007000002be00a7
:10457800246f8800356f88000080fa00000006006c
:104588000000fa00cc62a8002416800062026200d3
:1045980004f0a7000402ea000402e9004f22de004a
:1045a800044278000482fb006102620004024200b7
:1045b80026168000d5ff2f008502630005027200d1
:1045c8002416880014c0b3000400780036eeb70043
:1045d800ccc2a800cca2a80000012000b412070099
:1045e80000202100a1072000ce130700d0c6280014
:1045f800e80b070000202100a1072000c9130700cd
:10460800241680006202620004f0a7000402ea0097
:104618000402e9004f22de00044278000482fb0015
:10462800610262000402420026168000d5ff2f00b6
:1046380085026300050272002416880010c728004e
:10464800d40b0700d0c0b300a10b070000902000d6
:10465800d1032000b3130700241680006202620011
:1046680004f0a7000402ea000402e9004f22de0079
:10467800044278000482fb006102620004024200e6
:1046880026168000d5ff2f00850263000502720000
:1046980024168800d0c72800be0b0700d0c0b3007e
:1046a8008b0b070000902000d10320009d1307000a
:1046b800241680006202620004f0a7000402ea00e7
:1046c8000402e9004f22de00044278000482fb0065
:1046d800610262000402420026168000d5ff2f0006
:1046e800850263000502720024168800000120007c
:1046f8006f1207000042eb000400780036eeb700a6
:10470800ccc2a900cca2a9008000eb0000082000c0
:104718005313070041062000200020005013070013
:1047280041012000400020004d1307001100200027
:10473800600020004a1307001100200080002000bc
:104748004713070011002000a000200044130700b1
:10475800410b2000c000200041130700813e2000cb
:10476800e00020003e130700410620000001200061
:104778003b1307000119200020012000381307000f
:10478800410620004001200035130700810c20005d
:104798006001200032130700510020008001200032
:1047a8002f130700e10b2000a00120002c130700a5
:1047b80041062000c001200029130700813e200087
:1047c800e0012000261307008000eb000002200013
:1047d80023130700110020002002200020130700e7
:1047e800d1342500400220001d130700f10c2000e1
:1047f800600220001a130700110020008002200028
:10480800171307008000eb00a00220001413070014
:104818008000eb00c00220001113070001012000f6
:10482800e00220000e1307004101200000032000d1
:104838000b130700014b200020032000081307007a
:104848008000eb004003200005130700c10320008f
:1048580060032000021307004106200080032000a7
:10486800ff1207008000eb00a0032000fc120700e5
:1048780041062000c0032000f91207008000eb0069
:104888000000eb00f61207000080fa0000000600a6
:104898000c00fa00500798003200200021c82800b8
:1048a8005e00900083f3070000027800e00f5200da
:1048b8002d003a0034002000040f7800260037004d
:1048c8001e0278000402e800de0290000482420022
:1048d8000400780070090700000278003407980087
:1048e8001e02e8000401780001c2b3005e009000d7
:1048f800910a070000027800040f78001e02780071
:104908000402e800de0290000482420004007800fd
:10491800610907000002780044079800ce00900063
:104928003e0090000c08070000027800e00f5200db
:1049380002003a0000000000df0337001e02e80012
:104948000401780001c2b3005e0090007a0a0700f3
:1049580000027800040f78001e027800e00f520071
:10496800d7ff3a00d40337003200200061c828007e
:104978005e0090004ff3070000027800e00f52003d
:104988001e003a0014c0b3000400780036eeb700e9
:10499800c422a800d0c62800fe0a07000020210073
:1049a800a1072000df1207005e02900064024200a7
:1049b80004007800f70a0700d0c0b300c40a070053
:1049c80000902000d1032000d6120700d0c728008d
:1049d800f00a070000902000d1032000d112070040
:1049e800c422a9000042eb000002fd0036eeb70029
:1049f8000002fd000000fe00af0337003200200077
:104a0800a1c828005e0090002af307000002780081
:104a1800e00f520032003a00846e8000956e8000ec
:104a280002002000a34724000400be0008f007008d
:104a38000002be000400be0071ef07000002be00c5
:104a4800140798001e029000040242001407980000
:104a58009e029000843e2000848f520002003400a1
:104a6800843e2000140798001e02900084007800fd
:104a7800e00120007a1207001e029000cfa2de009b
:104a88000400be009aef07000002be0002002000ea
:104a9800a34724000400be0004ef07000002be0084
:104aa800846e8800956e8800846e8000956e800004
:104ab800446c8800556c880014c0b300040078006a
:104ac80040eeb70014c0b3000400780042eeb7000f
:104ad800810c2000007d200047f607007603370090
:104ae80032002000e1c828005e009000f1f20700c3
:104af80000027800e00f520034003a00846e800013
:104b0800956e800002002000a34724000400be0028
:104b1800cfef07000002be000400be0038ef070018
:104b28000002be0024079800ae0290002400200076
:104b3800110009008402d8000002780024079800b8
:104b48002e029000e00f520002003c0014002000ea
:104b5800240798002e02900084007800e0012000cd
:104b68003f1207002e029000cfa2de000400be0014
:104b78005fef07000002be0002002000a3472400e8
:104b88000400be00c9ee07000002be00846e880063
:104b9800956e8800846e8000956e8000446c880055
:104ba800556c880014c0b3000400780040eeb700cc
:104bb80014c0b3000400780042eeb700810c200056
:104bc800001920000cf607003b03370032002000d4
:104bd80021c928005e009000b6f2070000027800a4
:104be800e00f520003003a001400200064728800ad
:104bf800310337003200200061c928005e009000b0
:104c0800acf2070000027800e00f520003003a00ff
:104c18001400200074728800270337003200200037
:104c2800a1c928005e009000a2f2070000027800e7
:104c3800e00f520002003a000000fe001e03370099
:104c480032002000e1c928005e00900099f20700b8
:104c580000027800e00f520009003a008080eb0063
:104c68000000eb00fe11070020ca28005c0a0700bc
:104c780000cb28005a0a07000000fe000e03370088
:104c880032002000e1cb28005e00900089f2070086
:104c980000027800e00f520003003a0010002000e4
:104ca800cc060700040337003200200021cc28007e
:104cb8005e0090007ff2070000027800e00f5200cb
:104cc80003003a000000eb00c2060700fa023700b2
:104cd8003200200061cc28005e00900075f20700c9
:104ce80000027800e00f520002003a00a705070012
:104cf800f102370032002000a1cc28005e009000ad
:104d08006cf2070000027800e00f520017003a002a
:104d18005e02900064024200040078005e0807000a
:104d2800000278005473880054738000840078006f
:104d380020002000ca1107005473800005002000dd
:104d48000400be00edee07000002be0002002000d5
:104d5800a34724000400be0054ee07000002be0072
:104d6800c46d8800d56d8800d3023700320020005a
:104d7800e1cc28005e0090004ef2070000027800a7
:104d8800e00f520017003a005e02900064024200f1
:104d98000400780040080700000278005473880077
:104da800547380008400780040002000ac11070094
:104db80054738000050020000400be00cfee0700f9
:104dc8000002be0002002000832c24000400be0064
:104dd80036ee07000002be00e46d8800f56d88001d
:104de800b50237003200200021cd28005e00900077
:104df80030f2070000027800e00f52000d003a0080
:104e08005e02900064024200040078002208070055
:104e1800000278005473880054738000840078007e
:104e2800600020008e1107005473800064738800ae
:104e3800a10237003200200061cd28005e009000fa
:104e48001cf2070000027800e00f52000d003a0043
:104e58005e02900064024200040078000e08070019
:104e6800000278005473880054738000840078002e
:104e7800800020007a110700547380007473880042
:104e88008d02370032002000a1cd28005e0090007e
:104e980008f2070000027800e00f52000d003a0007
:104ea8005e0290006402420004007800fa070700de
:104eb80000027800547388005473800084007800de
:104ec800a0002000661107005473800084738800d6
:104ed8007902370032002000e1cd28005e00900002
:104ee800f4f1070000027800e00f520010003a00c9
:104ef8005e0290006402420004007800e6070700a2
:104f0800000278005473880054738000840078008d
:104f1800c000200052110700547380009473880069
:104f28000002eb0044728800cc62a80062023700dd
:104f38003200200021ce28005e009000ddf107003d
:104f480000027800e00f52000d003a005e02900067
:104f58006402420004007800cf07070000027800ce
:104f6800547388005473800084007800e0002000a7
:104f78003b11070054738000a47388004e02370069
:104f88003200200061ce28005e009000c9f10700c1
:104f980000027800e00f52000d003a005e02900017
:104fa8006402420004007800bb0707000002780092
:104fb8005473880054738000840078000001200036
:104fc8002711070054738000b47388003a02370031
:104fd80032002000a1ce28005e009000b5f1070045
:104fe80000027800e00f52000d003a005e029000c7
:104ff8006402420004007800a70707000002780056
:1050080054738800547380008400780020012000c5
:105018001311070054738000c473880026023700f8
:1050280032002000e1ce28005e009000a1f10700c8
:1050380000027800e00f52000d003a005e02900076
:105048006402420004007800930707000002780019
:105058005473880054738000840078004001200055
:10506800ff10070054738000d473880012023700c1
:105078003200200021cf28005e0090008df107004b
:1050880000027800e00f520017003a005e0290001c
:1050980064024200040078007f07070000027800dd
:1050a80054738800547380008400780060012000e5
:1050b800eb10070054738000050020000400be00b8
:1050c8000eee07000002be0002002000832c240020
:1050d8000400be0075ed07000002be00046e8800e3
:1050e800156e8800f40137003200200061cf2800d7
:1050f8005e0090006ff1070000027800e00f520098
:1051080017003a005e029000640242000400780032
:105118006107070000027800547388005473800008
:105128008400780080012000cd10070054738000af
:10513800050020000400be00f0ed07000002be00dc
:1051480002002000832c24000400be0057ed070055
:105158000002be00246e8800356e8800d601370034
:1051680032002000a1cf28005e00900051f1070016
:1051780000027800e00f520017003a005e0290002b
:105188006402420004007800430707000002780028
:10519800547388005473800084007800a0012000b4
:1051a800af10070054738000050020000400be0003
:1051b800d2ed07000002be0002002000832c24006c
:1051c8000400be0039ed07000002be00446e8800ee
:1051d800556e8800b801370032002000e1cf280062
:1051e8005e00900033f1070000027800e00f5200e3
:1051f80017003a005e029000640242000400780042
:105208002507070000027800547388005473800053
:1052180084007800c00120009110070054738000ba
:10522800050020000400be00b4ed07000002be0027
:1052380002002000832c24000400be001bed0700a0
:105248000002be00646e8800756e88009a013700ff
:105258003200200021d028005e00900015f10700e0
:1052680000027800e00f520023003a005e0290002e
:105278006402420004007800070707000002780073
:10528800547388005473800084007800e001200083
:105298007310070054738000050020000400be004e
:1052a80096ed07000002be0002002000a34724007c
:1052b8000400be00fdec07000002be00846e8800fa
:1052c800956e8800846e8000956e8000446c88001e
:1052d800556c880014c0b3000002fd0040eeb70012
:1052e8000002fd0014c0b3000002fd0042eeb7004a
:1052f8000002fd00700137003200200061d0280054
:105308005e009000ebf0070000027800e00f52000a
:105318000d003a005e02900064024200040078002a
:10532800dd0607000002780054738800547380007b
:1053380084007800000220004910070054738000a0
:10534800e47388005c01370032002000a1d02800f7
:105358005e009000d7f0070000027800e00f5200ce
:105368000d003a005e0290006402420004007800da
:10537800c90607000002780054738800547380003f
:105388008400780020022000351007005473800044
:10539800f47388004801370032002000e1d028006b
:1053a8005e009000c3f0070000027800e00f520092
:1053b80017003a005e029000640242000400780080
:1053c800b506070000027800547388005473800003
:1053d80084007800400220002110070054738000e8
:1053e800050020000400be0044ed07000002be00d6
:1053f80002002400c37924000400be004eec07001c
:105408000002be00a46e8800b56e88002a0137002d
:105418003200200021d128005e009000a5f007008e
:1054280000027800e00f520010003a005e0290007f
:105438006402420004007800970607000002780022
:105448005473880054738000840078006002200040
:1054580003100700547380000474880004748000eb
:10546800040078008c0e070013013700320020007a
:1054780061d128005e0090008ef0070000027800dd
:10548800e00f52000d003a005e02900064024200f4
:105498000400780080060700000278005473880032
:1054a800547380008400780080022000ec0f07000d
:1054b8005473800014748800ff0037003200200005
:1054c800a1d128005e0090007af007000002780061
:1054d800e00f52000d003a005e02900064024200a4
:1054e800040078006c0607000002780054738800f6
:1054f8005473800084007800a0022000d80f0700b1
:105508005473800024748800eb00370032002000b8
:10551800e1d128005e00900066f0070000027800e4
:10552800e00f52000d003a005e0290006402420053
:1055380004007800580607000002780054738800b9
:105548005473800084007800c0022000c40f070054
:105558005473800034748800d7003700320020006c
:1055680021d228005e00900052f007000002780067
:10557800e00f520010003a005e0290006402420000
:10558800040078004406070000027800547388007d
:105598005473800084007800e0022000b00f0700f8
:1055a80054738000447488004474800004007800b8
:1055b800bf0e0700c00037003200200061d228006b
:1055c8005e0090003bf0070000027800e00f5200f8
:1055d80010003a005e029000640242000400780065
:1055e8002d06070000027800547388005473800069
:1055f8008400780000032000990f0700547380008e
:10560800547488006022b800446d8800556d880085
:10561800a900370032002000a1d228005e009000c7
:1056280024f0070000027800e00f520012003a0050
:105638005e0290006402420004007800160607002b
:105648000002780054738800547380008400780046
:1056580020032000820f07005473800005002000fb
:10566800c46e8800d56e88006022b800646d88001a
:10567800756d88009000370032002000e1d22800c4
:105688005e0090000bf0070000027800e00f520067
:1056980014003a005e0290006402420004007800a0
:1056a800fd050700000278005473880054738000d9
:1056b8008400780040032000690f070054738000bd
:1056c8006474880064748000e00f52007700320030
:1056d80014c0b3000002fd0042eeb7000002fd0056
:1056e800750037003200200021d328005e009000aa
:1056f800f0ef070000027800e00f520017003a00b0
:105708005e0290006402420004007800e20507008f
:105718000002780054738800547380008400780075
:10572800600320004e0f070054738000050020001e
:105738000400be0071ec07000002be000200200059
:10574800832c24000400be00d8eb07000002be0032
:10575800e46e8800f56e880057003700320020009c
:1057680061d328005e009000d2ef070000027800a5
:10577800e00f520017003a005e02900064024200f7
:1057880004007800c40507000002780054738800fc
:105798005473800084007800c0032000300f070095
:1057a80054738000050020000400be0053ec07007d
:1057b8000002be0002002000832c24000400be006a
:1057c800baeb07000002be00246f8800356f88001e
:1057d8003900370032002000a1d328005e00900075
:1057e800b4ef070000027800e00f520017003a00fb
:1057f8005e0290006402420004007800a6050700db
:105808000002780054738800547380008400780084
:1058180080032000120f0700547380000500200049
:105828000400be0035ec07000002be0002002000a4
:10583800832c24000400be009ceb07000002be007d
:10584800046f8800156f88001b00370032002000a5
:10585800e1d328005e00900096ef07000002780070
:10586800e00f520014003a005e0290006402420009
:105878000400780088050700000278005473880047
:105888005473800084007800a0032000f40e070001
:10589800547380007474880074748000e00f5200a0
:1058a8000400320024f20700030037000000000063
:1058b80001003700000000000080fa000000060028
:1058c8000000fa0012f6070020d42800310707006c
:1058d800f0db28002f0707000002eb00d4718800d6
:1058e800d471800004007800cc0e07000002780014
:1058f800c47188000d00370000c2b300f406070029
:10590800c4718000040078000c070700d47180007f
:105918000482e800d4718800d47180000400780003
:10592800be0e070000027800c4718800c4718000b0
:10593800e10f4200f0ff3a00d0c0b300e4060700d0
:10594800a0c0b300e2060700020007000080fa00ca
:10595800000006000000fa0030dc28000d070700f0
:105968000002eb00c47188000b003700c47180008e
:1059780004007800780b0700000278000400780023
:10598800dd07070000c2b300d1060700c47180001c
:105998000402e800c4718800c4718000e70f520057
:1059a800f2ff3400d0c0b300c9060700a0c0b3009e
:1059b800c70607000080fa00000006000000fa0091
:1059c8001fe1a9001e21a9001ec1a9001fa1a9004d
:1059d8001ea1a8001e81a8001e61a9000080fa006f
:1059e800000006000000fa0011e1a9001021a9003a
:1059f80010c1a90011a1a90010a1a9001081a80037
:105a08001061a9003405800004c0a00004d0a000e3
:105a180004e0a1003405880084e0a90094e0a8000f
:105a280004712200640888000002eb003408880032
:105a38000080fa00000006003600f800809fbe00d3
:105a4800829fbe00849fbe00869fbe00889fbe00c6
:105a58008a9fbe003400f80000002000a0018800e2
:105a68000800fa0024e5200014427800e04f5200b4
:105a780009003200230a0700140a07000042eb005d
:105a88000002fd0052eeb7000002fd003b0a0700cd
:105a980067060700e8013700290a0700120a07000d
:105aa80014c0b3000002fd0052eeb7000002fd0072
